:400000000010002011000000710100007101000010B501F09DF800F0EFF900F0B1F8C04610B50B4C12232360182001F011F880225201084B1A60084A084B1A600022084B7D
:400040001A604032074B1A601123236010BDC046300010400003014040FF008000000140280003400001014010B572B6EE2212020B4B1A6099220B4B1A60C02212040A4B14
:400080001A60D8221201094B1A600223084A13603121084A1160084A1360FFF7C1FF10BD000302400004024008010440080304400004044008040440180404400000000085
:4000C0000000000000000000000000000000000000000000000000000000000000000000000000000000000000000000000000000000000000000000000000000000000000
:4001000010B5064C2378002B07D1054B002B02D0044800E000BF0123237010BD1001002000000000CC130000084B10B5002B03D00749084800E000BF07480368002B00D133
:4001400010BD064B002BFBD09847F9E70000000014010020CC130000880000200000000010B562B600F004FC00F0AAFBFEE7C04610B501F0E9F803680C2B00D1FEE7FEE7CF
:4001800070B50F4E0F4D13E029686B68AC68002202E001C901C30432A242FAD1E868002202E0002102C304328242FAD11035013E002EE9D101F0CEF8FFF7D2FFFEE7C046AB
:4001C000010000006014000010B500230AE0032B03D89A000B49505800E00B4899000B4A885001331F2BF2D9FFF73EFF084B1B68002B02D10022064B1A6080229205054B5A
:400200001A6010BD0000000071010000000000208000002008ED00E0002306E04218013A12789B189BB2013989B20029F6D1584280B270470047C04610B58022024B1A60E5
:4002400000F07AFE10BDC04680000020F0B583B00D006B469E1DDA8001230B7048701400AA70130ACB70171DB9B22800FFF7D4FFE855631D000AE854A31D1722EA54073416
:40028000A1B296233200280000F07AFC03B0F0BD70B505000E001400002802D0002000F011FE002005E0013CAB19E3181B781818C0B2002CF7D170BD10B50C2863D88000A2
:4002C000404B1B589F464B06591ACB013E4A9446634401225CE04B06591ACB013B4A94466344042254E04B06591ACB01384A9446634402224CE04B06591ACB01354A944667
:400300006344042244E04B06591ACB01324A9446634401223CE04B06591ACB012F4A94466344012234E04B06591ACB012C4A9446634402222CE04B06591ACB01294A9446AB
:400340006344022224E04B06591ACB01264A9446634402221CE04B06591ACB01234A94466344042214E04B06591ACB01204A9446634401220CE04B06591ACB011D4A94461A
:400380006344042204E0002000F09CFD02220023012A02D11878C0B200E00020022A03D11978587800020843042A09D11A785878000210439A7812041043DB781B061843E5
:4003C00010BDC046D0130000C07F0000C17F0000C57F0000C97F0000D07F0000D17F0000D67F0000D27F0000D47F0000D87F0000DC7F0000E07F000010B50D4B1B68DB0612
:4004000002D400220B4B1A600A4B1B68802B0ED10022084B1A6000210220FFF74DFF002805D000210220FFF747FFFFF703FF10BD540003408000002070B505000100032058
:40044000FFF73AFF441CE40129000420FFF734FF241829000320FFF72FFF421CD2010023002608E01078411EC9B2FD2900D801261B18DBB20132A242F4D35B42DCB229000B
:400480000120FFF719FF844203D1002E03D1062002E0062000E0002070BDC046F0B55F4656464D464446F0B4CD4CA544050000F021FB62B600239A4600270A249946002DDA
:4004C00001D1FF2300E02B00C64A02A98C4662449621490052A800F015FB002D01D0013CE4B2002C01D00028E9D1002800D0D7E1BC4B02AA944663441B88062B24D952AA6F
:400500001278012A22D152A9CA78120289780A439146110007329A421AD896235B009A4218D84A1D52AB9E5C3202081D1E5C164306315B5C172B0FD181B252A8FFF76CFE7E
:4005400086420BD100260AE0042608E0042606E0032604E0032602E0042600E00826002E00D04BE152AB1A7993465A781300313BD9B20A2900D901E18B009B49CB589F4681
:40058000012F00D03CE14B46002B00D03BE10020FFF752FF4342434152AA1371012278E1012F00D032E14B46012B00D031E15B46002B00D030E18D4B1B681B68DA0BD2B264
:4005C000934503D1DB09FF22134005E0934501D9002301E080235B0052AA13711B0A5371FF2393710023D371042252E1342A0DD1012F00D013E14B46032B00D012E14C32DF
:40060000002107A800F0D5FE80239A46012F00D00BE14B46022B00D80AE107A85044DA1E4821FF3102AB9C46614400F0B9FE4B4653449BB2832B00D0FDE052AA93791B0293
:40064000527913439A46FF2B00D90A26002E00D0F8E05B461802504480B2644B1B681A68D3099BB2520601D001339BB2834200D9ECE007A900F022FB002800D1EDE0002358
:400680009A46803399460A26002202E1012F00D104E104260022FCE0012F00D0E3E04B46534496225200934200D9DFE007A850444A4653A900F074FE53464B449BB29A469D
:4006C0000022E6E04B46002B00D0D2E004AA484B03CB03C253AA04AB03CB03C200239A4601270822D5E0012F00D0C5E04B46032B00D0C4E052AA93791B02527913439846BB
:400700005B4619024144C9014346FF2B00D90A26002E00D0B6E080220020FFF7B9FD030001905A461202424492B25946002911D1FF2A0FD10520FFF7BFFDC0B2019B1B1A11
:40074000DBB2984600210620FFF7B6FDC3B24246D31ADBB25B4252AA1371012299E00020FFF76AFE002802D18022224B1A6000F0C5F900F0E1FB042600228AE01E4B1E68CD
:40078000002E00D180E0012F00D080E002AB1A704A465A8053AB03930C22002104A800F008FE04AB9B4653AA0692190002A8B0475B469A882623FF339A4203D953AB0699E2
:4007C000994207D0069B002B01D1002A05D1049BDEB25EE00E2600225BE00E26002258E084FDFFFF6E020000041400008C00002030140000800000202C010020002248E0EF
:400800000426002245E00426002242E0042600223FE0042600223CE00426002239E00426002236E00426002233E00426002230E0042600222DE000239A468033994603266D
:40084000002226E080239946002222E000239A46803399460A2600221BE000239A4680339946002215E00426002212E0032600220FE0042600220CE00426002209E004260D
:40088000002206E0002204E00526002201E00526002252A93000FFF7D9FC01E000239A46002D00D10BE6012F00D108E69F239B009D443CBC90469946A246AB46F0BDC04680
:4008C00070B50020FFF7B8FD002801D0062400E00024154D2B681A68C03AC0210020FFF7D7FC6B681B78C01AC0B24042C0B2834204D10D4B1B681B68002B02D1002000F0FA
:40090000E1FA0A4B1B68402B01D0002C05D00022064B1A600020FFF7C1FD3220FFF7BEFDFFF78AFC70BDC0468C0000208000002010B5072000F0A8FA10BDC04610B500F002
:40094000B3F810BD10B500F0C1F810BD10B500F035F810BD10B5054A1368802109060B431360FFF7E5FFFFF7E9FF10BD0000084010B5064B1B78002B04D1FFF7E7FF0122A0
:40098000024B1A70FFF7E6FF10BDC0463001002010B5072000F082FAFFF7D4FF054A13685B005B0813600022034B1A60072000F07FFA10BD00000840880F084070B5204A48
:4009C000204B1A600024204B1C60204A204B1A60204B214A13600721204A1160204A14600639204A1160204A1360204B1C6004251F4B1D60072000F051FA0321072000F003
:400A000075FA1C49072000F05FFA1B4B1C601B4B1C601B4B1C601B4B1C601B4B1D601B4B1C601A681A4B1A801A4B1C601A4B1C601A4B1C701A4B1C601A4B1C6070BDC046FC
:400A40000B000002000008404000084001000A0048000840070000800003084004030840100308404400084000020840040208405000084065120000880E0840C80E084053
:400A8000480F0840080F0840C80F0840880F08403801002054010020600100205C010020E80100205801002005490B68F0229343603A13430B60034B1A88034B1A60704779
:400AC0000004024038010020880F0840064A1368F0218B431360054B1A68E423DB001340034A13807047C04600040240880F08403801002010B5FFF73BFF10BD10B5FFF7BC
:400B000047FF10BDF0B583B007000E00019200282DD000292ED09A00D3185C0000F04AFB002811D000F046FB0500AB2000F0FCFA00F040FB8542F5D1B54200D93500019B77
:400B40001D800023019308E0012000F001FA013C002CE3D1002510230193002404E03E1900F00EFB30700134A542F8D804E00123019301E001230193019803B0F0BDC0460C
:400B800070B50C001500002806D0002906D000F05DFB2C80002002E0012000E0012070BD82B0134B0093134B0193134B6A461A601249134A1160C0461B681B0F1B07F02200
:400BC0001206934204D10C4B1B68FF2018400DE0094B1B681B0F1B07A0221206934204D0054B1B68FF20184000E0002002B07047B6E900003C0100200800104016000080B2
:400C000004001040104B114A1A601149114A1160C0461B681B0F1B07F0221206934204D1094B1B68FF2018400DE0074B1B681B0F1B07A0221206934204D0034B1B68FF2092
:400C4000184000E00020704708001040B6E80000150000800400104082B0134B0093134B0193134B6A461A601249134A1160C0461B681B0F1B07F0221206934204D10C4BC0
:400C80001B68FF2018400DE0094B1B681B0F1B07A0221206934204D0054B1B68FF20184000E0002002B07047B6EA00003C01002008001040170000800400104030B5A5B07A
:400CC0000400002323932293FF2872D8002970D0802202A800F064FB384B00937F230193374B6A461A603749374A1160C0461B681B0F1B07F0221206934204D1304B1B68DC
:400D0000FF2213400DE02E4B1B681B0F1B07A0221206934204D02A4B1B68FF22134000E000232393239B002B45D100F022FA0500FFF736FF2290229B002B02D1FFF762FF63
:400D40002390239B002B25D1204A0092009A2404144300941A4A694611601D481A490860C0461268120F1207F02109068A4204D1134B1B68FF2213400BE0114A1268120FD3
:400D80001207A02109068A4203D00D4B1B68FF2213402393229B002B07D1FFF75DFF2290229B002B01D0229B2393280000F0E5F901E004232393239825B030BDB6D70000F8
:400DC000080010400400008004001040B6D800000500008070B5040000F0CBF90500102C05D8104A136803218B43136016E0202C07D80C490B6803229343023A13430B609A
:400E00000CE0302C07D807490B6803229343013A13430B6002E0002000F054F8280000F0ACF970BD300010400C4B1B689B001C22134018330A4A1268920803210A40D340EF
:400E400008490868084A02400A60084A944663441B78DBB2064A13607047C046080F03402800034000000740FFFFFFBFCDF1FF0F0C0F0340034B18688023DB05184000D0D5
:400E800001207047000007401F2318401E3B8340014A13607047C04600E100E01F2318401E3B8340014A13607047C04680E100E01F2318401E3B8340014A13607047C0467E
:400EC00080E200E001BE704770B504000D000F2802D90020FFF7F6FF1034A40080239B059C4664442068256070BDC04670B504000E00032902D90020FFF7E4FF0F2C02D9A5
:400F00000020FFF7DFFF03252540ED00063500F030F9A408A400074B9C46644421680323AB4099430B003100A9401943216000F024F970BD00E400E0034A13681B041B0C3F
:400F400002490B43136070470CED00E00400FA0510B5040006E0084B586800F001F9074B9C46644480231B029C42F4D8024B9868604300F0F5F810BD940000200080FFFF14
:400F800070B582B000F0DAF800284DD000F0F1F80500264B1A6892001C231A401832244B1B689B0803210B40DA400021214B1960214C2168214B0B4021494A438021C9015A
:400FC0008C466244D20B013A5205520D1343A0225203134323601B4B1B6801933020FFF7F9FE194A13688021C9050B4313602668164B1E40002407E00120FFF7A9FF103442
:40100000A30533430C4A1360EE2CF5D90120FFF79FFFFF239B051E43074B1E60019A094B1A60280000F0A9F802B070BD080F0340280003400C0F03400800074000F800C00E
:4010400040420F003000104000000740FFFF3FC0F0B583B0040018280BD01C2809D0202807D0242805D0282803D02C2801D0302849D100F07EF80190FFF7FCFE002803D02B
:40108000FFF7D2FE012600E00026214A136807218B4313601F4BE3181B78DBB21E4A13601E4A13688B4313601D4803687F22934319001C4BE3181B7813400B4303603220BF
:4010C00000F04EF8182C16D9114F3B680725AB431A0023001C3B9B082B4013433B60322000F03EF83A68AA432300183B9B082C001C4014433C60012E01D1FFF741FF01986C
:4011000000F03BF802E00020FFF7DCFE03B0F0BD080F0340CDF1FF0F0C0F0340100F0340180F0340B4F1FF0F10B5034B1B7B584300F016F810BDC04694000020034B1B68BD
:40114000002B01DA012000E00020704700000740014A024B1A6070476588EDAC380003400230800803D001300238FCD1C046C0467047EFF3108072B6704780F310887047E5
:40118000094B1A68094B1B689A420BD0074B1B680133412B00D10023054AD05CC0B2034A136000E000207047540100206001002064010020074B1B68074A1268934203D338
:4011C000054A1068181A04E0034A10681B1A4133180070475401002060010020144B1A68144B1B689A4208D1134B1B681F221340082B02D0114B186019E00D4B1A68013213
:40120000402A00D100220B4B1B689A42FBD002230B490B60C0B20B49885405490A600A4A1268134203D1084A11680B4313607047E8010020580100200802084040020840FB
:40124000800F0840A8010020880F084070B506000D00002403E0305DFFF7C0FF0134AC42F9D370BD10B5274B1B68002B00D09847254B1B685B071DD5244B1B680133412BE5
:4012800000D10023224A1268934205D1214B1B682022214B1A7006E01E4A1268D2B21F49CA541A4A13601E4B1B68DB06E4D104221C4B1A601C4B1B689B0721D51B4B1A68E6
:4012C0001B4B1B689A4213D0194B1B680133402B00D10023174AD25CD2B217490A60144A1360164B1B681F221340082BE6D104E0134A136802218B4313600222114B1A60A2
:4013000010BDC04634010020CC0F08405401002060010020400308405C0100206401002008030840C00F08408C0F0840E801002058010020A801002040020840080208406B
:40134000880F0840800F0840014B18687047C046080100200E4B70B500251E000D4CE41AA410A54204D0AB00F35898470135F8E700F064F8084B00251E00084CE41AA410AC
:40138000A54204D0AB00F35898470135F8E770BD48140000481400004814000050140000002310B59A4203D0CC5CC4540133F9E710BD03008218934202D019700133FAE749
:4013C0007047000000150000A80000000000000086030000C6020000D6020000E6020000F602000006030000160300003603000026030000460300005603000066030000E1
:401400007603000080050000A00500007C070000EC0500008C0600007C07000098060000C4060000EC050000E60600005E070000A9110A19003C010143000000F8B5C046C5
:40144000F8BC08BC9E46704729010000C9010000F8B5C046F8BC08BC9E46704701010000701400008800002088000000E000000000000000C4130000C81300000100000056
:401480000000E02EC05D00001800000000366E01000000000000000000000000000000000000000000000000000000000000000038140000000000000000000000000000F8
:4014C000000000000000000000000000000000000000000000000000000000000000000000000000000000000000000000000000A800002000000000000000000000000024
:401500000010002011150000871600008716000010B5034B83F3088800F01AFA00F0BCF80010002010B572B61F4A204B20491A60EE22204B12021A6099221F4B1F4C1A6073
:40154000C0221F4B12041A600D231E4A182013601D4A11601D4A31211360D8221C4B12011A6002231B4A13601B4A11601B4A13601033236000F08AF900238020184A1949EF
:401580001360194A400111601849086018491160184A13604022184B1A60184B01321A601123236010BDC046FFFF0000000202408E0D000000030240000402403000104072
:4015C00008010440000204400802044018020440080304400004044008040440180404400003014040FF0080000001400403014041FF008028000340040101400001014026
:4016000010B5064C2378002B07D1054B002B02D0044800E000BF0123237010BD08010020000000001C1B0000084B10B5002B03D00749084800E000BF07480368002B00D1CE
:4016400010BD064B002BFBD09847F9E7000000000C0100201C1B0000880000200000000010B562B600F088F9012000F05FF8FA20400000F093F8002000F058F8FA20400046
:4016800000F08CF8F0E710B500F01CFA03680C2B00D1FEE7FEE70000F8B500250F49104B01394A1C14D000221F685C689E68A018B24203D0B858A0500432F8E70200DE687F
:4016C000141AA64201D020C2FAE710330139E8E700F0FEF9FFF7C4FFFEE7C04601000000481B0000002370B50B480C4C0C4D9A002100032B00D8A95801338150202BF6D1E0
:40170000FFF710FF074B1A68002A00D11A608022054B92051A6070BD0000002087160000001500008000002008ED00E07F23044AC00111680B401843C0B210607047C04675
:40174000000104400B480C4A0C4B10B51B68116804680B4A9B00224002601C2213400A07920F1833D340074A9B181B78064ADBB2136010BD0000074028000340080F0340E2
:40178000FFFFFFBFCDF1FF0F0C0F0340024B18684000C00F7047C0460000074070B5802504002D02064BAC4205D9586800F058F9044BE418F6E79868604300F051F970BD16
:4017C0008C0000200080FFFFF0B585B000F0BAF8002846D000F04DF90024234A234B01901B681068224A234D14602968224A9B001140A022520311431C2213400207920F65
:401800001833D3401D4A1E4E53438022D2019B18DB0B013B0B432B6033683020039300F02FF98021174AC90513680B4313602A68154B1A40170001201034FFF7AFFFA30505
:401840003B432B60F02CF6D10120FFF7A7FFFF23084A9B053B431360039B0198336000F00CF905B0F0BDC04628000340080F03400C0F03400800074000F800C040420F00D8
:401880003000104000000740FFFF3FC0F7B50500183D0400182D45D80126234B3700EB409F433FD100F0E5F80190FFF76FFF0097002802D0FFF746FF009607271B4E1C4AEE
:4018C00033681C49BB4333601B4BE3181B78DBB213601A4A1368BB431360194B0A68E31818787F239A43034013430B60322000F0B7F8182C0ED033681C3CA408BB433C4003
:401900001C433460322000F0ABF83368AD08BB431D433560009B012B01D1FFF755FF019800F0ABF8F7BDC04611111101080F03400C0F0340180F0340CDF1FF0F100F03403F
:40194000B4F1FF0F014B1868C00F704700000740014A024B1A6070476588EDAC380003408021044A10B5136809060B43136000F065F810BD0000084010B5054C2378002B14
:4019800003D100F007F801232370FFF7E9FF10BD24010020154A164B07201A600023154A15491360154A1160154A16490A6016490860164906380B601549086015490A60B4
:4019C0000421154A1360154A1160154A1360154A1360154A1360154A1360154A1360154A13601268144B1A807047C0460B000002000008404000084001000A00480008408C
:401A00000700008000030840040308401003084044000840000208400402084050000840880E0840C80E0840480F0840080F0840C80F0840880F084026010020F021054ACF
:401A400013688B4360390B431360034B1A88034B1A6070470004024026010020880F08400230800803D001300238FCD1C046C0467047EFF3108072B6704780F3108870474D
:401A800010B50400FFF7F5FF102C04D803210C4A13688B430FE0202C05D80321084A13688B43023906E0302C06D80321044A13688B4301390B431360FFF7DFFF10BDC04609
:401AC00030001040014B18687047C046000100200E4B70B500251E000D4CE41AA410A54204D0AB00F35898470135F8E700F01AF8084B00251E00084CE41AA410A54204D0F2
:401B0000AB00F35898470135F8E770BD301B0000301B0000301B0000381B00000000000043000000F8B5C046F8BC08BC9E46704729160000E5160000F8B5C046F8BC08BCEC
:401B40009E46704701160000581B000088000020800000002000000000000000010000000000E02EC05D00001800000000366E01000000000000000000000000000000000F
:401B800000000000000000000000000000000000201B00000000000000000000000000000000000000000000000000000000000000000000000000000000000000000000EA
:401BC00000000000000000000000000000000000A0000020000000000000000000000000000000000000000000000000000000000000000000000000000000000000000025
:401C000000000000000000000000000000000000000000000000000000000000000000000000000000000000000000000000000000000000000000000000000000000000A4
:401C40000000000000000000000000000000000000000000000000000000000000000000000000000000000000000000000000000000000000000000000000000000000064
:401C80000000000000000000000000000000000000000000000000000000000000000000000000000000000000000000000000000000000000000000000000000000000024
:401CC00000000000000000000000000000000000000000000000000000000000000000000000000000000000000000000000000000000000000000000000000000000000E4
:407FC000E11115000029000000000700000000000000000000000000000000000000000000000000000000000000000000000000000000000000000000000000000000004A
:0200000490303A
:0200000029C015
:0200000490402A
:200000000000000000000000000000000000000000000000000000000000000000000000E0
:0200000490501A
:0C0000000002190A11A9000119123B6945
:0200000490600A
:0100000001FE
:00000001FF