:400000000010002011000000710100007101000010B501F09DF800F0EFF900F0B1F8C04610B50B4C12232360182001F011F880225201084B1A60084A084B1A600022084B7D
:400040001A604032074B1A601123236010BDC046300010400003014040FF008000000140280003400001014010B572B6EE2212020B4B1A6099220B4B1A60C02212040A4B14
:400080001A60D8221201094B1A600223084A13603121084A1160084A1360FFF7C1FF10BD000302400004024008010440080304400004044008040440180404400000000085
:4000C0000000000000000000000000000000000000000000000000000000000000000000000000000000000000000000000000000000000000000000000000000000000000
:4001000010B5064C2378002B07D1054B002B02D0044800E000BF0123237010BD1001002000000000CC130000084B10B5002B03D00749084800E000BF07480368002B00D133
:4001400010BD064B002BFBD09847F9E70000000014010020CC130000880000200000000010B562B600F004FC00F0AAFBFEE7C04610B501F0E9F803680C2B00D1FEE7FEE7CF
:4001800070B50F4E0F4D13E029686B68AC68002202E001C901C30432A242FAD1E868002202E0002102C304328242FAD11035013E002EE9D101F0CEF8FFF7D2FFFEE7C046AB
:4001C000010000006014000010B500230AE0032B03D89A000B49505800E00B4899000B4A885001331F2BF2D9FFF73EFF084B1B68002B02D10022064B1A6080229205054B5A
:400200001A6010BD0000000071010000000000208000002008ED00E0002306E04218013A12789B189BB2013989B20029F6D1584280B270470047C04610B58022024B1A60E5
:4002400000F07AFE10BDC04680000020F0B583B00D006B469E1DDA8001230B7048701400AA70130ACB70171DB9B22800FFF7D4FFE855631D000AE854A31D1722EA54073416
:40028000A1B296233200280000F07AFC03B0F0BD70B505000E001400002802D0002000F011FE002005E0013CAB19E3181B781818C0B2002CF7D170BD10B50C2863D88000A2
:4002C000404B1B589F464B06591ACB013E4A9446634401225CE04B06591ACB013B4A94466344042254E04B06591ACB01384A9446634402224CE04B06591ACB01354A944667
:400300006344042244E04B06591ACB01324A9446634401223CE04B06591ACB012F4A94466344012234E04B06591ACB012C4A9446634402222CE04B06591ACB01294A9446AB
:400340006344022224E04B06591ACB01264A9446634402221CE04B06591ACB01234A94466344042214E04B06591ACB01204A9446634401220CE04B06591ACB011D4A94461A
:400380006344042204E0002000F09CFD02220023012A02D11878C0B200E00020022A03D11978587800020843042A09D11A785878000210439A7812041043DB781B061843E5
:4003C00010BDC046D0130000C07F0000C17F0000C57F0000C97F0000D07F0000D17F0000D67F0000D27F0000D47F0000D87F0000DC7F0000E07F000010B50D4B1B68DB0612
:4004000002D400220B4B1A600A4B1B68802B0ED10022084B1A6000210220FFF74DFF002805D000210220FFF747FFFFF703FF10BD540003408000002070B505000100032058
:40044000FFF73AFF441CE40129000420FFF734FF241829000320FFF72FFF421CD2010023002608E01078411EC9B2FD2900D801261B18DBB20132A242F4D35B42DCB229000B
:400480000120FFF719FF844203D1002E03D1062002E0062000E0002070BDC046F0B55F4656464D464446F0B4CD4CA544050000F021FB62B600239A4600270A249946002DDA
:4004C00001D1FF2300E02B00C64A02A98C4662449621490052A800F015FB002D01D0013CE4B2002C01D00028E9D1002800D0D7E1BC4B02AA944663441B88062B24D952AA6F
:400500001278012A22D152A9CA78120289780A439146110007329A421AD896235B009A4218D84A1D52AB9E5C3202081D1E5C164306315B5C172B0FD181B252A8FFF76CFE7E
:4005400086420BD100260AE0042608E0042606E0032604E0032602E0042600E00826002E00D04BE152AB1A7993465A781300313BD9B20A2900D901E18B009B49CB589F4681
:40058000012F00D03CE14B46002B00D03BE10020FFF752FF4342434152AA1371012278E1012F00D032E14B46012B00D031E15B46002B00D030E18D4B1B681B68DA0BD2B264
:4005C000934503D1DB09FF22134005E0934501D9002301E080235B0052AA13711B0A5371FF2393710023D371042252E1342A0DD1012F00D013E14B46032B00D012E14C32DF
:40060000002107A800F0D5FE80239A46012F00D00BE14B46022B00D80AE107A85044DA1E4821FF3102AB9C46614400F0B9FE4B4653449BB2832B00D0FDE052AA93791B0293
:40064000527913439A46FF2B00D90A26002E00D0F8E05B461802504480B2644B1B681A68D3099BB2520601D001339BB2834200D9ECE007A900F022FB002800D1EDE0002358
:400680009A46803399460A26002202E1012F00D104E104260022FCE0012F00D0E3E04B46534496225200934200D9DFE007A850444A4653A900F074FE53464B449BB29A469D
:4006C0000022E6E04B46002B00D0D2E004AA484B03CB03C253AA04AB03CB03C200239A4601270822D5E0012F00D0C5E04B46032B00D0C4E052AA93791B02527913439846BB
:400700005B4619024144C9014346FF2B00D90A26002E00D0B6E080220020FFF7B9FD030001905A461202424492B25946002911D1FF2A0FD10520FFF7BFFDC0B2019B1B1A11
:40074000DBB2984600210620FFF7B6FDC3B24246D31ADBB25B4252AA1371012299E00020FFF76AFE002802D18022224B1A6000F0C5F900F0E1FB042600228AE01E4B1E68CD
:40078000002E00D180E0012F00D080E002AB1A704A465A8053AB03930C22002104A800F008FE04AB9B4653AA0692190002A8B0475B469A882623FF339A4203D953AB0699E2
:4007C000994207D0069B002B01D1002A05D1049BDEB25EE00E2600225BE00E26002258E084FDFFFF6E020000041400008C00002030140000800000202C010020002248E0EF
:400800000426002245E00426002242E0042600223FE0042600223CE00426002239E00426002236E00426002233E00426002230E0042600222DE000239A468033994603266D
:40084000002226E080239946002222E000239A46803399460A2600221BE000239A4680339946002215E00426002212E0032600220FE0042600220CE00426002209E004260D
:40088000002206E0002204E00526002201E00526002252A93000FFF7D9FC01E000239A46002D00D10BE6012F00D108E69F239B009D443CBC90469946A246AB46F0BDC04680
:4008C00070B50020FFF7B8FD002801D0062400E00024154D2B681A68C03AC0210020FFF7D7FC6B681B78C01AC0B24042C0B2834204D10D4B1B681B68002B02D1002000F0FA
:40090000E1FA0A4B1B68402B01D0002C05D00022064B1A600020FFF7C1FD3220FFF7BEFDFFF78AFC70BDC0468C0000208000002010B5072000F0A8FA10BDC04610B500F002
:40094000B3F810BD10B500F0C1F810BD10B500F035F810BD10B5054A1368802109060B431360FFF7E5FFFFF7E9FF10BD0000084010B5064B1B78002B04D1FFF7E7FF0122A0
:40098000024B1A70FFF7E6FF10BDC0463001002010B5072000F082FAFFF7D4FF054A13685B005B0813600022034B1A60072000F07FFA10BD00000840880F084070B5204A48
:4009C000204B1A600024204B1C60204A204B1A60204B214A13600721204A1160204A14600639204A1160204A1360204B1C6004251F4B1D60072000F051FA0321072000F003
:400A000075FA1C49072000F05FFA1B4B1C601B4B1C601B4B1C601B4B1C601B4B1D601B4B1C601A681A4B1A801A4B1C601A4B1C601A4B1C701A4B1C601A4B1C6070BDC046FC
:400A40000B000002000008404000084001000A0048000840070000800003084004030840100308404400084000020840040208405000084065120000880E0840C80E084053
:400A8000480F0840080F0840C80F0840880F08403801002054010020600100205C010020E80100205801002005490B68F0229343603A13430B60034B1A88034B1A60704779
:400AC0000004024038010020880F0840064A1368F0218B431360054B1A68E423DB001340034A13807047C04600040240880F08403801002010B5FFF73BFF10BD10B5FFF7BC
:400B000047FF10BDF0B583B007000E00019200282DD000292ED09A00D3185C0000F04AFB002811D000F046FB0500AB2000F0FCFA00F040FB8542F5D1B54200D93500019B77
:400B40001D800023019308E0012000F001FA013C002CE3D1002510230193002404E03E1900F00EFB30700134A542F8D804E00123019301E001230193019803B0F0BDC0460C
:400B800070B50C001500002806D0002906D000F05DFB2C80002002E0012000E0012070BD82B0134B0093134B0193134B6A461A601249134A1160C0461B681B0F1B07F02200
:400BC0001206934204D10C4B1B68FF2018400DE0094B1B681B0F1B07A0221206934204D0054B1B68FF20184000E0002002B07047B6E900003C0100200800104016000080B2
:400C000004001040104B114A1A601149114A1160C0461B681B0F1B07F0221206934204D1094B1B68FF2018400DE0074B1B681B0F1B07A0221206934204D0034B1B68FF2092
:400C4000184000E00020704708001040B6E80000150000800400104082B0134B0093134B0193134B6A461A601249134A1160C0461B681B0F1B07F0221206934204D10C4BC0
:400C80001B68FF2018400DE0094B1B681B0F1B07A0221206934204D0054B1B68FF20184000E0002002B07047B6EA00003C01002008001040170000800400104030B5A5B07A
:400CC0000400002323932293FF2872D8002970D0802202A800F064FB384B00937F230193374B6A461A603749374A1160C0461B681B0F1B07F0221206934204D1304B1B68DC
:400D0000FF2213400DE02E4B1B681B0F1B07A0221206934204D02A4B1B68FF22134000E000232393239B002B45D100F022FA0500FFF736FF2290229B002B02D1FFF762FF63
:400D40002390239B002B25D1204A0092009A2404144300941A4A694611601D481A490860C0461268120F1207F02109068A4204D1134B1B68FF2213400BE0114A1268120FD3
:400D80001207A02109068A4203D00D4B1B68FF2213402393229B002B07D1FFF75DFF2290229B002B01D0229B2393280000F0E5F901E004232393239825B030BDB6D70000F8
:400DC000080010400400008004001040B6D800000500008070B5040000F0CBF90500102C05D8104A136803218B43136016E0202C07D80C490B6803229343023A13430B609A
:400E00000CE0302C07D807490B6803229343013A13430B6002E0002000F054F8280000F0ACF970BD300010400C4B1B689B001C22134018330A4A1268920803210A40D340EF
:400E400008490868084A02400A60084A944663441B78DBB2064A13607047C046080F03402800034000000740FFFFFFBFCDF1FF0F0C0F0340034B18688023DB05184000D0D5
:400E800001207047000007401F2318401E3B8340014A13607047C04600E100E01F2318401E3B8340014A13607047C04680E100E01F2318401E3B8340014A13607047C0467E
:400EC00080E200E001BE704770B504000D000F2802D90020FFF7F6FF1034A40080239B059C4664442068256070BDC04670B504000E00032902D90020FFF7E4FF0F2C02D9A5
:400F00000020FFF7DFFF03252540ED00063500F030F9A408A400074B9C46644421680323AB4099430B003100A9401943216000F024F970BD00E400E0034A13681B041B0C3F
:400F400002490B43136070470CED00E00400FA0510B5040006E0084B586800F001F9074B9C46644480231B029C42F4D8024B9868604300F0F5F810BD940000200080FFFF14
:400F800070B582B000F0DAF800284DD000F0F1F80500264B1A6892001C231A401832244B1B689B0803210B40DA400021214B1960214C2168214B0B4021494A438021C9015A
:400FC0008C466244D20B013A5205520D1343A0225203134323601B4B1B6801933020FFF7F9FE194A13688021C9050B4313602668164B1E40002407E00120FFF7A9FF103442
:40100000A30533430C4A1360EE2CF5D90120FFF79FFFFF239B051E43074B1E60019A094B1A60280000F0A9F802B070BD080F0340280003400C0F03400800074000F800C00E
:4010400040420F003000104000000740FFFF3FC0F0B583B0040018280BD01C2809D0202807D0242805D0282803D02C2801D0302849D100F07EF80190FFF7FCFE002803D02B
:40108000FFF7D2FE012600E00026214A136807218B4313601F4BE3181B78DBB21E4A13601E4A13688B4313601D4803687F22934319001C4BE3181B7813400B4303603220BF
:4010C00000F04EF8182C16D9114F3B680725AB431A0023001C3B9B082B4013433B60322000F03EF83A68AA432300183B9B082C001C4014433C60012E01D1FFF741FF01986C
:4011000000F03BF802E00020FFF7DCFE03B0F0BD080F0340CDF1FF0F0C0F0340100F0340180F0340B4F1FF0F10B5034B1B7B584300F016F810BDC04694000020034B1B68BD
:40114000002B01DA012000E00020704700000740014A024B1A6070476588EDAC380003400230800803D001300238FCD1C046C0467047EFF3108072B6704780F310887047E5
:40118000094B1A68094B1B689A420BD0074B1B680133412B00D10023054AD05CC0B2034A136000E000207047540100206001002064010020074B1B68074A1268934203D338
:4011C000054A1068181A04E0034A10681B1A4133180070475401002060010020144B1A68144B1B689A4208D1134B1B681F221340082B02D0114B186019E00D4B1A68013213
:40120000402A00D100220B4B1B689A42FBD002230B490B60C0B20B49885405490A600A4A1268134203D1084A11680B4313607047E8010020580100200802084040020840FB
:40124000800F0840A8010020880F084070B506000D00002403E0305DFFF7C0FF0134AC42F9D370BD10B5274B1B68002B00D09847254B1B685B071DD5244B1B680133412BE5
:4012800000D10023224A1268934205D1214B1B682022214B1A7006E01E4A1268D2B21F49CA541A4A13601E4B1B68DB06E4D104221C4B1A601C4B1B689B0721D51B4B1A68E6
:4012C0001B4B1B689A4213D0194B1B680133402B00D10023174AD25CD2B217490A60144A1360164B1B681F221340082BE6D104E0134A136802218B4313600222114B1A60A2
:4013000010BDC04634010020CC0F08405401002060010020400308405C0100206401002008030840C00F08408C0F0840E801002058010020A801002040020840080208406B
:40134000880F0840800F0840014B18687047C046080100200E4B70B500251E000D4CE41AA410A54204D0AB00F35898470135F8E700F064F8084B00251E00084CE41AA410AC
:40138000A54204D0AB00F35898470135F8E770BD48140000481400004814000050140000002310B59A4203D0CC5CC4540133F9E710BD03008218934202D019700133FAE749
:4013C0007047000000150000A80000000000000086030000C6020000D6020000E6020000F602000006030000160300003603000026030000460300005603000066030000E1
:401400007603000080050000A00500007C070000EC0500008C0600007C07000098060000C4060000EC050000E60600005E070000A9110A19003C010143000000F8B5C046C5
:40144000F8BC08BC9E46704729010000C9010000F8B5C046F8BC08BC9E46704701010000701400008800002088000000E000000000000000C4130000C81300000100000056
:401480000000E02EC05D00001800000000366E01000000000000000000000000000000000000000000000000000000000000000038140000000000000000000000000000F8
:4014C000000000000000000000000000000000000000000000000000000000000000000000000000000000000000000000000000A800002000000000000000000000000024
:401500000010002011150000511800005118000010B5034B83F3088800F0C6FB00F0BAF90010002010B5114C12232360182000F045FB802252000E4B1A600E4B0E4A1A60B2
:40154000802149010D4A11600D4A1A6000220D4B1A6040230C4A13600C4A13600C4A136041220C4B1A601123236010BD30001040000301400000014040FF00800403014071
:4015800041FF0080280003401C01014018010140100101400001014010B572B680221201144B1A60144A154B1A60EE221202144B1A609922134B1A60953A134B1A607D321B
:4015C000FF32124B1A60403AFF3A114B1A60114A114B1A60D8221201104B1A600223104A136031210F4A11600F4A1360FFF79AFF10BDC04600010240080000080002024074
:40160000000302400004024000010440080104400002044006001800080204400803044000040440080404401804044010B5064C2378002B07D1054B002B02D0044800E066
:4016400000BF0123237010BD0801002000000000685A0000084B10B5002B03D00749084800E000BF07480368002B00D110BD064B002BFBD09847F9E7000000000C01002031
:40168000685A0000880000200000000010B500F0D7F9024800F0D4F910BDC046705A0000014B03607047C0468D160000F0B593B062B611A8FFF7F4FF00F04CF900F05EFB68
:4016C00000F0CEFB00F03EFC0023584C029303940026574F00230024049305940022554B0498059901F0B2FF04000D00049405950022504B3000390001F0A8FF06000F001D
:4017000000224C4B0298039901F0A0FF029003910022494B2000290001F08EFF002807D00022454B2000290003F05AF9049005910022414B3000390001F07EFF002807D099
:4017400000223D4B3000390003F04AF906000F000022394B029C039D2000290001F06CFF002807D00022344B2000290003F038F902900391314A324B0498059902F0B6FE77
:401780000022304B02F08EFA00F036FC00222E4B02F0ACFE00222C4B01F058FF03F074FC0790264A264B3000390002F09FFE0022244B02F077FA00F01FFC0022224B02F085
:4017C00095FE0022204B01F041FF03F05DFC05001A4A1B4B0298039902F088FE0022194B02F060FA00F008FC0022174B02F07EFE0022154B01F02AFF03F046FC04000798A3
:4018000000F06AFA280000F0D9FA200000F048FB012000F053F900942B00079A0B4909A803F0FEFC09A8119B984757E700006E4000005E400000F03F008076401F85EB515C
:40184000B81E09400080664000407F40745A000010B503F0AFFC03680C2B00D1FEE7FEE710B50300094A1068C318094A9A1A8021C9008A4202DC054A136005E003F09AFCFD
:401880000C2303600120404210BDC0468C0000203801002070B50F4E0F4D13E029686B68AC68002202E001C901C30432A242FAD1E868002202E0002102C304328242FAD15C
:4018C0001035013E002EE9D103F07AFCFFF7EEFEFEE7C04601000000345D000010B500230AE0032B03D89A000B49505800E00B4899000B4A885001331F2BF2D9FFF74CFEC1
:40190000084B1B68002B02D10022064B1A6080229205054B1A6010BD0015000051180000000000208000002008ED00E010B500F075F810BD10B500F01DF810BD10B5044A6A
:401940001368802109060B431360FFF7EFFF10BD0000084010B5064B1B78002B04D1FFF7E9FF0122024B1A70FFF7E8FF10BDC04624010020154A164B1A600023154A1360DD
:401980001549164A1160164A16490A6007201649086016490B6006381549086015490A60154A13600421154A1160154A1360154A1360154A1360154A1360154A1360154A0B
:4019C00013601268144B1A807047C0460B000002000008404000084001000A0048000840070000800003084004030840100308404400084000020840040208405000084094
:401A0000880E0840C80E0840480F0840080F0840C80F0840880F08402601002005490B68F0229343603A13430B60034B1A88034B1A6070470004024026010020880F084088
:401A400070B50500002402E000F09EFA0134285D0028F9D170BDC0460C4B1B689B001C22134018330A4A1268920803210A40D34008490868084A02400A60084A9446634403
:401A80001B78DBB2064A13607047C046080F03402800034000000740FFFFFFBFCDF1FF0F0C0F0340034B18688023DB05184000D0012070470000074001BE704710B50400BD
:401AC00006E0084B586800F04FFA074B9C46644480231B029C42F4D8024B9868604300F043FA10BD900000200080FFFF70B582B000F0D0F800284DD000F03FFA0500264B63
:401B00001A6892001C231A401832244B1B689B0803210B40DA400021214B1960214C2168214B0B4021494A438021C9018C466244D20B013A5205520D1343A0225203134372
:401B400023601B4B1B680193302000F02BFA194A13688021C9050B4313602668164B1E40002407E00120FFF7A9FF1034A30533430C4A1360EE2CF5D90120FFF79FFFFF23F1
:401B80009B051E43074B1E60019A094B1A60280000F0F7F902B070BD080F0340280003400C0F03400800074000F800C040420F003000104000000740FFFF3FC0F0B583B0AD
:401BC000040018280BD01C2809D0202807D0242805D0282803D02C2801D0302849D100F0CCF90190FFF75EFF002803D0FFF734FF012600E00026214A136807218B43136076
:401C00001F4BE3181B78DBB21E4A13601E4A13688B4313601D4803687F22934319001C4BE3181B7813400B430360322000F09CF9182C16D9114F3B680725AB431A00230063
:401C40001C3B9B082B4013433B60322000F08CF93A68AA432300183B9B082C001C4014433C60012E01D1FFF741FF019800F089F902E00020FFF720FF03B0F0BD080F034011
:401C8000CDF1FF0F0C0F0340100F0340180F0340B4F1FF0F034B1B68002B01DA012000E00020704700000740014A024B1A6070476588EDAC380003400004000C014B1860E7
:401CC0007047C046080206400004000C014B18607047C046140206400004000C014B18607047C0460C02064070B504000D0000F044F9AC40024B1C6000F043F970BDC0468E
:401D00000800064010B500F038F9064A116810230B43136000F035F918211020FFF7E4FF10BDC04600000640014B18607047C0463802064010B50E4C8023DB042360236889
:401D400023600020FFF7B8FF236823600C22094B1A600120FFF7E8FF3122074B1A60FA208000FFF7B1FFFA204000FFF7B5FF10BD00020640240206402802064010B5064BA1
:401D80001B78002B04D1FFF7D5FF0122024B1A70FFF7B8FF10BDC046280100200004000C014B18607047C046480106400004000C014B18607047C046540106400004000CA7
:401DC000014B18607047C0464C01064070B504000D0000F0D2F8AC40024B1C6000F0D1F870BDC0460800064010B500F0C6F8064A116802230B43136000F0C3F818210220C8
:401E0000FFF7E4FF10BDC04600000640014B18607047C0467801064010B50E4C8023DB042360236823600020FFF7B8FF236823600C22094B1A600120FFF7E8FF3122074BC4
:401E40001A60FA208000FFF7B1FFFA204000FFF7B5FF10BD40010640640106406801064010B5064B1B78002B04D1FFF7D5FF0122024B1A70FFF7B8FF10BDC04629010020BF
:401E80000004000C014B18607047C046C80106400004000C014B18607047C046D40106400004000C014B18607047C046CC01064070B504000D0000F060F8AC40024B1C60FF
:401EC00000F05FF870BDC0460800064010B500F054F8064A116808230B43136000F051F818210820FFF7E4FF10BDC04600000640014B18607047C046F801064010B50E4CF9
:401F00008023DB042360236823600020FFF7B8FF236823600C22094B1A600120FFF7E8FF3122074B1A60FA208000FFF7B1FFFA204000FFF7B5FF10BDC0010640E401064057
:401F4000E801064010B5064B1B78002B04D1FFF7D5FF0122024B1A70FFF7B8FF10BDC0462A010020000000000230800803D001300238FCD1C046C0467047EFF3108072B6D8
:401F8000704780F310887047044B1B681F221340082BF9D0024B18607047C046080208404002084070B50400FFF7E7FF0500102C05D8104A136803218B43136016E0202C49
:401FC00007D80C490B6803229343023A13430B600CE0302C07D807490B6803229343013A13430B6002E00020FFF766FD2800FFF7C8FF70BD3000104030B5214A4B0087B0A2
:402000005B0893421EDD1F4A934205DD02000B0002F0E6FC07B030BD02AA00F035F803231840049A059B01281ED0022811D000281FD00298039900F02DFA80231B069C4617
:402040006144E7E7002300220093002300F08EFFE0E7012402980399009400F087FF80231B069C466144D5E70298039900F012FAD0E7012402980399009400F077FFC9E754
:40208000FB21E93FFFFFEF7FF0B54E4657464546E0B4DC4B4E0090B01700894676089E4200DC81E0D84B9E4220DCD84A002900DC89E1D74B02F094FCD54B04000D009E4200
:4020C00000D18AE0D34AD44B02F08AFC02000B0020003A607B60290002F082FCCD4ACE4B02F07EFCB860F960012066E0CB4B9E4200DC8DE0CA4B9E4265DCCA4932158A46A3
:40210000924453461B05F51A2900040002F0BCFF02F0F0FF02000B00200029000A920B9302F05EFC0022C04B02F0E0F90290039102F0AAFF02F0DEFF04000D0002000B00C4
:40214000029803990C940D9502F04AFC0022B64B02F0CCF9002200230E900F9101F048FA002800D14CE1002300222000290001F03FFA0222431E9841131AAC4A39000192F4
:4021800002220AA80092524600F09EFA4B46002B13DA8022120694467B68404263447B60FB686344FB6008E002000B003A607B60002200230020BA60FB6010B01CBC90465C
:4021C0009946A246F0BD02000B0002F009FCB860F960386079600020EFE7D3228E4B520502F0FEFB924A934B04000D0002F0F8FB02000B0020003A607B60290002F0F0FB27
:402200008B4A8C4B02F0ECFBB860F9600120D4E700F05CFF884A894B04000D0002F066F90022874B01F012FA02F02EFF804602F061FF764A764B0690079102F057F902005E
:402240000B002000290002F0CBFB734B02900391069807996F4A02F049F9434604000D00049405951F2B30DC013B764A9B009B589E422AD002000B000298039902F0B0FBDD
:4022800002000B0005000C003A607B60029803992A00230002F0A4FB049A059B02F0A0FB06000B003200BA60FB604B464046002B00DB82E780231B069C46644461443D60DE
:4022C0007C60BE60F960404277E7049A059B0298039902F085FB0B0002003A607B604B0036155B0D05000C00F31A102BCEDD06980799D322484B520502F0F8F804000D0031
:4023000002000B000298039902F06AFB02000B00029803990892099302F062FB22002B0002F05EFB04000D0006980799404A414B02F0DCF822002B0002F052FB02000B00DF
:40234000049005910898099902F04AFB02000B003A607B604B005B0DF61A0500089A099B0C0002920393312E90DD06980799B822304B920502F0BAF804000D0002000B003C
:402380000298039902F02CFB0A00010013000291039202000898099902F022FB22002B0002F01EFB04000D0006980799264A274B02F09CF822002B0002F012FB02000B00CD
:4023C0000492059358E7124B01F040F9104B04000D009E423CD00F4A0F4B01F037F902000B0020003A607B60290002F0F9FA094A094B01F02BF9B860F96001204042DCE67B
:402400000323BAE6FB21E93F7BD9024000004054FB21F93F3163621A61B4D03DFB213941FFFFEF7FEAFBFFFF00007041005B00007370032E8A19A33B83C8C96D305FE43F29
:402440000000E03F805A0000C14920259A837B39D3220D4B520501F0F9F80C4A0C4B04000D0001F0F3F802000B0020003A607B60290002F0B5FA054A054B01F0E7F8B86030
:40248000F9600120404298E661B4D03D7370032E8A19A33BF0B54F464646C0B487B000920193754B4F00814688467F089F4263DC02F0EAFD002800D1DAE04A4643464846D6
:4024C000414602F013F804000D006C4A6C4B02F00DF86C4A6C4B01F0B9F822002B0002F005F86A4A6A4B02F07BFA22002B0001F0FDFF684A684B01F0A9F822002B0001F059
:40250000F5FF664A664B02F06BFA22002B0001F0EDFF644A644B01F099F822002B0001F0E5FF029003910022604B2000290001F0DDFF029A039B06000F002000290001F032
:40254000D5FF009A019B04000D004846414601F0CDFF02000B002000290002F041FA02000B003000390002F03BFA02000B0000204F4902F035FA70E002000B0001F0B6FF65
:4025800004000D003D4A3E4B01F0B0FF3D4A3E4B01F05CF822002B0001F0A8FF3B4A3C4B02F01EFA22002B0001F0A0FF394A3A4B01F04CF822002B0001F098FF374A384B17
:4025C00002F00EFA22002B0001F090FF354A364B01F03CF82B00220001F088FF354B029003919F429FDD344B00229F423ADC334900207B182E4916001F0002F0F1F9049044
:4026000005910022294B2000290001F06FFF32003B0002F0E5F9029A039B06000F002000290001F063FF009A019B04000D004846414601F05BFF02000B002000290002F0AF
:40264000CFF902000B003000390002F0C9F902000B000498059902F0C3F907B00CBC90469946F0BD164B002604920593154FC8E700200F49F1E7C046FFFF3F3ED43888BEA7
:40268000E9FAA8BDC4B1B4BD9EEE213EAD529C804F7E923E9015CB19A001FA3E7751C1166CC1563F4C5555555555A53F0000E03F0000F03F3233D33F0000E93F0000E0FFE1
:4026C0000000E73F0000D23FF0B556464D4644465F46F0B4904CA544099119001400A89A0B938E4B9200D2580B000290013BE01E18211D0016000892009300F07DFEC3431A
:402700000200DB171A401300110001330E929A009B1ADB001B1906934C1B761918D4A99BA5009C46361926AF6544013607E0286802F0E0FC013403C70435B44208D0002C34
:40274000F5DA00200021013403C70435B442F6D1089B002B01DA00F0FDFB76AB0A939A46009B0B9A9946089B94469B46D300E3449C46029A059362449046009B002B00DA7C
:40278000BBE14B46DC0026AB9C4600260027029D64442268636803CD01F0A8FE02000B003000390000F052FF083C06000F004545EFD15346C0C39A4601239C46E144D9456E
:4027C000DBD1089A564913008C4663449B0012A8844619000298614484460D910599043361448B4612A98C4663440F930592059A0A98D30019000C938C46030063441E68FB
:402800005F68002A34DD12AB99461300454A804694466344DB00984474AB9A460022424B3000390001F062FE02F02EFC02F062FC00223E4B04000D0001F058FE02000B0076
:402840003000390002F0CCF802F01EFC4B4601C39946434620001A685B68290000F0F6FE08235B429C46E04406000F00D045D5D1069B30001A003900994600F0C3FCFF238C
:4028800000229B0504000D0001F030FE00F022FC0022274B01F02AFE02000B002000290002F09EF804000D0002F0EEFB804602F021FC02000B002000290002F091F84C4669
:4028C00006000F00002C00DCF8E0059B18205A1E920012AB9B58001B19000141884481405B1A12A98B501722121B13410793079B002B4BDD01239C46059BE044002B00DC29
:40290000F2E280251096119712AB0021002409486D04059F19E0C04684FDFFFF085C0000FEFFFF3FFFFFFF1F0000703E0000704100002040FFFFFF00002A02D0AA1A1A6039
:402940000134013104338F4209DD1A68002CF3D0821A01311A60012404338F42F5DC109E119F069B002B0EDD012B00D1B1E0022B09D1059B12A95A1E920012AB9B581093E9
:402980009B029B0A8B50079B022B7ED0002300223000390000F02CFE059B002800D16BE208995A1E914210DCBF490F988C4612A963448C4600219B0063441C68043B214318
:4029C0008342FAD1002900D0B5E0089B12AA013B9B00D358002B00D084E201220D9B043B596801320029FAD005990B008C46013362440792934242DC0E9A9446A99A6344B9
:402A000092460B9A9B00944626AA90469A44059B0A9A6344DB0098440C9B94469946079BE144DB00634405935346186802F062FB434618605960009B002B23DB44460026A7
:402A40000027029D2268636803CD01F04FFD02000B003000390000F0F9FD083C06000F005D45EFD14B469E60DF6004239C460433E2449C46059BE144E0449945D4D1079BF3
:402A80000593B4E600260027ECE732003B000020864901F0A5FF06000F00002C00D175E7069A0020814900F0ADFB02000B003000390001F095FF06000F0067E7069B002B19
:402AC00012D1059B12AA013B9B00D558EB1507930DE7059B12A95A1E920012AB9B5810935B025B0A8B504EE70022714B00F0A4FD00280ED10023079348E753460026002733
:402B0000C0C39A4601239C46E144D94500D034E657E601239C4601330793059BE044002B00DDEEE632003B000020604901F058FF06000F002AE743460B93069B12A8183BD5
:402B4000190006939300C3580092002B0FD156481300844612A8634484469B006344043B5868013A18390028F9D000920691069A00204E4900F046FB009B04000D00002B6C
:402B800000DAB3E112AA94469F00DB0067449C460A9A0593624493461600386802F0AAFA22002B0001F0A2FC424B3060716000222000290001F09AFC083E74AB04000D00D1
:402BC000043FB342E9D100239A464EAB0293089B99464B4600260027002B21DB8020364B5D469846C005354900260027002408E008239C460835E044A24511DB4346186843
:402C000059682A686B6801F071FC02000B003000390000F01BFD013406000F00A145E7DA029A53469446DB0063441E605F6001239C46093BE2449C4674ABE3449B45C8D1C2
:402C4000029B9946A89B022B00DD82E0002B37DC1DD1059B00254B441E000024326873682800210000F0F2FC009B05000C00083E5A1E0092F2D2079B002B03D080231B06A7
:402C80009C4664442A00230009990A604B6007200B9B18409F239B009D443CBC90469946A246AB46F0BDC046FFFFFF3F0000F03F0000E03F0000703E185C0000FB21F93FEA
:402CC000059B00204B441E0000214CAF32687368083E00F0BBFCBE42F8D1079B002B24D08023099A1B06CB18106053600B0002004E984F9901F074FE009B002B0BDD0124E1
:402D000050AD0CCD00F0A2FC009B0134A342F8DA079B002B03D080231B069C4661440B00020009998A60CB60B1E702000B00099C226063600B0002004E984F9901F050FE50
:402D4000009B002BDBDC0B00020009998A60CB609DE7A89B032B9AD1009B002B00DCE3E07F4A059B94464B441E685F68009B63449A46DB004B4498464CAB9B4643465C689F
:402D80001B681800210032003B000290039100F05DFC04000D0002000B000298039901F01FFE3B00320000F051FC43469860D9601C605D6008235B429C46E04426002F0059
:402DC000C345DBD1009B012B00DCADE0059BC8464B441E685F685346DB009B46D844434630005C681B683900009301941A00230000F02CFC04000D0002000B0000980199EE
:402E000001F0EEFD3B00320000F020FC43469860D9601C605D6008235B429C46E04426002F00C145DBD15D460027002408354D4450AE2A686B683800210000F007FC083DC5
:402E400007000C00AE42F4D1079B002B71D08021099A4E9B090613604B468C465B686444634453604B469B68176193604B46DB6854616344D3600AE7994643460B93069BAB
:402E800030005A42390000F0BDF90022354B04000D0000F0D1FB002832D0334B00222000290001F023FB02F0EFF84A460600970002F020F900222B4B01F018FB02000B001C
:402EC0002000290001F08CFD02F0DEF812AAD0514A46069B0132183300920693930012AAD65044E601227FE500243AE5A89B022B14DC002B0FDC00D0C9E600250024BAE649
:402F00004B46200029009E0002F0BEF812AB98514B4600932BE600200021DEE64EAB9946A89B032B00D0B2E6079B00270024002B8DD14E9A4F9B09990A604B604B469A684E
:402F4000DB68009201938A60CB603A0023000A614B619CE676AB0A930B9BDB00059330E4FFFFFF1F000070410000703EF0B54F464646C0B487B000920193464A4B0081463E
:402F800088465B08934205DC02F07EF84146031E484666D04A4643464846414601F0A6FA04000D0002000B004846414601F09EFA394A3A4B06000F002000290001F096FAF4
:402FC000374A384B01F00CFD22002B0001F08EFA354A364B00F03AFB22002B0001F086FA334A344B01F0FCFC22002B0001F07EFA314B324A00F02AFB0E9B02900391002B88
:4030000034D00098019900222D4B01F06FFA029A039B049005913000390001F067FA02000B000498059901F0DBFC22002B0001F05DFA009A019B01F0D3FC224A04000D0030
:40304000214B3000390001F051FA02000B002000290000F0FBFA02000B004846414601F0BFFC07B00CBC90469946F0BD02000B002000290001F03AFA124A134B01F0B0FC83
:4030800032003B0001F032FA4A46434600F0DEFAE7E7C046FFFF3F3E7CD5CF5A3AD9E53DEB9C2B8AE6E55A3E7DFEB157E31DC73ED561C119A0012A3F1111813FA6F81011C5
:4030C0000000E03F495555555555C53F49004B0819007047454AF8B5564692464B005B0D9A444D465F4644465246F0B4894605000C000E000700132A22DC002A47DB5246FC
:403100003B4B134198460B0042461340034311D0384A394B00F09AFA0022002300F082FA002805D0002C41DB4E46434600279E43380031003CBC90469946A246AB46F8BD81
:403140005246332A08DD8023DB009A45F2D102000B0000F07BFAEDE7284A9446012263445242DA4093460242E4D0224A224B00F06DFA0022002300F055FA0028D8D0002CCA
:403180001ADB5B464E469F4338003100D2E7194A194B00F05BFA0022002300F043FA0028C6D0002C16DB00270026C1E7802352465B0313419944B7E75346142B12D034231A
:4031C000524601279B1A9F407F19AF429B415B429944D6E76400640825430027002DA7D0074EA5E7133B9C46E144CAE701FCFFFFFFFF0F009C7500883CE4377EEDFBFFFF99
:403200000000F0BF4B0070B55B0D14000A00002B1AD14B005B08034315D00022224B01F065F9224B0A009C4222DB4B005B0D363B1F4DE318AB4220DC002B0DDD1D4C1B05B8
:4032400022401A43110070BD1B4DAB42F0D102000B0000F0FBF9F6E71D00353518DA174B02009C420ADC0B001548164900F032F8134A144B01F03AF9E5E702000B001248D8
:40328000124900F027F8104A104B01F02FF9DAE7084C363322401B051343190000220C4B01F024F9CFE7C04600005043B03CFFFFFE070000FFFF0F80FF07000050C30000FC
:4032C00059F3F8C21F6EA5019C7500883CE4377E0000903C30B54A00DB0FDB0752081A43110030BD002243088B4274D303098B425FD3030A8B4244D3030B8B4228D3030C49
:403300008B420DD3FF22090212BA030C8B4202D31212090265D0030B8B4219D300E0090AC30B8B4201D3CB03C01A5241830B8B4201D38B03C01A5241430B8B4201D34B0308
:40334000C01A5241030B8B4201D30B03C01A5241C30A8B4201D3CB02C01A5241830A8B4201D38B02C01A5241430A8B4201D34B02C01A5241030A8B4201D30B02C01A524116
:40338000CDD2C3098B4201D3CB01C01A524183098B4201D38B01C01A524143098B4201D34B01C01A524103098B4201D30B01C01A5241C3088B4201D3CB00C01A52418308A7
:4033C0008B4201D38B00C01A524143088B4201D34B00C01A5241411A00D20146524110467047FFE701B5002000F0F0F802BDC0460029F7D076E7704703460B437FD4002213
:4034000043088B4274D303098B425FD3030A8B4244D3030B8B4228D3030C8B420DD3FF22090212BA030C8B4202D31212090265D0030B8B4219D300E0090AC30B8B4201D369
:40344000CB03C01A5241830B8B4201D38B03C01A5241430B8B4201D34B03C01A5241030B8B4201D30B03C01A5241C30A8B4201D3CB02C01A5241830A8B4201D38B02C01AD6
:403480005241430A8B4201D34B02C01A5241030A8B4201D30B02C01A5241CDD2C3098B4201D3CB01C01A524183098B4201D38B01C01A524143098B4201D34B01C01A524198
:4034C00003098B4201D30B01C01A5241C3088B4201D3CB00C01A524183088B4201D38B00C01A524143088B4201D34B00C01A5241411A00D201465241104670475DE0CA0F10
:4035000000D04942031000D34042534000229C4603098B422DD3030A8B4212D3FC22890112BA030A8B420CD3890192118B4208D3890192118B4204D389013AD0921100E0AF
:403540008909C3098B4201D3CB01C01A524183098B4201D38B01C01A524143098B4201D34B01C01A524103098B4201D30B01C01A5241C3088B4201D3CB00C01A52418308F2
:403580008B4201D38B00C01A5241D9D243088B4201D34B00C01A5241411A00D20146634652415B10104601D34042002B00D54942704763465B1000D3404201B5002000F0EB
:4035C00005F802BD0029F8D016E770477047C0468446101C62468C46191C634600E0C0461FB500F019FF002801D40021C8421FBD10B500F06DFE4042013010BD10B500F044
:403600000BFF002801DB002010BD012010BDC04610B500F001FF002801DD002010BD012010BDC04610B500F093FE002801DC002010BD012010BDC04610B500F089FE00286F
:4036400001DA002010BD012010BDC046F8B556465F464D464446F0B40F00FD0FAA4609037C002E005F00450F490A7F0D2943C5001803BC46400A570F640DDB0F3843D200E6
:403680009A4500D1AAE06646A61B002E00DCFFE06346002B39D10300134300D0D9E06B0709D00F232B40042B05D02B1DAB42AD416D4249191D000B0200D482E0CA4B0134F0
:4036C0009C4200D1FEE00A005646C84BED081A405007640552020543120B640D002112030B0D1B056405120B1A436308C04CF60714401C43640064083443280021003CBC4B
:4037000090469946A246AB46F8BDB74B9C42C6D080231B041843382E00DDEBE01F2E00DD1EE120239B1B9C4603006746BB40984613004746F3403B436746BA40571EBA41B0
:4037400013430200F240EB1A9D42B6411D008A1A7642911B0B0231D54A02560A002E00D1B4E0300001F008FD0300083B1F2B00DDB5E020222900D21AD1409E400A009D4018
:4037800032439C4200DDB1E01C1B631C1F2B00DDD5E0202114002800C91A8C40D8408D400443DA40681E854111002543002476E74146314300D134E2310045466B0700D01E
:4037C0006FE756464807ED08C9080543864B9C4235D00A036405120B640D7FE76346E31A9B46002B00DC8BE06746002F3CD07E4FBC4200D153E780273F0438435B46382B3C
:4038000000DCF7E00243501E82410020D2B253194218AB4289411D00494289180B02CDD5714B01349C4200D13DE101206F4A6B080A4028401843D507054351082FE72B0070
:403840000B4300D1CBE180231B030B431A03120B44E7013E002E6DD1AE1AB5429B41091A5B42C91A350075E70700174300D116E701235B429C46E3445B46002B00D0E0E03A
:40388000AA18AA429B4109185B4259181500C5E7002E75D1661C7605760D012E00DCF3E0AE1AB0464545BF410E1A7F42F61B370200D48FE0551BAA42B641411A76428E1BEF
:4038C0009A464BE756460022002507E7280001F053FC20300300083B1F2B00DC49E72A002838824000259C4200DC4DE73F49E41A1140D4E60243501E8241D3B2002222E77B
:40390000002B00D0F3E0631C9C465B055B0D012B00DC9FE0344B9C4500D1C3E0AA180918AA42804140424118CD075208154349086446B4E62C4B9C4200D0ECE6AFE6110012
:403940001F3CE1400C00202B00D17FE04021CB1A9A4015436A1E95410021254300242DE733000700203BDF403B00202E70D04027BE1BB0400243501E824113430022E2E64A
:40398000002C4FD0184CA44500D1ABE08024240476422143382E00DDDFE01F2E00DD43E12027BC1BA1460C004F46BC40A0462C004746F4403C434F46BD406F1EBD41F14099
:4039C0002C43151BAA429241411A5242891A64469A46BFE641464546314300D0BEE6002600240025F2E6C046FF070000FFFF7FFFFFFF0F801F2B59DC2027FF1ABC4607006A
:403A000063469F405B46B9461700DF40B8464F4643461F4363469A40531E9A415B463A43D840F4E60C002C435CD0F643002E55D1551BAA42A441411A6442091B9A466446A7
:403A400088E6964FBC4200D0D8E628E6002280E700208FE70B002B43002C00D0C2E0002B00D101E10300134300D118E6AB18AB42B6410918764271180A0200D409E1884A78
:403A80001D00114064460AE6002C5BD10E002E4300D08AE00100114300D1C2E0010015009A46FCE56446002100258FE620235B429C46DC4463460700DF405B46BC46202B4A
:403AC00000D1ACE040235F46DB1B98400243501E8241634613431A00002098E66F4CA44500D057E70100150064469A46D7E5002C39D10C002C436ED0DB43002B1AD0674C83
:403B0000A44568D0382B00DDA4E01F2B00DDAEE020240F00E41AA740B9462F00DF40B846A3464F46444627435C46A5406C1EA541D9403D43AD1895429B4109185B425918BF
:403B400064466BE60C002C4315D1010011437BD0010015009A46514CA1E50D43691E8D410021ECB22DE74D4CA44534D0802424045B422143C6E7040014434ED0ED084C07F7
:403B80002C438025C9082D03294208D0C6082E4205D1D208410711430C009A463100620FC900E50011433D4C79E50600164300D175E5AE1AB0464545BF410E1A7F42F61BE0
:403BC000370200D4F4E5551BAA42B641411A7642891B9A4663E50100150064465FE5002200257BE5002B3BD00300134315D0ED084B072B438025C9082D03294207D0C40825
:403C00002C4204D141070B002100D2081343C9005A0F1143DD00214C41E5204C3FE5002054E700260025D1E534000F00203CE7403C00202E2BD04027BE1BB1400D43691E68
:403C40008D4100212C43BCE6802100260903134C0025BBE50D43691E8D410021EDB269E7010015000D4C1AE50100150017E51C000F00203CE7403C00202B0CD04027FB1A8B
:403C800099400D43691E8D410021254352E70021D4E71D0092E50021F3E7C046FF070000FFFF7FFFF0B556464D4644465F46F0B41D000E034C00CB0F87B0070092468146F9
:403CC000360B640D98466AD06D4B9C4235D08022430F12041343F6001E43C3009946694B00279C460023644402932B0368001B0BED0F51469B46400D009500D178E0604B03
:403D000098426CD05B46DA004B0F802109040B4313439B465346D9005A4B9C46002360444246201A6A40924601901F430F2F00D9B0E05548BF00C0598746374300D088E0D3
:403D4000002399460233082700260293CDE74346B34649460093029B009A9246022B00D0BFE1002153460122002689461A40444B002136030C0D2405360B2643434C1B056E
:403D800026401E437600D207760816434846310007B03CBC90469946A246AB46F0BD330003434FD0002E00D1BCE1300001F0E4F903000B3B1C2B00DDADE11D220100D31A13
:403DC00008393A008F408E40DA40B9461643304B00279C46002360444442029385E753465A4613432CD1002300219B46023397E70B4320D05B46002B00D19EE1584601F01A
:403E0000BBF903000B3B1C2B00DD8FE102005946083A91408B461D21CB1A5146D9400B0059460B4351469B469140194B9C4660444042002374E7002300219B4601336FE7BF
:403E400003236DE70023994601330427002602934BE703230C27029347E70122D51A382D00DCB0E153461A4000210023002689467EE700238026994600223603004B77E73D
:403E8000FF07000001FCFFFF585C0000FFFF0F80F30300005E4500D972E100D16DE1019B4D46013B01930023340002935B461E020B0E1E430B020393330C994633041B0C97
:403EC000494620000093FFF70DFA009B370043430600494620009846FFF78AFA2C0C09040C43A04509D9E419731EA74200D95CE1A04500D859E1023EE4194346E41A4946EC
:403F00002000FFF7EFF90300009A80465343494620009B46FFF76CFA2A040904120C0A4393450DD94346D219013B974200D93AE1934500D837E102235B429C46D219E04442
:403F40005B46D21A4346360433439B460399180C0B0C1D00059309045B46090C0C001B041B0C4443049159436B4368431B190D0CEB189C4203D980246402A44660441C0C1E
:403F800009041B04090C20185D18824200D2DEE000D1D7E0161A029B9C465D1BAC459B415B42F61AB74200D106E149463000FFF799F9009B04004343494630009846FFF7E6
:403FC00017FA2E0C09040E43B04509D9F619631EB74200D9F3E0B04500D8F0E0023CF6194346F31A494618000293FFF77BF9009B06004343494602989846FFF7F9F92D049F
:4040000009042D0C0D43A84509D9ED19731EAF4200D9D6E0A84500D8D3E0023EED192404210043463143049E059A3000ED1A0B040C0C1B0C58436643534354439A19030C07
:404040009B189E4203D980225202944664441A0C00041B04000C14191B18A54250D34DD001231943964A019B94466344002B00DCF3E64A0709D00F220A40042A05D00A1D51
:404080008A42894149428B4411005A46D20108D55A468C4B1A4093468022D2009446019B6344894A934200DD5BE65A46C908500708435602514601225B058146360B5B0DB9
:4040C0000A4055E680231B031E4211D05A461A420ED15E461E433603360B2A0089467B4B46E6032B00D1E1E0012BBBD11A40BBE61E433603360B4246744B39E6002BB1D094
:404100007D194A1EAF4252D91100A542A8D1039A9A42A5D1A6E703003E00283B9E400023994654E601F028F8203041E603005246283B9A400021934677E6504601F01CF868
:4041400020305EE6029B0026AB4200D323E7039E0299B44661448846B045B6415B467642F619B218013B0291974213D290424FD800D18EE0161A9B460DE7894500D28EE679
:4041800074084B46F60735005B081D434B46DB0702938BE69742EDD10399029CA142E5D93E1A9B46F7E69846CAE61E00A5E6AC423ED874D0110053E70121494252E71C0030
:4041C0000EE71E002BE71F2D3CDC20230A0058465B1B9840EA4099400243481E81415E461143EE404B0709D00F230B40042B05D00B00191D99429B415B42F61833023CD5D2
:404200005346012200211A40002601238946AFE502235B429C46039CE344A446029B63449846A045B6417642F6190293B218B1E603988A1E41008142B6417642F619AD19C0
:40424000039161E71F225242D31A5A46DA401300202D29D040225846551BA8400143481E814107200B4318400026002809D00F2200261A401900042ABBD10B007007760257
:40428000360BDB0803439946012253461A4000236EE502998D42BBD89B4600267BE603989842C5D3110032E70020D7E780265B4636031E433603360B009A8946034B57E561
:4042C000FF030000FFFFFFFEFE070000FF070000F0B55F4656464D464446F0B41F035C00DB0F9A46194B0E034D00C90F8046360B6D0D8B4691463F0B640D9D4219D0134B23
:404300009C421BD00123A54206D018003CBC90469946A246AB46F0BDBE42F6D1C845F4D1D34510D0002DF0D1304303005A1E9341EBE7310001230143E7D1E0E73A430123BC
:40434000002AE2D1DEE70023DFE7C046FF070000F0B55F46444656464D46F0B41F033C0B2C4F0E034D00A3465C008446360B6D0DC90F9046640DDB0FBD422BD0254FBC427E
:404380002ED0002D0ED130430700814678427841002C17D15F463A4314D14B460020002B0AD006E0002C02D15846024301D099421AD00123484218433CBC90469946A24672
:4043C000AB46F0BD0028F2D058425841012240421043F1E737000743D0D002204042EBE75F461743CDD0F8E7A542E2DC05DB5E45DFD808D000205E45DED2484248410123BF
:4044000040421843D8E7C445D3D80020C445F4D3D2E7C046FF070000F0B55F464D4644465646F0B41C03240BA4462F4C0F034D005E00C90F80463F0B6D0D8B469146760DD3
:40444000DB0FA54220D0284CA64222D0002D12D1384344424441002E20D0002C0DD05C42634101245B421C4320003CBC90469946A246AB46F0BD002E17D05B4519D05B467B
:404480005C4201231C43EFE7390002240143EBD1D9E7614602241143E6D1D7E761460A43DBD100240028DFD0E9E761460A43E4D1E5E7B54203DD01225C421443D4E7B542CF
:4044C000CDDB6745DBD809D000246745CCD259464C426141012449420C43C5E7C845CED80024C845F3D3BFE7FF070000F0B55F4656464D464446F0B40D0399464E002B0B84
:4045000087B00700924680469B46760DCC0F002E69D06D4B9E4235D05B468022DD001204430F13432B439B46C3009846674B00279C460023664401934A4615035000D20F99
:4045400053462D0B400D914600D176E05E4A90426CD080225B0F120413435C4AED0094461D4353460022DB00604449463618701C6140029017430F2F00D9AFE05448BF00F3
:40458000C759BF465B461F4300D088E000239B469846023308270193CEE74946022A6AD0032A00D109E2012A00D0BBE111400022002300259046CCB200212D030A0D120509
:4045C0002D0B1543434A1B0515401D436D00E4076D0825434046290007B03CBC90469946A246AB46F0BD034352D05B46002B00D18AE1584600F0C0FD03000B3B1C2B00DDD3
:404600007BE11D22D31A3A0001005D46DA4008398D4013008F402B439B46B8462E4B00279C46002360444642019385E752462A432CD100250023022297E752462A4321D00A
:40464000002D00D154E1280000F096FD03000B3B1C2B00DD46E11D21CB1A51460200D9405346083A954093400D431B4A944660444042002279E7012400220C40124B002524
:40468000904699E70025002301226EE703226CE700239B4698460133042701934CE703230C27019348E700238025984600242D03054B81E75D464346019A6FE75D4643464D
:4046C0002100019A6AE7C046FF07000001FCFFFF985C0000FFFF0F80F30300004246120C91461A0C9446424617044A461B041B0C5A43604690464A464243100003926246BE
:404700001C003F0C7A437C4342440192220C9246019A5244904506D98246802040028046C24450460390100C049048462404240C1204121905922A0C2D042D0C68432C000E
:40474000824648467C4350438146200C8046574357444744BA4503D9802040028046C144380C3F04B84648442404240C01900498A044404404905846000C814658460404E7
:40478000200C8246070048465F434C464343604660436446834650464443380C8446E4186444A34203D980235B029C46E34448463F04230C3F0C2404E419574668436F43F7
:4047C00084464D46504655434243380C814662444A445B44944503D9802040028446654403983F04834604983F0C8446E344C3458041404282461004844601986744844643
:404800006744A344BC46A345A4419946D44464428742BF41D4458041E144A04699459B417F424042C8440743120CBA18A045A4415F423B0064422343D71843467D19DB0DE1
:404840006D021D435B465A02059B1A43531E9A415B46DB0D1A4343465B021343EA0107D501225C0813402343EA07029E13436D08574AB218002A4BDD580709D00F20184022
:40488000042805D0181D98429B415B42ED180300E80104D54F4A15408022D200B2184E48824200DDE7E60124DB08680718436D02530580462D0B5B0D0C407DE68022594686
:4048C0001203114208D0154206D115432D0398462D0B4C46414B6FE65D4615432D032D0B3E4B69E603005546283B9D400023BCE6504600F041FC2030A8E60300283B9F4075
:404900000023BB46984689E600F036FC203073E60124A61A382E07DD00220C4000230025904649E6029EA3E71F2E20DC20222C001800921BF040944093400443581E834153
:404940001C43F540630709D00F232340042B05D023001C1D9C4292415242AD182B021FD5012400220C4001230025904624E61F202C004042821AD440202E1CD04022961B9A
:40498000B5402B43581E83410720234318400025002809D00F2200251A401C00042AD8D1230068076D022D0B0124DB08034398460C40002300E60025E3E780220124120327
:4049C00015432D0398462D0B0C40044BF4E5C046FF030000FFFFFFFEFE070000FF070000F0B557464E464546E0B40E001100F20F9246C500420F180337037400400A4E0F24
:404A00007F0A3043CF4E17435A00640D520DDB0FC900B24200D1E5E001267340A61AB446534500D1AFE0002E00DC0DE1002A3AD103000B4300D0E4E06B0709D00F232B4016
:404A4000042B05D02B1DAB42AD416D427F191D003B0200D488E0BB4B01349C4200D110E13A00B94B51461A4001235007ED08520264050543120B640D0B400021280012037C
:404A80000D0D120B64052D0515436208AF4CDB072C401443640064081C4321001CBC90469946A246F0BDA74B9C42C5D080231B0418436346382B00DDFDE01F2B00DD30E1D0
:404AC000624620239B1A02009A40664690460A009940F24046464B1E99413243114363460200DA40691A8D429B410D00BA1A5B42D71A3B0235D57A02530A98464346002BF7
:404B000000D1C4E0404600F037FB0300083B1F2B00DDC5E020222900D21A4746D1409F400A009D403A439C4200DDC0E01C1B631C1F2B00DDE4E0202114002800C91AD8409A
:404B40008C408D400443DA40681E854117002543002471E7424663461A4300D14CE2674645466B0700D069E7012351467807ED08FA080B40054373498C4238D012036405C9
:404B8000120B640D79E7002E00DC9AE0002A47D06C4A944200D14FE78022120410436246382A00DC08E10143481E81410022C9B24919D219A942BF410D007F42BF183A02B3
:404BC00000D442E15F4A0134944200D14EE101205D4A69083A4028400843D507054357089A4629E706000E4300D017E714E72900114300D1F9E1802109030A431203120BBD
:404C00003BE701235B429846C4446346002B72D1691A8D429B413F1A5B42FF1A0D0068E702000A4300D107E7012252429046C4446246002A00D0E6E06918A942B6413F1836
:404C40007642F7190D00BAE7002E00D080E0621C5205520D012A00DCF9E06A1A91464D45B6413A1A7642921B9046120200D499E04D1BA9428941C71B49427A1A90469A46A4
:404C80003CE752460123002513400022F5E6280000F072FA20300300083B1F2B00DC39E72A002838824000259C4200DC3EE7264FE41A1740C0E60143481E81410022C9B277
:404CC00010E7002E00D0F1E0621C94465205520D012A00DCA0E01B4A944500D1C5E06918A94292413F185242D2194908D5070D4357086446A0E6134B9C4200D0D9E69BE638
:404D000011001F3CE1400C00202B00D180E04021CB1A9A4015436A1E95410027254300241FE763460200203BDA406346202B71D0402366469B1B98400143481E814111431D
:404D40000022CFE6FF070000FFFF7FFFFFFF0F80002C48D0CA4CA24200D1A2E07442A1468024240427434C46382C00DDDBE01F2C00DD44E14E462024A41B3E00A640A2466B
:404D8000B0464C462E00E640B4464646644626435446A5406C1EA54134002C434D46EF400D1B28E04A4643464D461A4300D0A5E6002300240025DEE61F2A5ADC66462022F9
:404DC000921B060096409146B04662460E00D640424616434A4691404A1E9141020060463143C240E4E63C002C435AD0F443A146002C52D14D1BA9428941C71B49427F1AC8
:404E000014009A4675E69E4A944200D0C7E613E600227FE700208FE7002C00D0C8E03B002B4300D10FE103000B4300D104E66918A9429B413F185B42DF193B0200D41AE177
:404E4000904B0D001F406446F6E59A4689E63A002A43002C5CD1002A75D102000A4300D1CAE007000D009A46E6E564460022002581E662460600203AD6406246B046202AC0
:404E800000D1B7E040226646921B904001434246481E8141114300228AE6794CA24200D061E707000D0014009A46C5E5002C41D13C002C4378D0F443A146002C20D0704C8B
:404EC000A24271D04C46382C00DDB2E01F2C00DDBCE02026341BA2463C005646B4404E46A0462C00F440A446444666463443A4465446A54064466E1EB54125434C46E740F4
:404F00006D188D4289413F184942CF19140056E6002A2FD102000A4300D184E007000D009A46574C88E53D436F1EBD41ECB200270D1B60E7524CA24236D07442802636042A
:404F4000A1463743BEE702000A4300D174E56A1A90464545B6413A1A7642921B9446120200D4F7E54D1BA9428941C71B49427F1A9A4661E502000A433AD0ED087C072C43F7
:404F80008025FA082D032A4208D0C7082F4205D145072C003A009A46C9080C43670FD200E5001743364C47E507000D00140043E53A002A4343D002000A4319D0ED087C071F
:404FC0002C438025FA082D032A4207D0C6082E4204D147073C003200C9080C43D700620FE50017439A46264C26E50022002544E5234C21E5002049E700230025BBE54C46A6
:405000003E00203CE6404C46B446202C31D040244E46A61BB7403D436C1EA54164462C4300270D1BE7E6802200231203144C0025A1E53D436F1EBD410027EDB260E70700FE
:405040000D000F4CF8E407000D00F5E44E463C00203EF440A0464C46202C0ED040244E46A41BA7403D436F1EBD4144460027254346E70027CFE70D0073E50027F2E7C046C4
:40508000FF070000FFFF7FFF0B0330B5134D1A0B4B005B0DC90F0024AB4211DD104CA34210DC8024640322430E4CE41A1F2C0CDD0D48C31ADA4013005C42002900D11C0030
:4050C000200030BD094BCC18FAE7E040084CA44663449A4013000343EEE7C046FE0300001D0400003304000013040000FFFFFF7FEDFBFFFF70B5002830D0C317C4185C4006
:40510000C50F200000F038F8174B184A1B1AD21A1F2A18DD164AD21A9440002224035B05240B5B0D0021100024030A0D1205240B1443104A1B0514401C436400ED076408DB
:405140002C43210070BD210091400A000B21081AC4405B052403240B5B0DE3E70025002300240022DEE7C0461E0400003304000013040000FFFF0F801C2101231B0498428C
:4051800001D3000C10391B0A984201D3000A08391B09984201D30009043902A2105C40187047C04604030202010101010000000000000000014B18687047C04604010020AE
:4051C0000E4B70B500251E000D4CE41AA410A54204D0AB00F35898470135F8E700F098FD084B00251E00084CE41AA410A54204D0AB00F35898470135F8E770BD1C5D0000D2
:405200001C5D00001C5D0000245D0000002310B59A4203D0CC5CC4540133F9E710BD00000EB410B59DB002A9029008610B48822488604861012040421FABC881084804CB6A
:40524000A400006801938C8100F06EF80023029A13701DB010BC08BC03B01847FFFFFF7F04010020F0B58E6885B007000C00039201939E4243D890238A89DB001A423ED0C7
:4052800003250969236801985B1A029363695D43EB0F5D19029B6D1001331B18AB4200D91D00530510D52900380000F037FB061E14D0029A2169FFF7A9FFA289194B134078
:4052C00080221343A38112E02A00380000F086FB061E0CD12169380000F0D4FA0C23402201203B60A38940421343A38117E0029B2661F61826606561019EED1AA560019B1B
:40530000B34200D21E0032000399206800F0A5FA0020A3689B1BA36023689E19266005B0F0BDC0467FFBFFFFF0B59FB0029005938B890F0016001B0610D50B69002B0DD13D
:40534000402100F0EBFA38603861002804D10C23029A01381360D8E040237B61002306AD6B6120336B761033AB7634002378002B03D1A31B049312D003E0252BF9D00134EB
:40538000F4E7A31B320039000298FFF76BFF431C00D1B4E06A69049B944663446B612378002B00D1ABE00122002352426A6002A95432521801342B60EB60AB601370AB6562
:4053C000534E21780522300000F03CFA002807D00123801B83402A68013413432B60EFE72B68DA0604D55322202102A8121811701A0704D553222B2102A8121811702278F6
:405400002A2A03D0099B00200A210EE0059A111D12680591002A01DB099204E05242EA60022213432B6001340BE02278303A092A04D84B4301349B180120F6E7002800D084
:40544000099323782E2B1ED163782A2B0AD1059B02341A1D1B680592002B01DA01235B42079310E000230A201A0001346B6021783039092904D84243013452180123F6E78E
:40548000002B00D00792234E21780322300000F0D9F9002806D04023801B83402A68013413432B60217806221B48661C297600F0C9F9002812D0194B002B06D10722059BA0
:4054C000073393430833059314E005AB00933A00134B2900029800E000BF07E005AB00933A000F4B2900029800F08AF80390039B013304D06B69039A9B186B6135E7BB891C
:405500000B985B0601D5012040421FB0F0BDC046DA5C0000E05C0000E45C00000000000065520000F7B5170001938A680B6900900C00934200DA130022003B60433212782C
:40554000002A01D001333B6023689B0602D53B6802333B60062523681D401ED0230043331B785A1E9341226892061CD53020E1184331087021005A1C45310978A21843326D
:40558000023311700FE022000123193201990098089EB047431C0ED00135E3683A689B1A9D42F0DBDAE72200019943320098089DA847431C02D10120404220E00623206883
:4055C000E1683A6803400025042B03D18D1AEB43DB171D40A3682269934201DD9B1AED180027BD420AD0220001231A3201990098089EB047431CDED00137F2E70020FEBDD4
:40560000F0B58BB006920A0043320793059004920A7E0C00109B6E2A00D1ABE011D8632A22D009D8002A00D1B5E0582A00D0C5E045310A70814A4FE0642A1DD0692A1BD0C8
:40564000BCE0732A00D1AAE009D86F2A29D0702A00D0B3E0202209680A43226037E0752A1FD0782A33D0A9E00E001A684236111D196013683370A4E021681A68080606D48D
:40568000490604D5111D19600023D55E02E0111D19601568002D3BDA2D23049A6D42137036E021681A68080606D4490604D51568111D1960ADB202E0111D196015685F4BF9
:4056C000227E039308276F2A1DD00A271BE022007821453211705A4A19680392081D226818600D68100602D4500600D5ADB2D30702D520231A4322601027002D03D12023C6
:4057000022689A4322602300002243331A7002E00A274A4B03936368A360002B09DB0422216891432160002D05D1049E002B11D07BE0002D79D0049E28003900FDF758FE4D
:40574000039B013E5B5C280033703900FDF7CAFD051EF1D1082F09D12368DB0706D563682269934202DC3023013E3370049B9B1B23612BE009681A68080607D4490605D571
:40578000111D19601368A28A1A8004E0111D1960136862691A600023049E236116E01A68111D1960166800216268300000F04AF8002801D0801B6060636803E026004236E3
:4057C0003270012323610023049A1370079B09AA00932100069B0598FFF7A4FE431C02D10120404227E02369320006990598079DA847431CF4D0236800259B070FD4099BD7
:40580000E068984217DA180015E022000123193206990598079EB047431CE1D00135E368099A9B1A9D42F0DBE9E72600039B42361B7833708EE70BB0F0BDC046EB5C0000E0
:40584000FC5C0000C9B28218904204D003788B4202D00130F8E70020704710B5884202D98B18984201D3002305E09B1A013A08D3995C8154FAE7934203D0CC5CC4540133BF
:40588000F9E710BD70B50500002944D00C1F2368002B00DAE418280000F0D8F81E4A13681100002B02D16360146031E0A3420DD92268A018834203D118685B6882182260F6
:4058C00063600C6024E0A24203D813005A68002AF9D11E689819A0420BD12168711858181960824214D110685268411819605A600EE0A04202D90C232B6009E02168601847
:40590000824203D1106852684118216062605C60280000F09CF870BD30010020032370B5CD1C9D43083506000C2D01D20C2501E0002D01DBA94202D90C23336048E03000BD
:4059400000F084F8234B1C681A002100002913D00B685B1B0DD40B2B02D90B60CC181EE08C4202D1636813601AE04B6863600C0016E00C004968E9E7174C2368002B03D18F
:40598000300000F051F820602900300000F04CF8431C18D00323C41C9C43A0420DD12560300000F054F8200007220B30231D9043C31A0ED05A42E2500BE0211A300000F02E
:4059C00033F8431CEBD10C233000336000F03FF8002070BD300100202C010020F8B506000C001500002904D11100FFF797FF040018E0002A03D1FFF745FF2C0012E000F0AC
:405A000027F885420ED929003000FFF787FF071E07D021002A00FFF7F9FB21003000FFF731FF3C002000F8BD002370B5064C050008002360FBF714FF431C03D12368002BF3
:405A400000D02B6070BDC04634010020704770470B1F1A68101F002A04DA891804390B68D01804387047000000000000000000000A000000256420256420256400000000E1
:405A8000FB21F93FFB2109407CD91240FB2119407A6A1F407CD92240BBFD2540FB2129403A462C407A6A2F405C4731407CD932409C6B3440BBFD3540DB8F3740FB2139403D
:405AC0001BB43A403A463C405AD83D407A6A3F404C7E40405C4741406C1042407CD942408CA243409C6B4440AC344540BBFD4540CBC64640DB8F4740EB584840FB214940B6
:405B000083F9A200444E6E00FC291500D1572700DD34F50062DBC0003C999500419043006351FE00BBDEAB00B761C5003A6E2400D24D42004906E00009EA2E001C92D1006E
:405B4000EB1DFE0029B11C00E83EA700F535820044BB2E009CE98400B4267000417E5F00D6913900538339009CF439008B5F840028F9BD00F81F3B00DEFF97000F980500DC
:405B8000112FEF000A5A8B006D1F6D00CF7E360009CB2700464FB7009E663F002DEA5F00BA277500E5EBC7003D7BF100F739070092528A00FB6BEA001FB15F00085D8D009F
:405BC000300356007BFC4600F0AB6B0020BCCF0036F49A00E3A91D005E619100081BE60085996500A0145F008D40680080D8FF0027734D0006063100CA561500C9A8730089
:405C00007BE260006B8CC0000200000003000000040000000600000000000040FB21F93F000000002D44743E000000809846F83C0000006051CC783B00000080831BF03921
:405C40000000004020257A38000000802282E336000000001DF36935943E0000623D0000683E0000583D0000683E0000723E0000683E0000583D0000623D0000623D000087
:405C8000723E0000583D00004E3D00004E3D00004E3D0000C4400000DC4600009C4500009C4500009A450000B4460000B4460000A64600009A450000B4460000A646000092
:405CC000B44600009A450000BC460000BC460000BC460000BC4800004300232D302B2000686C4C006566674546470030313233343536373839414243444546003031323327
:405D000034353637383961626364656600000000F8B5C046F8BC08BC9E46704755160000DD180000F8B5C046F8BC08BC9E4670472D160000485D00008800002080000000CB
:405D400030000000000000000000000038010020010000000000E02EC05D00001800000000366E0100000000000000000000000000000000000000000000000000000000B1
:405D800000000000D85C00000000000000000000000000000000000000000000000000000000000000000000000000000000000000000000000000000000000000000000AF
:405DC00000000000A40000200000000000000000000000000000000000000000000000000000000000000000000000000000000000000000000000000000000000000000DF
:405E00000000000000000000000000000000000000000000000000000000000000000000000000000000000000000000000000000000000000000000000000000000000062
:405E40000000000000000000000000000000000000000000000000000000000000000000000000000000000000000000000000000000000000000000000000000000000022
:405E800000000000000000000000000000000000000000000000000000000000000000000000000000000000000000000000000000000000000000000000000000000000E2
:405EC00000000000000000000000000000000000000000000000000000000000000000000000000000000000000000000000000000000000000000000000000000000000A2
:407FC0005611150000290000000049000000000000000000000000000000000000000000000000000000000000000000000000000000000000000000000000000000000093
:0200000490303A
:020000003902C3
:0200000490402A
:200000000000000000000000000000000000000000000000000000000000000000000000E0
:0200000490501A
:0C0000000002190A11A9000119284AABDE
:0200000490600A
:0100000001FE
:00000001FF