:400000000010002011000000710100007101000010B501F09DF800F0EFF900F0B1F8C04610B50B4C12232360182001F011F880225201084B1A60084A084B1A600022084B7D
:400040001A604032074B1A601123236010BDC046300010400003014040FF008000000140280003400001014010B572B6EE2212020B4B1A6099220B4B1A60C02212040A4B14
:400080001A60D8221201094B1A600223084A13603121084A1160084A1360FFF7C1FF10BD000302400004024008010440080304400004044008040440180404400000000085
:4000C0000000000000000000000000000000000000000000000000000000000000000000000000000000000000000000000000000000000000000000000000000000000000
:4001000010B5064C2378002B07D1054B002B02D0044800E000BF0123237010BD1001002000000000CC130000084B10B5002B03D00749084800E000BF07480368002B00D133
:4001400010BD064B002BFBD09847F9E70000000014010020CC130000880000200000000010B562B600F004FC00F0AAFBFEE7C04610B501F0E9F803680C2B00D1FEE7FEE7CF
:4001800070B50F4E0F4D13E029686B68AC68002202E001C901C30432A242FAD1E868002202E0002102C304328242FAD11035013E002EE9D101F0CEF8FFF7D2FFFEE7C046AB
:4001C000010000006014000010B500230AE0032B03D89A000B49505800E00B4899000B4A885001331F2BF2D9FFF73EFF084B1B68002B02D10022064B1A6080229205054B5A
:400200001A6010BD0000000071010000000000208000002008ED00E0002306E04218013A12789B189BB2013989B20029F6D1584280B270470047C04610B58022024B1A60E5
:4002400000F07AFE10BDC04680000020F0B583B00D006B469E1DDA8001230B7048701400AA70130ACB70171DB9B22800FFF7D4FFE855631D000AE854A31D1722EA54073416
:40028000A1B296233200280000F07AFC03B0F0BD70B505000E001400002802D0002000F011FE002005E0013CAB19E3181B781818C0B2002CF7D170BD10B50C2863D88000A2
:4002C000404B1B589F464B06591ACB013E4A9446634401225CE04B06591ACB013B4A94466344042254E04B06591ACB01384A9446634402224CE04B06591ACB01354A944667
:400300006344042244E04B06591ACB01324A9446634401223CE04B06591ACB012F4A94466344012234E04B06591ACB012C4A9446634402222CE04B06591ACB01294A9446AB
:400340006344022224E04B06591ACB01264A9446634402221CE04B06591ACB01234A94466344042214E04B06591ACB01204A9446634401220CE04B06591ACB011D4A94461A
:400380006344042204E0002000F09CFD02220023012A02D11878C0B200E00020022A03D11978587800020843042A09D11A785878000210439A7812041043DB781B061843E5
:4003C00010BDC046D0130000C07F0000C17F0000C57F0000C97F0000D07F0000D17F0000D67F0000D27F0000D47F0000D87F0000DC7F0000E07F000010B50D4B1B68DB0612
:4004000002D400220B4B1A600A4B1B68802B0ED10022084B1A6000210220FFF74DFF002805D000210220FFF747FFFFF703FF10BD540003408000002070B505000100032058
:40044000FFF73AFF441CE40129000420FFF734FF241829000320FFF72FFF421CD2010023002608E01078411EC9B2FD2900D801261B18DBB20132A242F4D35B42DCB229000B
:400480000120FFF719FF844203D1002E03D1062002E0062000E0002070BDC046F0B55F4656464D464446F0B4CD4CA544050000F021FB62B600239A4600270A249946002DDA
:4004C00001D1FF2300E02B00C64A02A98C4662449621490052A800F015FB002D01D0013CE4B2002C01D00028E9D1002800D0D7E1BC4B02AA944663441B88062B24D952AA6F
:400500001278012A22D152A9CA78120289780A439146110007329A421AD896235B009A4218D84A1D52AB9E5C3202081D1E5C164306315B5C172B0FD181B252A8FFF76CFE7E
:4005400086420BD100260AE0042608E0042606E0032604E0032602E0042600E00826002E00D04BE152AB1A7993465A781300313BD9B20A2900D901E18B009B49CB589F4681
:40058000012F00D03CE14B46002B00D03BE10020FFF752FF4342434152AA1371012278E1012F00D032E14B46012B00D031E15B46002B00D030E18D4B1B681B68DA0BD2B264
:4005C000934503D1DB09FF22134005E0934501D9002301E080235B0052AA13711B0A5371FF2393710023D371042252E1342A0DD1012F00D013E14B46032B00D012E14C32DF
:40060000002107A800F0D5FE80239A46012F00D00BE14B46022B00D80AE107A85044DA1E4821FF3102AB9C46614400F0B9FE4B4653449BB2832B00D0FDE052AA93791B0293
:40064000527913439A46FF2B00D90A26002E00D0F8E05B461802504480B2644B1B681A68D3099BB2520601D001339BB2834200D9ECE007A900F022FB002800D1EDE0002358
:400680009A46803399460A26002202E1012F00D104E104260022FCE0012F00D0E3E04B46534496225200934200D9DFE007A850444A4653A900F074FE53464B449BB29A469D
:4006C0000022E6E04B46002B00D0D2E004AA484B03CB03C253AA04AB03CB03C200239A4601270822D5E0012F00D0C5E04B46032B00D0C4E052AA93791B02527913439846BB
:400700005B4619024144C9014346FF2B00D90A26002E00D0B6E080220020FFF7B9FD030001905A461202424492B25946002911D1FF2A0FD10520FFF7BFFDC0B2019B1B1A11
:40074000DBB2984600210620FFF7B6FDC3B24246D31ADBB25B4252AA1371012299E00020FFF76AFE002802D18022224B1A6000F0C5F900F0E1FB042600228AE01E4B1E68CD
:40078000002E00D180E0012F00D080E002AB1A704A465A8053AB03930C22002104A800F008FE04AB9B4653AA0692190002A8B0475B469A882623FF339A4203D953AB0699E2
:4007C000994207D0069B002B01D1002A05D1049BDEB25EE00E2600225BE00E26002258E084FDFFFF6E020000041400008C00002030140000800000202C010020002248E0EF
:400800000426002245E00426002242E0042600223FE0042600223CE00426002239E00426002236E00426002233E00426002230E0042600222DE000239A468033994603266D
:40084000002226E080239946002222E000239A46803399460A2600221BE000239A4680339946002215E00426002212E0032600220FE0042600220CE00426002209E004260D
:40088000002206E0002204E00526002201E00526002252A93000FFF7D9FC01E000239A46002D00D10BE6012F00D108E69F239B009D443CBC90469946A246AB46F0BDC04680
:4008C00070B50020FFF7B8FD002801D0062400E00024154D2B681A68C03AC0210020FFF7D7FC6B681B78C01AC0B24042C0B2834204D10D4B1B681B68002B02D1002000F0FA
:40090000E1FA0A4B1B68402B01D0002C05D00022064B1A600020FFF7C1FD3220FFF7BEFDFFF78AFC70BDC0468C0000208000002010B5072000F0A8FA10BDC04610B500F002
:40094000B3F810BD10B500F0C1F810BD10B500F035F810BD10B5054A1368802109060B431360FFF7E5FFFFF7E9FF10BD0000084010B5064B1B78002B04D1FFF7E7FF0122A0
:40098000024B1A70FFF7E6FF10BDC0463001002010B5072000F082FAFFF7D4FF054A13685B005B0813600022034B1A60072000F07FFA10BD00000840880F084070B5204A48
:4009C000204B1A600024204B1C60204A204B1A60204B214A13600721204A1160204A14600639204A1160204A1360204B1C6004251F4B1D60072000F051FA0321072000F003
:400A000075FA1C49072000F05FFA1B4B1C601B4B1C601B4B1C601B4B1C601B4B1D601B4B1C601A681A4B1A801A4B1C601A4B1C601A4B1C701A4B1C601A4B1C6070BDC046FC
:400A40000B000002000008404000084001000A0048000840070000800003084004030840100308404400084000020840040208405000084065120000880E0840C80E084053
:400A8000480F0840080F0840C80F0840880F08403801002054010020600100205C010020E80100205801002005490B68F0229343603A13430B60034B1A88034B1A60704779
:400AC0000004024038010020880F0840064A1368F0218B431360054B1A68E423DB001340034A13807047C04600040240880F08403801002010B5FFF73BFF10BD10B5FFF7BC
:400B000047FF10BDF0B583B007000E00019200282DD000292ED09A00D3185C0000F04AFB002811D000F046FB0500AB2000F0FCFA00F040FB8542F5D1B54200D93500019B77
:400B40001D800023019308E0012000F001FA013C002CE3D1002510230193002404E03E1900F00EFB30700134A542F8D804E00123019301E001230193019803B0F0BDC0460C
:400B800070B50C001500002806D0002906D000F05DFB2C80002002E0012000E0012070BD82B0134B0093134B0193134B6A461A601249134A1160C0461B681B0F1B07F02200
:400BC0001206934204D10C4B1B68FF2018400DE0094B1B681B0F1B07A0221206934204D0054B1B68FF20184000E0002002B07047B6E900003C0100200800104016000080B2
:400C000004001040104B114A1A601149114A1160C0461B681B0F1B07F0221206934204D1094B1B68FF2018400DE0074B1B681B0F1B07A0221206934204D0034B1B68FF2092
:400C4000184000E00020704708001040B6E80000150000800400104082B0134B0093134B0193134B6A461A601249134A1160C0461B681B0F1B07F0221206934204D10C4BC0
:400C80001B68FF2018400DE0094B1B681B0F1B07A0221206934204D0054B1B68FF20184000E0002002B07047B6EA00003C01002008001040170000800400104030B5A5B07A
:400CC0000400002323932293FF2872D8002970D0802202A800F064FB384B00937F230193374B6A461A603749374A1160C0461B681B0F1B07F0221206934204D1304B1B68DC
:400D0000FF2213400DE02E4B1B681B0F1B07A0221206934204D02A4B1B68FF22134000E000232393239B002B45D100F022FA0500FFF736FF2290229B002B02D1FFF762FF63
:400D40002390239B002B25D1204A0092009A2404144300941A4A694611601D481A490860C0461268120F1207F02109068A4204D1134B1B68FF2213400BE0114A1268120FD3
:400D80001207A02109068A4203D00D4B1B68FF2213402393229B002B07D1FFF75DFF2290229B002B01D0229B2393280000F0E5F901E004232393239825B030BDB6D70000F8
:400DC000080010400400008004001040B6D800000500008070B5040000F0CBF90500102C05D8104A136803218B43136016E0202C07D80C490B6803229343023A13430B609A
:400E00000CE0302C07D807490B6803229343013A13430B6002E0002000F054F8280000F0ACF970BD300010400C4B1B689B001C22134018330A4A1268920803210A40D340EF
:400E400008490868084A02400A60084A944663441B78DBB2064A13607047C046080F03402800034000000740FFFFFFBFCDF1FF0F0C0F0340034B18688023DB05184000D0D5
:400E800001207047000007401F2318401E3B8340014A13607047C04600E100E01F2318401E3B8340014A13607047C04680E100E01F2318401E3B8340014A13607047C0467E
:400EC00080E200E001BE704770B504000D000F2802D90020FFF7F6FF1034A40080239B059C4664442068256070BDC04670B504000E00032902D90020FFF7E4FF0F2C02D9A5
:400F00000020FFF7DFFF03252540ED00063500F030F9A408A400074B9C46644421680323AB4099430B003100A9401943216000F024F970BD00E400E0034A13681B041B0C3F
:400F400002490B43136070470CED00E00400FA0510B5040006E0084B586800F001F9074B9C46644480231B029C42F4D8024B9868604300F0F5F810BD940000200080FFFF14
:400F800070B582B000F0DAF800284DD000F0F1F80500264B1A6892001C231A401832244B1B689B0803210B40DA400021214B1960214C2168214B0B4021494A438021C9015A
:400FC0008C466244D20B013A5205520D1343A0225203134323601B4B1B6801933020FFF7F9FE194A13688021C9050B4313602668164B1E40002407E00120FFF7A9FF103442
:40100000A30533430C4A1360EE2CF5D90120FFF79FFFFF239B051E43074B1E60019A094B1A60280000F0A9F802B070BD080F0340280003400C0F03400800074000F800C00E
:4010400040420F003000104000000740FFFF3FC0F0B583B0040018280BD01C2809D0202807D0242805D0282803D02C2801D0302849D100F07EF80190FFF7FCFE002803D02B
:40108000FFF7D2FE012600E00026214A136807218B4313601F4BE3181B78DBB21E4A13601E4A13688B4313601D4803687F22934319001C4BE3181B7813400B4303603220BF
:4010C00000F04EF8182C16D9114F3B680725AB431A0023001C3B9B082B4013433B60322000F03EF83A68AA432300183B9B082C001C4014433C60012E01D1FFF741FF01986C
:4011000000F03BF802E00020FFF7DCFE03B0F0BD080F0340CDF1FF0F0C0F0340100F0340180F0340B4F1FF0F10B5034B1B7B584300F016F810BDC04694000020034B1B68BD
:40114000002B01DA012000E00020704700000740014A024B1A6070476588EDAC380003400230800803D001300238FCD1C046C0467047EFF3108072B6704780F310887047E5
:40118000094B1A68094B1B689A420BD0074B1B680133412B00D10023054AD05CC0B2034A136000E000207047540100206001002064010020074B1B68074A1268934203D338
:4011C000054A1068181A04E0034A10681B1A4133180070475401002060010020144B1A68144B1B689A4208D1134B1B681F221340082B02D0114B186019E00D4B1A68013213
:40120000402A00D100220B4B1B689A42FBD002230B490B60C0B20B49885405490A600A4A1268134203D1084A11680B4313607047E8010020580100200802084040020840FB
:40124000800F0840A8010020880F084070B506000D00002403E0305DFFF7C0FF0134AC42F9D370BD10B5274B1B68002B00D09847254B1B685B071DD5244B1B680133412BE5
:4012800000D10023224A1268934205D1214B1B682022214B1A7006E01E4A1268D2B21F49CA541A4A13601E4B1B68DB06E4D104221C4B1A601C4B1B689B0721D51B4B1A68E6
:4012C0001B4B1B689A4213D0194B1B680133402B00D10023174AD25CD2B217490A60144A1360164B1B681F221340082BE6D104E0134A136802218B4313600222114B1A60A2
:4013000010BDC04634010020CC0F08405401002060010020400308405C0100206401002008030840C00F08408C0F0840E801002058010020A801002040020840080208406B
:40134000880F0840800F0840014B18687047C046080100200E4B70B500251E000D4CE41AA410A54204D0AB00F35898470135F8E700F064F8084B00251E00084CE41AA410AC
:40138000A54204D0AB00F35898470135F8E770BD48140000481400004814000050140000002310B59A4203D0CC5CC4540133F9E710BD03008218934202D019700133FAE749
:4013C0007047000000150000A80000000000000086030000C6020000D6020000E6020000F602000006030000160300003603000026030000460300005603000066030000E1
:401400007603000080050000A00500007C070000EC0500008C0600007C07000098060000C4060000EC050000E60600005E070000A9110A19003C010143000000F8B5C046C5
:40144000F8BC08BC9E46704729010000C9010000F8B5C046F8BC08BC9E46704701010000701400008800002088000000E000000000000000C4130000C81300000100000056
:401480000000E02EC05D00001800000000366E01000000000000000000000000000000000000000000000000000000000000000038140000000000000000000000000000F8
:4014C000000000000000000000000000000000000000000000000000000000000000000000000000000000000000000000000000A800002000000000000000000000000024
:401500000010002011150000551700005517000010B5034B83F3088800F050FB00F022F90010002010B50F4C12232360182000F0C5FAFE2212020C4B1A600C4B0C4A1A6003
:40154000802149010B4A11600B4A1A6000220B4B1A6040320A4B1A6001320A4B1A601123236010BD30001040000301400000014040FF00800403014041FF008028000340FB
:40158000080101400001014010B572B6EE221202114B1A609922114B1A60953A104B1A607C32104B1A6002230F4A13600F49104A116003210F4A1160D82109010E4A116032
:4015C0000E4A136031210E4A11600E4A1360FFF7A9FF00F0B5F810BD0003024000040240000004400800044000020440800D030008020440180204400803044000040440FE
:40160000080404401804044010B5064C2378002B07D1054B002B02D0044800E000BF0123237010BD0801002000000000D0250000084B10B5002B03D00749084800E000BF16
:4016400007480368002B00D110BD064B002BFBD09847F9E7000000000C010020D0250000880000200000000030B583B062B600F0D9F800F067FC002000F074FC012000F042
:4016800071FC00F029FB0028FBD100F041F9002000F04AF9002000F053F90024019D194B9D4208DD002000F033F9002000F03CF9002000F045F9FA239B009D4202DC01208D
:4016C00000F026F9009DFA239B009D4202DC012000F02AF90B4B9D4202DD012000F030F9E0B200F009FBA3006A46985063425C41E4B2200000F036FC00F0EEFA0028FBD1A0
:40170000CCE7C0469F0F00000B4B1B68002803D080221206134301E05B005B08064A1360064B1B68002802D02022134301E020229343024A1360704700200240280003405A
:4017400010B51022024B1A600120FFF7DDFF10BDA8020B4010B500F007FF03680C2B00D1FEE7FEE770B50F4E0F4D13E029686B68AC68002202E001C901C30432A242FAD13E
:40178000E868002202E0002102C304328242FAD11035013E002EE9D100F0ECFEFFF764FFFEE7C046010000003426000010B500230AE0032B03D89A000B49505800E00B48A1
:4017C00099000B4A885001331F2BF2D9FFF7DCFE084B1B68002B02D10022064B1A6080229205054B1A6010BD0015000055170000000000208000002008ED00E010B500F0AE
:4018000075F810BD10B500F01DF810BD10B5044A1368802109060B431360FFF7EFFF10BD0000084010B5064B1B78002B04D1FFF7E9FF0122024B1A70FFF7E8FF10BDC046AE
:4018400024010020154A164B1A600023154A13601549164A1160164A16490A6007201649086016490B6006381549086015490A60154A13600421154A1160154A1360154A20
:401880001360154A1360154A1360154A1360154A13601268144B1A807047C0460B000002000008404000084001000A00480008400700008000030840040308401003084049
:4018C00044000840000208400402084050000840880E0840C80E0840480F0840080F0840C80F0840880F08402601002005490B68F0229343603A13430B60034B1A88034BAB
:401900001A6070470004024026010020880F084004490A68D2B220239A43400118401043086070470002044004490A68D2B208239A43C0001840104308607047000204403B
:4019400004490A68D2B204239A4380001840104308607047000204400C4B1B689B001C22134018330A4A1268920803210A40D34008490868084A02400A60084A94466344C4
:401980001B78DBB2064A13607047C046080F03402800034000000740FFFFFFBFCDF1FF0F0C0F0340034B18688023DB05184000D0012070470000074001BE704710B50400BE
:4019C00006E0084B586800F01FFC074B9C46644480231B029C42F4D8024B9868604300F013FC10BD8C0000200080FFFF70B582B000F0DAF800284DD000F00FFC0500264BE8
:401A00001A6892001C231A401832244B1B689B0803210B40DA400021214B1960214C2168214B0B4021494A438021C9018C466244D20B013A5205520D1343A0225203134373
:401A400023601B4B1B680193302000F0EDFB194A13688021C9050B4313602668164B1E40002407E00120FFF7A9FF1034A30533430C4A1360EE2CF5D90120FFF79FFFFF232F
:401A80009B051E43074B1E60019A094B1A60280000F0C7FB02B070BD080F0340280003400C0F03400800074000F800C040420F003000104000000740FFFF3FC0F0B583B0DC
:401AC000040018280BD01C2809D0202807D0242805D0282803D02C2801D0302849D100F09CFB0190FFF75EFF002803D0FFF734FF012600E00026214A136807218B431360A5
:401B00001F4BE3181B78DBB21E4A13601E4A13688B4313601D4803687F22934319001C4BE3181B7813400B430360322000F06CFB182C16D9114F3B680725AB431A00230092
:401B40001C3B9B082B4013433B60322000F05CFB3A68AA432300183B9B082C001C4014433C60012E01D1FFF741FF019800F059FB02E00020FFF720FF03B0F0BD080F03406E
:401B8000CDF1FF0F0C0F0340100F0340180F0340B4F1FF0F10B5034B1B7B584300F034FB10BDC0468C000020034B1B68002B01DA012000E00020704700000740014A024B0C
:401BC0001A6070476588EDAC38000340F8B54F464646C0B4040088462F49C300181A820010008A18177E967E45582A680F23BB409A43914600F011FB4346012B21D1072279
:401C00001300BB40494619432960E100091B8B002149CB1859680B68B24093431A000123B34013430B606B0521D5092E03D101221A4B1A601BE0062E19D11022174B1A60BD
:401C400015E04B462B60E200121B9300124AD31859680B680722B24093430B606B0506D5092E01D0062E02D100220C4B1A600A4DE300191B8A00AA1891680A681C1BA3008E
:401C8000EB185C7E0123A3409A430A6000F0C9FA0CBC90469946F8BDD4250000C0020B4010B5FFF793FF10BD3B230343084A136080235B02984203D0002804D1082204E0D3
:401CC0000222FF3201E00222FF32024B1A60704720030B4040030B40054B1B685B0004D4044B187A0F23984300E080207047C046E0000B4034010020012803D84000034B9C
:401D0000C05A00E0024880B27047C04634010020FFFF000010B5002404E0E0B20021FFF7BFFF0134012CF8D9FF22014B9A7210BD34010020074A084B1A6001380002074B70
:401D40001860054B1B68002BFBDB054A024B1A607047C04640000040000001400003014040FF008070B50120FFF7E4FF0322274B1A60274A274B1A60274B5B7A274A1343E5
:401D8000274A13601D22274B1A600024264B1C60264B1C60264B1C600125264B1D601B3A254B1A6080235B05244A136080214903234A1160234A1460234A1460234A146084
:401DC0008822520422490A6022490A60224A136000F023FA214A1368882149030B43136000F01FFA1E4A1F4B1A601F4B1C601F4A1F4B1A60832252001E4B1A601E4B1C606A
:401E00001E4800F0F1F91E4B1D7070BD00020B400210008500000B403401002080000004C4010B4000030B408C010B40C0020B4004020B4010030B4014030B4080020B4016
:401E400084020B4088020B40A0020B40A4020B40B0020B40B4020B40A8020B4094020B404111000088010B4090020B400100008080010B40F0000B40F8000B40E11F00003C
:401E80002801002010B5044B1B78002B01D1FFF769FF002010BDC0462801002010B5FFF7F1FF04001E4B1B7A0F22934300D00424002C33D10520FFF76DFE194B987AFF289C
:401EC00005D00021FFF7ECFEFF22154B9A72154B1B78154A107800021843144B58439621090100F0CBF9124B18800D4B0F225A721049114A116010221A72F0320F4B1A60B6
:401F000080204002FFF7D0FE0D4A00E0013A044B1B7A0F218B4301D0002AF7D1200010BD3401002060F1FF0F61F1FF0F55080000A00000208F000004C4010B40F8000B40E0
:401F4000FFFF000010B5FFF7E5FE054B1B78012B01D000F011F9FFF705FFFFF79FFF10BD2801002070B505001A4B1B78002B01D1FFF7F8FE012D01D8002400E00124002CE0
:401F800025D1154B1B7A0F22934300D00434002C1DD10520FFF7FEFD40232B43DBB20E4A1372907A85420AD0FF2802D00021FFF777FE01212800FFF773FE074B9D728022D8
:401FC0005200064B1A60C0208002FFF76DFE200070BDC0462801002034010020F8000B40F0B5474680B40022594B1A600732FF32584B1A60584B1C68002C00DAA2E063008E
:4020000000D59BE055490B7AF73A93438022520222402004000C0D7A0F210D40202B4BD002D8102B3BD090E0302B5ED0402B00D08BE0002A0ED04A4B1B88984200D918006A
:40204000181A8302181A464B59884A08801800F015F916E0424EB3885B00584334886308C018210000F00AF9F388984200D9180020188302181A3A4B59884B08C01800F09D
:40208000FDF8364C6D0063199880354B1B895843344900F0F3F860530023237255E0304B1C8020222D4B1A72E032294B1A6080208002FFF7F9FD48E0294B9C8000F0ADF839
:4020C000294A1168294B0B40136000F0AAF880235B00274A13603021204A11721C4A1360C0208002FFF7E0FD2FE00025204B1D6000F093F81C4A1368882149030B431360D4
:4021000000F08FF8A0B2164E4400B088604337887C080019390000F0B1F883B2F380FA187280144A1288904653431819390000F02FF940443081094B1D7206E08022074BA1
:402140001A7202E00022054B1A7204BC9046F0BDF8000B40F0000B40E0000B40340100202A010020FF03000094020B40FFFFEEFF88020B40A000002010B5064C0E2200219C
:40218000200000F01DFA0A23E37205336372F033A37210BD34010020014B98667047C0460000002010B5040000F037F8044A1168044B0B40A4051C43146000F032F810BD3C
:4021C00008E400E0FFFF3FFF8022D200014B1A607047C04600E100E08022D200014B1A607047C04680E100E010B50400FFF7F4FF2000FFF7D1FF0320FFF7D4FFFFF7E4FF8A
:4022000010BDC046000000000230800803D001300238FCD1C046C0467047EFF3108072B6704780F31088704770B50400FFF7F5FF0500102C05D8104A136803218B431360C5
:4022400016E0202C07D80C490B6803229343023A13430B600CE0302C07D807490B6803229343013A13430B6002E00020FFF7A4FB2800FFF7D6FF70BD3000104000224308F8
:402280008B4274D303098B425FD3030A8B4244D3030B8B4228D3030C8B420DD3FF22090212BA030C8B4202D31212090265D0030B8B4219D300E0090AC30B8B4201D3CB0378
:4022C000C01A5241830B8B4201D38B03C01A5241430B8B4201D34B03C01A5241030B8B4201D30B03C01A5241C30A8B4201D3CB02C01A5241830A8B4201D38B02C01A5241A3
:40230000430A8B4201D34B02C01A5241030A8B4201D30B02C01A5241CDD2C3098B4201D3CB01C01A524183098B4201D38B01C01A524143098B4201D34B01C01A52410309B0
:402340008B4201D30B01C01A5241C3088B4201D3CB00C01A524183088B4201D38B00C01A524143088B4201D34B00C01A5241411A00D20146524110467047FFE701B5002007
:4023800000F0F0F802BDC0460029F7D076E7704703460B437FD4002243088B4274D303098B425FD3030A8B4244D3030B8B4228D3030C8B420DD3FF22090212BA030C8B42AF
:4023C00002D31212090265D0030B8B4219D300E0090AC30B8B4201D3CB03C01A5241830B8B4201D38B03C01A5241430B8B4201D34B03C01A5241030B8B4201D30B03C01AD5
:402400005241C30A8B4201D3CB02C01A5241830A8B4201D38B02C01A5241430A8B4201D34B02C01A5241030A8B4201D30B02C01A5241CDD2C3098B4201D3CB01C01A524124
:4024400083098B4201D38B01C01A524143098B4201D34B01C01A524103098B4201D30B01C01A5241C3088B4201D3CB00C01A524183088B4201D38B00C01A524143088B428A
:4024800001D34B00C01A5241411A00D201465241104670475DE0CA0F00D04942031000D34042534000229C4603098B422DD3030A8B4212D3FC22890112BA030A8B420CD347
:4024C000890192118B4208D3890192118B4204D389013AD0921100E08909C3098B4201D3CB01C01A524183098B4201D38B01C01A524143098B4201D34B01C01A524103090F
:402500008B4201D30B01C01A5241C3088B4201D3CB00C01A524183088B4201D38B00C01A5241D9D243088B4201D34B00C01A5241411A00D20146634652415B10104601D325
:402540004042002B00D54942704763465B1000D3404201B5002000F005F802BD0029F8D016E770477047C046014B18687047C046040100200E4B70B500251E000D4CE41A84
:40258000A410A54204D0AB00F35898470135F8E700F03EF8084B00251E00084CE41AA410A54204D0AB00F35898470135F8E770BD1C2600001C2600001C260000242600001E
:4025C00003008218934202D019700133FAE7704700000000000202400802044000020440040204400F000000010000000000000000020240080204400002044004020440EE
:40260000F0000000020000000401030043000000F8B5C046F8BC08BC9E46704731160000AD170000F8B5C046F8BC08BC9E4670470916000048260000880000208000000011
:40264000400000000000000000000000010000000000E02EC05D00001800000000366E015508000000000000000000000000000000000000000000000000000000000000D4
:40268000000000000C2600000000000000000000000000000000000000000000000000000000000000000000000000000000000000000000000000000000000000000000E8
:4026C00000000000A4000020000000000000000000000000000000000000000000000000000000000000000000000000000000000000000000000000000000000000000016
:402700000000000000000000000000000000000000000000000000000000000000000000000000000000000000000000000000000000000000000000000000000000000099
:402740000000000000000000000000000000000000000000000000000000000000000000000000000000000000000000000000000000000000000000000000000000000059
:402780000000000000000000000000000000000000000000000000000000000000000000000000000000000000000000000000000000000000000000000000000000000019
:4027C00000000000000000000000000000000000000000000000000000000000000000000000000000000000000000000000000000000000000000000000000000000000D9
:407FC000821115000029000000001200000000000000000000000000000000000000000000000000000000000000000000000000000000000000000000000000000000009E
:0200000490303A
:02000000ABCB88
:0200000490402A
:200000000000000000000000000000000000000000000000000000000000000000000000E0
:0200000490501A
:0C0000000002190A11A900011915BD74B5
:0200000490600A
:0100000001FE
:00000001FF