:4000000000100020110000006F0100006F01000010B500F02DFF00F05FF900F0B1F8000010B572B6EE22164B12021A609922154B31211A60C022144B12041A60D822134BE1
:4000400012011A600223124A124C1360124A18201160124A13601033236000F09DFE80220F4B52011A600F4A0F4B1A6000220F4B1A600F4B40321A601123236010BDC046C0
:4000800000030240000402400801044008030440000404403000104008040440180404400003014040FF0080000001402800034000010140000000000000000000000000B0
:4000C0000000000000000000000000000000000000000000000000000000000000000000000000000000000000000000000000000000000000000000000000000000000000
:4001000010B5064C2378002B07D1054B002B02D0044800E000BF0123237010BD1001002000000000F8100000084B10B5002B03D00749084800E000BF07480368002B00D10A
:4001400010BD064B002BFBD09847F9E70000000014010020F8100000880000200000000010B562B600F02AFB00F0E4FAFEE710B500F080FF03680C2B00D1FEE7FEE70000B1
:40018000F8B500250F49104B01394A1C14D000221F685C689E68A018B24203D0B858A0500432F8E70200DE68141AA64201D020C2FAE710330139E8E700F062FFFFF7D0FFDB
:4001C000FEE7C0460100000030110000002370B50B480C4C0C4D9A002100032B00D8A95801338150202BF6D1FFF71AFF074B1A68002A00D11A608022054B92051A6070BD25
:40020000000000206F010000000000008000002008ED00E0004700234118002A05D0013A881800781B18DBB2F7E7180070470000013810B50B2830D8C901494200F006FFB4
:4002400006080A0C0E10141216191B20164B13E0164B16E0164B0AE0164B12E0164B0BE0164B09E0164B02E0164B00E0164BC91814E0164B05E0164BC9180878C0B211E0A8
:40028000144BC9180A7848788C780002230418430300C8781343000603E000210B7848780002184310BDC046C07F0000C17F0000C57F0000C97F0000D07F0000D17F000074
:4002C000D67F0000D27F0000D47F0000D87F0000DC7F0000E07F00000C4B10B51A68102313400B4A00D113601368802B0DD10024022021001460FFF79BFFA04205D02100F0
:400300000220FFF795FFFFF785FF10BD5400034080000020F8B5010006000320FFF788FF040031000420FFF783FF0134E4012718002431000320FFF77BFF25000130C00116
:40034000B84209D203785A1ED2B2FD2A00D80125E418E4B20130F3E731000120FFF768FF6442E4B20623844203D16A4255416D422B401800F8BD0000F0B5C04CA54401906D
:4003800000F0DCFA62B6019B002B02D06B461B7901E0BB4B1B78DBB2039300250A23009502939621039B04AA49000AA800F0CEFA019B002B03D0029B013BDBB20293029B80
:4003C000002B02D00028ECD102E0002800D08BE004AB1988062900D84BE11A7E0423012A52D104AA568BF21D8A4200D943E1962149008A4200D93EE10AAA92199279172A70
:4004000042D10022F3189BB2002B09D0A0A99D48C91809180978013B521892B29BB2F3E70AAFBB19597952421B79090292B219430823914228D162E0342B00D0CAE0009B8A
:40044000012B00D015E1032E00D012E18022002155A800F044FE80251F2155AB581904AB7519F21EC918ADB200F030FE832D00D0F9E004AB9D7F587F2D020543FF2D00D82D
:4004800010E1012300930933002404AA548001210AAA5370230AD370002311709470221D92B2002A09D0A0A97648891809180978013A5B189BB292B2F3E7A0AA72491219E8
:4004C0005B4251189BB20B7070491B0A51180B706F4B0734D2181723137004AAA1B27F3302320AA800F063FA019B002B00D158E7009B012B00D016E10123009351E77B78A3
:400500003C79180031380A282ED9624A1468002C26D0009A012A25D104AAD68007AE13710BAF0C2200213000069700F0D8FDB760310005A8A0472623B488FF339C4202D923
:40054000B368BB4207D0B268002A01D1002C04D13368DBB299E70E2396E70E23140094E7052392E705238FE700F07AFD0B001900CFFF66FF3A00CFFF3E00500066FF600007
:400580007000009B012B74D1002E72D13000FFF7C1FE43424341009C3B71330075E7009B012B66D1012E64D1002C62D13A4B1B681B68DA0BD2B2DB09DBB2002A01D08023C5
:4005C0005B003B711B0A7B71FF23BB7100230424FB715AE7009B012B4BD1022E49D93BE7009B012B45D198E0009B012B41D12C337419FF339C423EDC55AB581932000BA9AB
:4006000000F064FD0023A5B21C003EE7002E30D107AB1900214A350011CA11C10BAA03CB03C201230824009333002EE7009B012B1FD1032E1DD104AA04AB977F5B7F3F0290
:400640001F430A23FF2F00D91EE748E00020FFF761FE002802D18022114B1A6000F072F900F016FB05E001230025009302332C000BE7042308E7032306E7C0467CFDFFFFB9
:40068000FC100000A7FDFFFFACFDFFFFADFDFFFFAEFDFFFF2C0100208C0000200011000080000020224B1B681A68D3099BB2520601D001339BB220022D18A8B2834204D942
:4006C0000123002500930933D1E755A900F0E2F90028F5D10123050000930300C7E72102C919C90180220020FFF795FD0600002C0DD1FF2F0BD121000520FFF799FD2100E0
:40070000361A0620FFF794FDF6B2361AF6B20AAB76421E7101240023B7E60025019BAB4200D0E9E63DE6A1239B009D44F0BDC0468C00002070B50020FFF7ECFD431E9841CE
:400740000625144C4042236805401A68C021C03A0020FFF760FD63681B78181AC0B2834203D123681B68002B02D1002000F08EFA094C2368402B01D0002D03D000202060D1
:40078000FFF7FAFD3220FFF7F7FD8023236000F07FFA70BD8C000020800000208021064A10B5136809060B431360072000F050FA00F09EF810BDC0460000084010B5054CEF
:4007C0002378002B03D100F01DF801232370FFF7E5FF10BD3001002010B5072000F042FA00F098F8054A072013685B005B0813600022034B1A6000F03FFA10BD00000840C9
:40080000880F084070B500240725012104261E4A1E4B28001A601E4B1E4A1C601E4B1A601E4B1F4A13601F4A15601F4A14601F4A11601F4A13601F4B1C601F4B1E6000F001
:4008400011FA2800032100F0E9F928001B4900F0DDF91B4B1C601B4B1C601B4B1C601B4B1C601B4B1E601B4B1C601A681A4B1A801A4B1C601A4B1C601A4B1C701A4B1C609A
:400880001A4B1C6070BDC0460B000002000008404000084001000A00480008400700008000030840040308401003084044000840000208400402084050000840710F0000F4
:4008C000880E0840C80E0840480F0840080F0840C80F0840880F08403801002054010020600100205C010020E801002058010020F021054A13688B4360390B431360034B61
:400900001A88034B1A6070470004024038010020880F0840F021064A13688B431360054B1A68E423DB001340034A13807047C04600040240880F08403801002010B5FFF71E
:400940003DFF10BD10B5FFF747FF10BDF8B504000F0016000120002C28D0002926D00A255D4300F0B5FA002810D000F0B1FA0500AB2000F06DFA00F0ABFA8542F5D13900D3
:40098000AF4200D929003180651807E00120013D00F08AF9002DE4D1102007E0AC4204D000F07EFA20700134F8E70020F8BD70B501230C001500002805D0002903D000F06E
:4009C000CBFA00232C80180070BD000082B06A460B4B0C4900930C4B01930C4B1A600C4A1160C0461A68120F0F2A04D01A680020120F0A2A01D01868C0B202B07047C0469C
:400A0000B6E90000160000803C0100200800104004001040094B0A4A0A491A600A4A1160C0461A68120F0F2A04D01A680020120F0A2A01D01868C0B27047C04608001040B9
:400A4000B6E80000150000800400104082B06A460B4B0C4900930C4B01930C4B1A600C4A1160C0461A68120F0F2A04D01A680020120F0A2A01D01868C0B202B07047C0466D
:400A8000B6EA0000170000803C0100200800104004001040F0B50024A7B0029406000394FF2854D8A14252D0802206A800F00EFB294B04AF04937F23284D7B60284A294B6C
:400AC0002F601360C0462B6801921B0F0F2B03D02B681B0F0A2B01D02C68E4B20294029B002B36D100F0D5F90400FFF76FFF0390039B002B02D1FFF78DFF0290029B002B0E
:400B000016D1194A19490492049A0198360416430496124A2F600160C0462968090F0F2903D01168090F0A2901D01368DBB20293039B002B07D1FFF789FF0390039B002B5C
:400B400001D0039B0293200000F0A7F901E004230293029827B0F0BDB6D70000080010400400104004000080B6D800000500008010B5040000F08DF9102C04D803210C4A65
:400B800013688B430FE0202C05D80321084A13688B43023906E0302C06D80321044A13688B4301390B43136000F077F910BDC046300010400B480C4A0C4B10B51B68116890
:400BC00004680B4A9B00224002601C2213400A07920F1833D340074A9B181B78064ADBB2136010BD0000074028000340080F0340FFFFFFBFCDF1FF0F0C0F0340024B1868C1
:400C00004000C00F7047C04600000740024B8000C31818681960704740000020F8B5032605003540B5400F0004000635AE40AF4000F02FF9A408054BA400E4182368B34344
:400C40001F43276000F029F9F8BDC04600E400E01F2318401E3B8340014A13607047C04600E100E01F2318401E3B8340014A13607047C04680E100E01F2318401E3B8340E0
:400C8000014A13607047C04680E200E001BE7047034A044913689BB20B4313607047C0460CED00E00400FA0570B5802504002D02064BAC4205D9586800F0E2F8044BE41856
:400CC000F6E79868604300F0DBF870BD940000200080FFFFF0B585B000F0C4F8002846D000F0D7F80024234A234B01901B681068224A234D14602968224A9B001140A02249
:400D0000520311431C2213400207920F1833D3401D4A1E4E53438022D2019B18DB0B013B0B432B60336830200393FFF721FF8021174AC90513680B4313602A68154B1A40F6
:400D4000170001201034FFF7AFFFA3053B432B60F02CF6D10120FFF7A7FFFF23084A9B053B431360039B0198336000F096F805B0F0BDC04628000340080F03400C0F03402A
:400D80000800074000F800C040420F003000104000000740FFFF3FC0F7B50500183D0400182D45D80126234B3700EB409F433FD100F06FF80190FFF721FF0097002802D0F3
:400DC000FFF7F8FE009607271B4E1C4A33681C49BB4333601B4BE3181B78DBB213601A4A1368BB431360194B0A68E31818787F239A43034013430B60322000F041F8182CFC
:400E00000ED033681C3CA408BB433C401C433460322000F035F83368AD08BB431D433560009B012B01D1FFF755FF019800F035F8F7BDC04611111101080F03400C0F0340D7
:400E4000180F0340CDF1FF0F100F0340B4F1FF0F10B5034B1B7B584300F012F810BDC04694000020014B1868C00F704700000740014A024B1A6070476588EDAC38000340FF
:400E80000230800803D001300238FCD1C046C0467047EFF3108072B6704780F310887047084B094A196813680020994208D013680133412B00D103000449C85C1360C0B2DD
:400EC0007047C046540100206001002064010020044B1868044B1A681B68904200D24130C01A70475401002060010020134B144A30B515681C681900A54208D1114B1C68A0
:400F00001F232340082B02D00F4B186015E013680133402B00D100230C68A342FCD002210A4CC0B221600A4CE0541360094B1A680A4202D11A680A431A6030BD5801002000
:400F4000E80100200802084040020840800F0840A5010020880F084070B504004518AC4204D02078FFF7C2FF0134F8E770BD0000254B70B51B68002B00D09847234B1B6855
:400F80005B071CD520241F2021490B680133412B00D100231F4A15681F4AAB4203D113681E4B1C7004E012681D4DD2B2EA540B601C4B1B680342E8D104221B4B1A601B4B21
:400FC0001B689B071FD51F20194C1A4A21681368994210D013680133402B00D100231649164DC95CC9B229601360154B1B680340082BEBD104E00221124A13688B43136071
:401000000222114B1A6070BD34010020CC0F08405401002060010020400308405C0100206401002008030840C00F08408C0F0840E801002058010020A5010020400208406F
:4010400008020840880F0840800F084002B4714649084900095C49008E4402BC7047C04603B47146490840004900095E49008E4403BC7047014B18687047C0460801002074
:401080000E4B70B500251E000D4CE41AA410A54204D0AB00F35898470135F8E700F036F8084B00251E00084CE41AA410A54204D0AB00F35898470135F8E770BD181100000A
:4010C000181100001811000020110000002310B59A4203D0CC5CC4540133F9E710BD03008218934202D019700133FAE770470000001200003A00000000000000FF000000D1
:40110000A9110A19003C010143000000F8B5C046F8BC08BC9E46704729010000CD010000F8B5C046F8BC08BC9E46704701010000401100008800002088000000E00000006A
:4011400000000000F0100000F4100000010000000000E02EC05D00001800000000366E01000000000000000000000000000000000000000000000000000000000000000082
:401180000811000000000000000000000000000000000000000000000000000000000000000000000000000000000000000000000000000000000000000000000000000016
:4011C000A800002000000000000000000000000000000000000000000000000000000000000000000000000000000000000000000000000000000000000000000000000027
:4012000000000000000000000000000000000000000000000000000000000000000000000000000000000000000000000000000000000000000000000000000000000000AE
:40124000000000000000000000000000000000000000000000000000000000000000000000000000000000000000000000000000000000000000000000000000000000006E
:40128000000000000000000000000000000000000000000000000000000000000000000000000000000000000000000000000000000000000000000000000000000000002E
:4012C00000000000000000000000000000000000000000000000000000000000000000000000000000000000000000000000000000000000000000000000000000000000EE
:407FC0000000000000000000000000000000000000000000010000000000000000000000000000000000000000000000000000000000000000000000000000000000000080
:0200000490303A
:02000000663068
:0200000490402A
:200000000000000000000000000000000000000000000000000000000000000000000000E0
:0200000490501A
:0C0000000002190A11A90001190F77D99C
:0200000490600A
:0100000001FE
:00000001FF