:400000000010002011000000710100007101000010B501F09DF800F0EFF900F0B1F8C04610B50B4C12232360182001F011F880225201084B1A60084A084B1A600022084B7D
:400040001A604032074B1A601123236010BDC046300010400003014040FF008000000140280003400001014010B572B6EE2212020B4B1A6099220B4B1A60C02212040A4B14
:400080001A60D8221201094B1A600223084A13603121084A1160084A1360FFF7C1FF10BD000302400004024008010440080304400004044008040440180404400000000085
:4000C0000000000000000000000000000000000000000000000000000000000000000000000000000000000000000000000000000000000000000000000000000000000000
:4001000010B5064C2378002B07D1054B002B02D0044800E000BF0123237010BD1001002000000000CC130000084B10B5002B03D00749084800E000BF07480368002B00D133
:4001400010BD064B002BFBD09847F9E70000000014010020CC130000880000200000000010B562B600F004FC00F0AAFBFEE7C04610B501F0E9F803680C2B00D1FEE7FEE7CF
:4001800070B50F4E0F4D13E029686B68AC68002202E001C901C30432A242FAD1E868002202E0002102C304328242FAD11035013E002EE9D101F0CEF8FFF7D2FFFEE7C046AB
:4001C000010000006014000010B500230AE0032B03D89A000B49505800E00B4899000B4A885001331F2BF2D9FFF73EFF084B1B68002B02D10022064B1A6080229205054B5A
:400200001A6010BD0000000071010000000000208000002008ED00E0002306E04218013A12789B189BB2013989B20029F6D1584280B270470047C04610B58022024B1A60E5
:4002400000F07AFE10BDC04680000020F0B583B00D006B469E1DDA8001230B7048701400AA70130ACB70171DB9B22800FFF7D4FFE855631D000AE854A31D1722EA54073416
:40028000A1B296233200280000F07AFC03B0F0BD70B505000E001400002802D0002000F011FE002005E0013CAB19E3181B781818C0B2002CF7D170BD10B50C2863D88000A2
:4002C000404B1B589F464B06591ACB013E4A9446634401225CE04B06591ACB013B4A94466344042254E04B06591ACB01384A9446634402224CE04B06591ACB01354A944667
:400300006344042244E04B06591ACB01324A9446634401223CE04B06591ACB012F4A94466344012234E04B06591ACB012C4A9446634402222CE04B06591ACB01294A9446AB
:400340006344022224E04B06591ACB01264A9446634402221CE04B06591ACB01234A94466344042214E04B06591ACB01204A9446634401220CE04B06591ACB011D4A94461A
:400380006344042204E0002000F09CFD02220023012A02D11878C0B200E00020022A03D11978587800020843042A09D11A785878000210439A7812041043DB781B061843E5
:4003C00010BDC046D0130000C07F0000C17F0000C57F0000C97F0000D07F0000D17F0000D67F0000D27F0000D47F0000D87F0000DC7F0000E07F000010B50D4B1B68DB0612
:4004000002D400220B4B1A600A4B1B68802B0ED10022084B1A6000210220FFF74DFF002805D000210220FFF747FFFFF703FF10BD540003408000002070B505000100032058
:40044000FFF73AFF441CE40129000420FFF734FF241829000320FFF72FFF421CD2010023002608E01078411EC9B2FD2900D801261B18DBB20132A242F4D35B42DCB229000B
:400480000120FFF719FF844203D1002E03D1062002E0062000E0002070BDC046F0B55F4656464D464446F0B4CD4CA544050000F021FB62B600239A4600270A249946002DDA
:4004C00001D1FF2300E02B00C64A02A98C4662449621490052A800F015FB002D01D0013CE4B2002C01D00028E9D1002800D0D7E1BC4B02AA944663441B88062B24D952AA6F
:400500001278012A22D152A9CA78120289780A439146110007329A421AD896235B009A4218D84A1D52AB9E5C3202081D1E5C164306315B5C172B0FD181B252A8FFF76CFE7E
:4005400086420BD100260AE0042608E0042606E0032604E0032602E0042600E00826002E00D04BE152AB1A7993465A781300313BD9B20A2900D901E18B009B49CB589F4681
:40058000012F00D03CE14B46002B00D03BE10020FFF752FF4342434152AA1371012278E1012F00D032E14B46012B00D031E15B46002B00D030E18D4B1B681B68DA0BD2B264
:4005C000934503D1DB09FF22134005E0934501D9002301E080235B0052AA13711B0A5371FF2393710023D371042252E1342A0DD1012F00D013E14B46032B00D012E14C32DF
:40060000002107A800F0D5FE80239A46012F00D00BE14B46022B00D80AE107A85044DA1E4821FF3102AB9C46614400F0B9FE4B4653449BB2832B00D0FDE052AA93791B0293
:40064000527913439A46FF2B00D90A26002E00D0F8E05B461802504480B2644B1B681A68D3099BB2520601D001339BB2834200D9ECE007A900F022FB002800D1EDE0002358
:400680009A46803399460A26002202E1012F00D104E104260022FCE0012F00D0E3E04B46534496225200934200D9DFE007A850444A4653A900F074FE53464B449BB29A469D
:4006C0000022E6E04B46002B00D0D2E004AA484B03CB03C253AA04AB03CB03C200239A4601270822D5E0012F00D0C5E04B46032B00D0C4E052AA93791B02527913439846BB
:400700005B4619024144C9014346FF2B00D90A26002E00D0B6E080220020FFF7B9FD030001905A461202424492B25946002911D1FF2A0FD10520FFF7BFFDC0B2019B1B1A11
:40074000DBB2984600210620FFF7B6FDC3B24246D31ADBB25B4252AA1371012299E00020FFF76AFE002802D18022224B1A6000F0C5F900F0E1FB042600228AE01E4B1E68CD
:40078000002E00D180E0012F00D080E002AB1A704A465A8053AB03930C22002104A800F008FE04AB9B4653AA0692190002A8B0475B469A882623FF339A4203D953AB0699E2
:4007C000994207D0069B002B01D1002A05D1049BDEB25EE00E2600225BE00E26002258E084FDFFFF6E020000041400008C00002030140000800000202C010020002248E0EF
:400800000426002245E00426002242E0042600223FE0042600223CE00426002239E00426002236E00426002233E00426002230E0042600222DE000239A468033994603266D
:40084000002226E080239946002222E000239A46803399460A2600221BE000239A4680339946002215E00426002212E0032600220FE0042600220CE00426002209E004260D
:40088000002206E0002204E00526002201E00526002252A93000FFF7D9FC01E000239A46002D00D10BE6012F00D108E69F239B009D443CBC90469946A246AB46F0BDC04680
:4008C00070B50020FFF7B8FD002801D0062400E00024154D2B681A68C03AC0210020FFF7D7FC6B681B78C01AC0B24042C0B2834204D10D4B1B681B68002B02D1002000F0FA
:40090000E1FA0A4B1B68402B01D0002C05D00022064B1A600020FFF7C1FD3220FFF7BEFDFFF78AFC70BDC0468C0000208000002010B5072000F0A8FA10BDC04610B500F002
:40094000B3F810BD10B500F0C1F810BD10B500F035F810BD10B5054A1368802109060B431360FFF7E5FFFFF7E9FF10BD0000084010B5064B1B78002B04D1FFF7E7FF0122A0
:40098000024B1A70FFF7E6FF10BDC0463001002010B5072000F082FAFFF7D4FF054A13685B005B0813600022034B1A60072000F07FFA10BD00000840880F084070B5204A48
:4009C000204B1A600024204B1C60204A204B1A60204B214A13600721204A1160204A14600639204A1160204A1360204B1C6004251F4B1D60072000F051FA0321072000F003
:400A000075FA1C49072000F05FFA1B4B1C601B4B1C601B4B1C601B4B1C601B4B1D601B4B1C601A681A4B1A801A4B1C601A4B1C601A4B1C701A4B1C601A4B1C6070BDC046FC
:400A40000B000002000008404000084001000A0048000840070000800003084004030840100308404400084000020840040208405000084065120000880E0840C80E084053
:400A8000480F0840080F0840C80F0840880F08403801002054010020600100205C010020E80100205801002005490B68F0229343603A13430B60034B1A88034B1A60704779
:400AC0000004024038010020880F0840064A1368F0218B431360054B1A68E423DB001340034A13807047C04600040240880F08403801002010B5FFF73BFF10BD10B5FFF7BC
:400B000047FF10BDF0B583B007000E00019200282DD000292ED09A00D3185C0000F04AFB002811D000F046FB0500AB2000F0FCFA00F040FB8542F5D1B54200D93500019B77
:400B40001D800023019308E0012000F001FA013C002CE3D1002510230193002404E03E1900F00EFB30700134A542F8D804E00123019301E001230193019803B0F0BDC0460C
:400B800070B50C001500002806D0002906D000F05DFB2C80002002E0012000E0012070BD82B0134B0093134B0193134B6A461A601249134A1160C0461B681B0F1B07F02200
:400BC0001206934204D10C4B1B68FF2018400DE0094B1B681B0F1B07A0221206934204D0054B1B68FF20184000E0002002B07047B6E900003C0100200800104016000080B2
:400C000004001040104B114A1A601149114A1160C0461B681B0F1B07F0221206934204D1094B1B68FF2018400DE0074B1B681B0F1B07A0221206934204D0034B1B68FF2092
:400C4000184000E00020704708001040B6E80000150000800400104082B0134B0093134B0193134B6A461A601249134A1160C0461B681B0F1B07F0221206934204D10C4BC0
:400C80001B68FF2018400DE0094B1B681B0F1B07A0221206934204D0054B1B68FF20184000E0002002B07047B6EA00003C01002008001040170000800400104030B5A5B07A
:400CC0000400002323932293FF2872D8002970D0802202A800F064FB384B00937F230193374B6A461A603749374A1160C0461B681B0F1B07F0221206934204D1304B1B68DC
:400D0000FF2213400DE02E4B1B681B0F1B07A0221206934204D02A4B1B68FF22134000E000232393239B002B45D100F022FA0500FFF736FF2290229B002B02D1FFF762FF63
:400D40002390239B002B25D1204A0092009A2404144300941A4A694611601D481A490860C0461268120F1207F02109068A4204D1134B1B68FF2213400BE0114A1268120FD3
:400D80001207A02109068A4203D00D4B1B68FF2213402393229B002B07D1FFF75DFF2290229B002B01D0229B2393280000F0E5F901E004232393239825B030BDB6D70000F8
:400DC000080010400400008004001040B6D800000500008070B5040000F0CBF90500102C05D8104A136803218B43136016E0202C07D80C490B6803229343023A13430B609A
:400E00000CE0302C07D807490B6803229343013A13430B6002E0002000F054F8280000F0ACF970BD300010400C4B1B689B001C22134018330A4A1268920803210A40D340EF
:400E400008490868084A02400A60084A944663441B78DBB2064A13607047C046080F03402800034000000740FFFFFFBFCDF1FF0F0C0F0340034B18688023DB05184000D0D5
:400E800001207047000007401F2318401E3B8340014A13607047C04600E100E01F2318401E3B8340014A13607047C04680E100E01F2318401E3B8340014A13607047C0467E
:400EC00080E200E001BE704770B504000D000F2802D90020FFF7F6FF1034A40080239B059C4664442068256070BDC04670B504000E00032902D90020FFF7E4FF0F2C02D9A5
:400F00000020FFF7DFFF03252540ED00063500F030F9A408A400074B9C46644421680323AB4099430B003100A9401943216000F024F970BD00E400E0034A13681B041B0C3F
:400F400002490B43136070470CED00E00400FA0510B5040006E0084B586800F001F9074B9C46644480231B029C42F4D8024B9868604300F0F5F810BD940000200080FFFF14
:400F800070B582B000F0DAF800284DD000F0F1F80500264B1A6892001C231A401832244B1B689B0803210B40DA400021214B1960214C2168214B0B4021494A438021C9015A
:400FC0008C466244D20B013A5205520D1343A0225203134323601B4B1B6801933020FFF7F9FE194A13688021C9050B4313602668164B1E40002407E00120FFF7A9FF103442
:40100000A30533430C4A1360EE2CF5D90120FFF79FFFFF239B051E43074B1E60019A094B1A60280000F0A9F802B070BD080F0340280003400C0F03400800074000F800C00E
:4010400040420F003000104000000740FFFF3FC0F0B583B0040018280BD01C2809D0202807D0242805D0282803D02C2801D0302849D100F07EF80190FFF7FCFE002803D02B
:40108000FFF7D2FE012600E00026214A136807218B4313601F4BE3181B78DBB21E4A13601E4A13688B4313601D4803687F22934319001C4BE3181B7813400B4303603220BF
:4010C00000F04EF8182C16D9114F3B680725AB431A0023001C3B9B082B4013433B60322000F03EF83A68AA432300183B9B082C001C4014433C60012E01D1FFF741FF01986C
:4011000000F03BF802E00020FFF7DCFE03B0F0BD080F0340CDF1FF0F0C0F0340100F0340180F0340B4F1FF0F10B5034B1B7B584300F016F810BDC04694000020034B1B68BD
:40114000002B01DA012000E00020704700000740014A024B1A6070476588EDAC380003400230800803D001300238FCD1C046C0467047EFF3108072B6704780F310887047E5
:40118000094B1A68094B1B689A420BD0074B1B680133412B00D10023054AD05CC0B2034A136000E000207047540100206001002064010020074B1B68074A1268934203D338
:4011C000054A1068181A04E0034A10681B1A4133180070475401002060010020144B1A68144B1B689A4208D1134B1B681F221340082B02D0114B186019E00D4B1A68013213
:40120000402A00D100220B4B1B689A42FBD002230B490B60C0B20B49885405490A600A4A1268134203D1084A11680B4313607047E8010020580100200802084040020840FB
:40124000800F0840A8010020880F084070B506000D00002403E0305DFFF7C0FF0134AC42F9D370BD10B5274B1B68002B00D09847254B1B685B071DD5244B1B680133412BE5
:4012800000D10023224A1268934205D1214B1B682022214B1A7006E01E4A1268D2B21F49CA541A4A13601E4B1B68DB06E4D104221C4B1A601C4B1B689B0721D51B4B1A68E6
:4012C0001B4B1B689A4213D0194B1B680133402B00D10023174AD25CD2B217490A60144A1360164B1B681F221340082BE6D104E0134A136802218B4313600222114B1A60A2
:4013000010BDC04634010020CC0F08405401002060010020400308405C0100206401002008030840C00F08408C0F0840E801002058010020A801002040020840080208406B
:40134000880F0840800F0840014B18687047C046080100200E4B70B500251E000D4CE41AA410A54204D0AB00F35898470135F8E700F064F8084B00251E00084CE41AA410AC
:40138000A54204D0AB00F35898470135F8E770BD48140000481400004814000050140000002310B59A4203D0CC5CC4540133F9E710BD03008218934202D019700133FAE749
:4013C0007047000000150000A80000000000000086030000C6020000D6020000E6020000F602000006030000160300003603000026030000460300005603000066030000E1
:401400007603000080050000A00500007C070000EC0500008C0600007C07000098060000C4060000EC050000E60600005E070000A9110A19003C010143000000F8B5C046C5
:40144000F8BC08BC9E46704729010000C9010000F8B5C046F8BC08BC9E46704701010000701400008800002088000000E000000000000000C4130000C81300000100000056
:401480000000E02EC05D00001800000000366E01000000000000000000000000000000000000000000000000000000000000000038140000000000000000000000000000F8
:4014C000000000000000000000000000000000000000000000000000000000000000000000000000000000000000000000000000A800002000000000000000000000000024
:401500000010002011150000711D0000711D000010B5034B83F3088800F002FE00F030FC0010002010B572B61F4A204B20491A60EE22204B12021A6099221F4B1F4C1A602D
:40154000C0221F4B12041A600D231E4A182013601D4A11601D4A31211360D8221C4B12011A6002231B4A13601B4A11601B4A13601033236000F0FEFC00238020184A194978
:401580001360194A400111601849086018491160184A13604022184B1A60184B01321A601123236010BDC0460FFF000000020240B60D030000030240000402403000104037
:4015C00008010440000204400802044018020440080304400004044008040440180404400003014040FF0080000001400403014041FF008028000340040101400001014026
:4016000010B5064C2378002B07D1054B002B02D0044800E000BF0123237010BD100500200000000084250000084B10B5002B03D00749084800E000BF07480368002B00D150
:4016400010BD064B002BFBD09847F9E7000000001405002084250000880000200000000010B562B600F06EFB00F06EFD00F0ECFD022000F047F800F05BF90021012000F0DC
:4016800043FB012000F036FB0021080000F02CFB0D4800F01FFB00F021F9642000F0F2FB0F21002000F0F8F80F21002000F0F4F8FA20800000F0E6FB00F00AF9FA2080004C
:4016C00000F0E0FBF0E7C0468825000013B56B46DC1DD871002000F05DFE2000012100F0CFFD012400F0D8FD054B1B68DB0B23401B18002BF6D1012000F04CFE13BDC04615
:4017000008020940384B10B5187004000A2000F0B9FB012000F03EFE002000F02FFE0A2000F0B0FB012000F029FEAE20FFF7CEFFD520FFF7CBFF8020FFF7C8FFA820FFF7CC
:40174000C5FF3F20FFF7C2FFD320FFF7BFFF0020FFF7BCFF4020FFF7B9FF8D20FFF7B6FF1020012C00D01420FFF7B0FF2020FFF7ADFF0020FFF7AAFFA120FFF7A7FFC820C5
:40178000FFF7A4FFDA20FFF7A1FF1220FFF79EFF8120FFF79BFF9F20012C00D0CF20FFF795FFD920FFF792FF2220012C00D0F120FFF78CFFDB20FFF789FF4020FFF786FF30
:4017C000A420FFF783FFA620FFF780FF2E20FFF77DFFAF20FFF77AFF4022044B1A70044B92181A7010BDC04657050020560500205505002010B5244B1B78834242D9234B5D
:401800001B788B423ED9224B1B78022B08D0032B0DD0012B0FD17E335B1A0100D8B20AE07F23181A403B591AC0B2C9B203E03F231B1A0800D9B2012A0ED0002A17D0022A78
:4018400020D1CB08DB01181807231940063B8B40104C225C534014E0CB08DB011818072319408A400B4C235C1A4322540AE0CB08DB0118180723012219408A40054C235CCA
:401880009343235410BDC0465505002056050020540500208C00002070B505000C002720FFF714FF0020FFF711FF2800FFF70EFF0020FFF70BFF2000FFF708FF0020FFF7C4
:4018C00005FFFF20FFF702FF2F20FFF7FFFE70BD10B52E20FFF7FAFE10BD000010B52120FFF7F4FE0020FFF7F1FE7F20FFF7EEFE2220FFF7EBFE0020FFF7E8FE0720FFF7E3
:40190000E5FE012000F046FD80210748C90000F0B7FC012400F0C0FC044B1B68DB0B23401B18002BF6D110BD8C000020080209400023802218000349D20058540133934287
:40194000FBD170478C00002010B53F2931D88418802C03DD80225242121AD2B2CC08E4012018144C201807240C400121A140C9B2012B05D0002B0BD08218022B12D018E0CE
:401980008218904215D003780B4303700130F8E7C9438218C9B290420BD003780B4003700130F8E7904204D003784B4003700130F8E710BD8C00002070B544B2002C7CDB2D
:4019C0008C18402C02DD4022521AD2B2CC08E40120183A4C20180724214026D00134611A374CC9B2645C8A420AD2FF258E1A35412C40012B06D0002B09D0022B0DD05CE065
:401A0000012B02D105782C4309E0002B03D10578A5432C0003E0022B04D105786C4004708A424AD3521AD2B28030072A22D9022B0AD1010013000C78083BE443DBB20C70F8
:401A40008031072BF7D828E0591E4C426141050014004942C9B2083CE4B229708035072CF9D811000839C9B2C9080131C901401807210A40002A20D011498A18127A012B88
:401A800004D0002B05D0022B17D113E003781A4312E00378934303700FE01300083BDBB2DB080133DB01C01807231A4005D0044B9A18127A03785A40027070BD8C000020D9
:401AC0009A25000070B5114C2478022C09D0032C0FD0012C16D180256D42AD1A6C1AE4B20BE07F24201A3F3CA41A641AC0B2E1B208E03F24201A0C00C0B201002000FFF70B
:401B000023FF01E0FFF758FF70BDC04654050020F7B505000E001F0008AB1B780092019304B2009BEB189C4208DAE0B2019B3A0031000134FFF7C6FF24B2F2E7F7BD00005F
:401B4000F0B585B0202810D15D4B00229B5E002B04D15C4B1B78002B00D0AEE005235843594B00251B1803931FE00D2803D10022534B1A80A1E00A28F0D1524B50495B78A8
:401B80004A88DB009B184B8097E001231F4211D14C4B9A885B88934228D10136F6B27F08082EF2D10135052D41D0039BECB25F5D0026EAE7434B42485A785B88012A05D11D
:401BC0004188DAB27118C9B200881BE0418800888C46310051436144844620005043DBB260440093C9B2C0B213001DE0354BD2B25B789C466146324B012908D159881888DD
:401C00007118C9B22018C0B2FFF7F4FDC5E761467143588841181888634663430092C01862466346C9B2C0B2FFF772FFB5E7254F234CBB887A889A4216D07A78DBB2012AA1
:401C400007D12088A1780530C0B23200FFF73AFF0AE055432088D600F6B24519A178E8B200933300FFF754FF06210D00154B20885B789AB2554359432818144D00B22D7874
:401C800020804919884200DD25803978002914D00021605E0521594341188D420DDA002121806188D20052180949DB00097812B25B1862809A4200DD618005B0F0BDC046B8
:401CC0002C0500208C040020AA250000550500205605002010B504002078002803D0FFF72FFF0134F8E710BD014B1880598070472C0500200123002800D00300014A5370CC
:401D00007047C0468C040020014B5880998070478C040020094A10B51368002B0AD0013B1360F422FF320120934200D9002000F071F801E0024B136010BDC04630050020F3
:401D4000E703000010B500F0AFF90024052C0BD0200000F0D9F9002804D10449200000F0CBF901E00134F1E710BDC046151D000010B500F0DBFB03680C2B00D1FEE7FEE731
:401D8000F8B500250F49104B01394A1C14D000221F685C689E68A018B24203D0B858A0500432F8E70200DE68141AA64201D020C2FAE710330139E8E700F0BEFBFFF750FCEA
:401DC000FEE7C04601000000D02A0000002370B50B480C4C0C4D9A002100032B00D8A95801338150202BF6D1FFF79CFB074B1A68002A00D11A608022054B92051A6070BDD2
:401E000000000020711D0000001500008000002008ED00E07F23044AC00111680B401843C0B210607047C046000104400B480C4A0C4B10B51B68116804680B4A9B00224037
:401E400002601C2213400A07920F1833D340074A9B181B78064ADBB2136010BD0000074028000340080F0340FFFFFFBFCDF1FF0F0C0F0340024B18684000C00F7047C04620
:401E80000000074070B5802504002D02064BAC4205D9586800F08CFA044BE418F6E79868604300F085FA70BD940400200080FFFFF0B585B000F02EF9002846D000F081FA54
:401EC0000024234A234B01901B681068224A234D14602968224A9B001140A022520311431C2213400207920F1833D3401D4A1E4E53438022D2019B18DB0B013B0B432B608E
:401F000033683020039300F063FA8021174AC90513680B4313602A68154B1A40170001201034FFF7AFFFA3053B432B60F02CF6D10120FFF7A7FFFF23084A9B053B43136005
:401F4000039B0198336000F040FA05B0F0BDC04628000340080F03400C0F03400800074000F800C040420F003000104000000740FFFF3FC0F7B50500183D0400182D45D81A
:401F80000126234B3700EB409F433FD100F019FA0190FFF76FFF0097002802D0FFF746FF009607271B4E1C4A33681C49BB4333601B4BE3181B78DBB213601A4A1368BB437F
:401FC0001360194B0A68E31818787F239A43034013430B60322000F0EBF9182C0ED033681C3CA408BB433C401C433460322000F0DFF93368AD08BB431D433560009B012B12
:4020000001D1FFF755FF019800F0DFF9F7BDC04611111101080F03400C0F0340180F0340CDF1FF0F100F0340B4F1FF0F10B5002404210C4B0C4A1C601C615C609C60DC608A
:402040000A4B1A600A4A13680B43FA211360094B8900186900F0DEF9074B1860074B1C6010BDC04634050020D52000003C00002010E000E09404002014E000E018E000E078
:402080000221024A13680B431360704710E000E010B5FFF7F5FF0121024A13680B43136010BDC04610E000E010B5054C6369002B03D1FFF7BBFF01236361FFF7E9FF10BDCE
:4020C00034050020024B1868C003C00F7047C04610E000E010B5FFF7F5FF012808D10024044BE358002B00D098470434142CF7D110BDC04634050020024A8300985899504E
:402100007047C04634050020014B8000C058704734050020014B1868C00F704700000740014A024B1A6070476588EDAC380003408021044A10B5136809060B43136000F043
:4021400065F810BD0000084010B5054C2378002B03D100F007F801232370FFF7E9FF10BD4C050020154A164B07201A600023154A15491360154A1160154A16490A60164970
:402180000860164906380B601549086015490A600421154A1360154A1160154A1360154A1360154A1360154A1360154A1360154A13601268144B1A807047C0460B00000231
:4021C000000008404000084001000A00480008400700008000030840040308401003084044000840000208400402084050000840880E0840C80E0840480F0840080F084042
:40220000C80F0840880F08404E050020F021054A13688B4360390B431360034B1A88034B1A607047000402404E050020880F08408021044A10B5136809060B43136000F034
:4022400033F810BD0000094010B5054C2378002B03D100F04FF801232370FFF7E9FF10BD500500201F2204490B681340082BFBD0024B18607047C0460802094040020940AD
:4022800070B504004518AC4204D02078FFF7EAFF0134F8E770BD0000024B18681F2318407047C04608020940F021074B09011A680A43F0211A601A6809020A431A60034B3E
:4022C0001A88034B1A6070470002024052050020880F09400549064B0A6880061340C02212051040184308607047C04620000940FFFFFFF307210020104A114B10B51A60D9
:40230000104A114B1A60114B114A1360114A1160114A1360114B1860114B1860114B1860114B1860114B1860114B1860114B18601A68114B1A80FFF7CDFF10BD0F000001C6
:40234000000009400D000080200009400701008000030940040309400002094004020940880E0940C80E0940480F0940080F0940C80F0940880F094052050020202304495B
:4023800040010A689A43D2B2034013430B607047000204400223044940000A689A43D2B2034013430B60704700020440000000000230800803D001300238FCD1C046C046B1
:4023C0007047EFF3108072B6704780F31088704710B50400FFF7F5FF102C04D803210C4A13688B430FE0202C05D80321084A13688B43023906E0302C06D80321044A136866
:402400008B4301390B431360FFF7DFFF10BDC04630001040002243088B4274D303098B425FD3030A8B4244D3030B8B4228D3030C8B420DD3FF22090212BA030C8B4202D3F4
:402440001212090265D0030B8B4219D300E0090AC30B8B4201D3CB03C01A5241830B8B4201D38B03C01A5241430B8B4201D34B03C01A5241030B8B4201D30B03C01A524196
:40248000C30A8B4201D3CB02C01A5241830A8B4201D38B02C01A5241430A8B4201D34B02C01A5241030A8B4201D30B02C01A5241CDD2C3098B4201D3CB01C01A52418309AB
:4024C0008B4201D38B01C01A524143098B4201D34B01C01A524103098B4201D30B01C01A5241C3088B4201D3CB00C01A524183088B4201D38B00C01A524143088B4201D3C2
:402500004B00C01A5241411A00D20146524110467047FFE701B5002000F006F802BDC0460029F7D076E770477047C046014B18687047C046080500200E4B70B500251E0028
:402540000D4CE41AA410A54204D0AB00F35898470135F8E700F0AAFA084B00251E00084CE41AA410A54204D0AB00F35898470135F8E770BDB82A0000B82A0000B82A000003
:40258000C02A00000000000079656C6C6F774368697020566572312E30000080C0E0F0F8FCFE000103070F1F3F7F00000000003E5B4F5B3E3E6B4F6B3E1C3E7C3E1C183C96
:4025C0007E3C181C577D571C1C5E7F5E1C00183C1800FFE7C3E7FF0018241800FFE7DBE7FF30483A060E2629792926407F050507407F05253F5A3CE73C5A7F3E1C1C080850
:402600001C1C3E7F14227F22145F5F005F5F06097F017F006689956A606060606094A2FFA29408047E040810207E201008082A1C08081C2A08081E101010100C1E0C1E0C09
:4026400030383E3830060E3E0E06000000000000005F00000007000700147F147F14242A7F2A12231308646236495620500008070300001C2241000041221C002A1C7F1CFC
:402680002A08083E080800807030000808080808000060600020100804023E5149453E00427F400072494949462141494D331814127F1027454545393C4A4949314121117A
:4026C00009073649494936464949291E0000140000004034000000081422411414141414004122140802015909063E415D594E7C1211127C7F494949363E414141227F41EC
:4027000041413E7F494949417F090909013E414151737F0808087F00417F41002040413F017F081422417F404040407F021C027F7F0408107F3E4141413E7F090909063E55
:402740004151215E7F09192946264949493203017F01033F4040403F1F2040201F3F4038403F631408146303047804036159494D43007F4141410204081020004141417F7B
:4027800004020102044040404040000307080020545478407F284444383844444428384444287F385454541800087E090218A4A49C787F0804047800447D40002040403D0A
:4027C000007F1028440000417F40007C047804787C080404783844444438FC1824241818242418FC7C08040408485454542404043F44243C4040207C1C2040201C3C4030DB
:40280000403C44281028444C9090907C4464544C4400083641000000770000004136080002010204023C2623263C1EA1A161123A4040207A38545455592155557941225419
:40284000547842215554784020545579400C1E5272123955555559395454545939555454580000457C410002457D420001457C407D1211127DF0282528F07C545545002081
:4028800054547C547C0A097F4932494949323A4444443A324A4848303A4141217A3A42402078009DA0A07D3D4242423D3D4040403D3C24FF2424487E4943662B2FFC2F2B00
:4028C000FF0929F620C0887E090320545479410000447D413048484A32384040227A007A0A0A727D0D19317D2629292F28262929292630484D402038080808080808080827
:40290000382F10C8ACBA2F102834FA00007B000008142A142222142A14085500550055AA55AA55AAFF55FF55FF000000FF00101010FF00141414FF001010FF00FF1010F005
:4029400010F0141414FC001414F700FF0000FF00FF1414F404FC141417101F10101F101F1414141F00101010F0000000001F101010101F10101010F010000000FF101010A3
:40298000101010101010FF10000000FF140000FF00FF00001F10170000FC04F414141710171414F404F40000FF00F714141414141414F700F7141414171410101F101F148A
:4029C0001414F4141010F010F000001F101F0000001F14000000FC140000F010F01010FF10FF141414FF141010101F00000000F010FFFFFFFFFFF0F0F0F0F0FFFFFF0000A2
:402A0000000000FFFF0F0F0F0F0F3844443844FC4A4A4A347E02020606027E027E0263554941633844443C04407E201E2006027E020299A5E7A5991C2A492A1C4C720172BF
:402A40004C304A4D4D303048784830BC625A463D3E494949007E0101017E2A2A2A2A2A44445F444440514A444040444A51400000FF0103E080FF000008086B6B083612367E
:402A80002436060F090F06000018180000001010003040FF0101001F01011E00191D1712003C3C3C3C00000000004300F8B5C046F8BC08BC9E46704729160000CD1D000008
:402AC000F8B5C046F8BC08BC9E46704701160000E02A0000880000208804000048000000000000000000000000000000000000000000000000000000000000000000000073
:402B000000000000000000000000000000000000000000000000000000000000000000000000008080800000000000000000000000000000008080C0C00000000000000095
:402B4000000000000000000000000000000000000000000000000000000000000000000000000000000000000000000000000000000000000000000080C0E0F0F8FCF8E079
:402B80000000000000000000000000000000000000808080808000808000000000808080808000FFFFFF000000008080808000008080000080FFFF8080008080008080801A
:402BC000800080800000000000808000008C8E84000080F8F8F88000000000000000000000000000F0F0F0F0F0F0F0F0F0F0F0F0E0E0C08000E0FCFEFFFFFF7FFFFFFFFF3D
:402C0000FF0000000000000000000000000000FEFFC70101010183FFFF00007CFEC70101010183FFFFFF0038FEC78301010183C7FFFF000001FFFF010100FFFF07010101B3
:402C400000007FFF80000000FFFF7F0000FFFFFF000001FFFFFF0100000000000000000000000000030F3F7F7FFFFFFFFFFFFFFFE7C7C78F8F9FBFFFFFC3C0F0FFFFFFFF37
:402C8000FFFCFCFCFCFCFCFCFCF8F8F0F0E0C0000103030303030103030000000001030303030101030100000001030303030101030300000003030000000303000000007A
:402CC00000000001030303030301000000010301000000030301000000000000000000000000000000000080C0E0F0F9FFFFFFFFFF3F1F0F87C7F7FFFF1F1F3DFCF8F8F8A4
:402D0000F87C7DFFFFFFFFFFFFFFFF7F3F0F0700303000000000000000000000000000000000000000000000FEFEFC0000000000000000000000000000000000000000007E
:402D400000E0C000000000000000000000003030000000000000000000000000000000000000000000C0FEFFFFFFFFFFFFFFFFFF7F7F3F1F0F071F7FFFFFF8F8FFFFFFFFA4
:402D8000FFFEF8E0000000010000000000000000FEFE000000FCFEFC0C06060EFCF80000F0F81C0E0606060CFFFFFF0000FEFE00000000FCFEFC00183C7E66E6CE840000A2
:402DC00006FFFF0606FCFEFC0C0606060000FEFE0000C0F8FC4E4646464E7C7840183C76E6CECC80000000000000000000000000000000000000000001070F1F1F3F3F3F81
:402E00003F1F0F030000000000000000000000000F0F0000000F0F0F000000000F0F000003070E0C18180C060F0F0F0000010F0E0C180C0F070100040E0C180C0F07000069
:402E4000000F0F00000F0F0F0000000000000F0F00000007070C0C181C0C060600040E0C180C0F07000000000000000000000000000000000000000000000000000000001F
:402E80000000000000000000000000000000000000000000000000000000000000000000000000000000000000000000000000000000000000000000000000000000000012
:402EC0000000000000000000000000000000000000000000000000000000000000000000000000000101FFFFFFFF0000010000000000E02EC05D00001800000000366E01EB
:402F00000000000000000000000000000000000000000000000000000000000000000000AA2A000000000000000000000000000000000000000000000000000000000000BD
:402F40000000000000000000000000000000000000000000000000000000000000000000A80400200000000000000000000000000000000000000000000000000000000085
:402F80000000000000000000000000000000000000000000000000000000000000000000000000000000000000000000000000000000000000000000000000000000000011
:402FC00000000000000000000000000000000000000000000000000000000000000000000000000000000000000000000000000000000000000000000000000000000000D1
:403000000000000000000000000000000000000000000000000000000000000000000000000000000000000000000000000000000000000000000000000000000000000090
:403040000000000000000000000000000000000000000000000000000000000000000000000000000000000000000000000000000000000000000000000000000000000050
:407FC000601115000029000000801A000000000000000000000000000000000000000000000000000000000000000000000000000000000000000000000000000000000038
:0200000490303A
:02000000125399
:0200000490402A
:200000000000000000000000000000000000000000000000000000000000000000000000E0
:0200000490501A
:0C0000000002190A11A90001191823FCC4
:0200000490600A
:0100000001FE
:00000001FF