:400000000010002011000000710100007101000010B501F09DF800F0EFF900F0B1F8C04610B50B4C12232360182001F011F880225201084B1A60084A084B1A600022084B7D
:400040001A604032074B1A601123236010BDC046300010400003014040FF008000000140280003400001014010B572B6EE2212020B4B1A6099220B4B1A60C02212040A4B14
:400080001A60D8221201094B1A600223084A13603121084A1160084A1360FFF7C1FF10BD000302400004024008010440080304400004044008040440180404400000000085
:4000C0000000000000000000000000000000000000000000000000000000000000000000000000000000000000000000000000000000000000000000000000000000000000
:4001000010B5064C2378002B07D1054B002B02D0044800E000BF0123237010BD1001002000000000CC130000084B10B5002B03D00749084800E000BF07480368002B00D133
:4001400010BD064B002BFBD09847F9E70000000014010020CC130000880000200000000010B562B600F004FC00F0AAFBFEE7C04610B501F0E9F803680C2B00D1FEE7FEE7CF
:4001800070B50F4E0F4D13E029686B68AC68002202E001C901C30432A242FAD1E868002202E0002102C304328242FAD11035013E002EE9D101F0CEF8FFF7D2FFFEE7C046AB
:4001C000010000006014000010B500230AE0032B03D89A000B49505800E00B4899000B4A885001331F2BF2D9FFF73EFF084B1B68002B02D10022064B1A6080229205054B5A
:400200001A6010BD0000000071010000000000208000002008ED00E0002306E04218013A12789B189BB2013989B20029F6D1584280B270470047C04610B58022024B1A60E5
:4002400000F07AFE10BDC04680000020F0B583B00D006B469E1DDA8001230B7048701400AA70130ACB70171DB9B22800FFF7D4FFE855631D000AE854A31D1722EA54073416
:40028000A1B296233200280000F07AFC03B0F0BD70B505000E001400002802D0002000F011FE002005E0013CAB19E3181B781818C0B2002CF7D170BD10B50C2863D88000A2
:4002C000404B1B589F464B06591ACB013E4A9446634401225CE04B06591ACB013B4A94466344042254E04B06591ACB01384A9446634402224CE04B06591ACB01354A944667
:400300006344042244E04B06591ACB01324A9446634401223CE04B06591ACB012F4A94466344012234E04B06591ACB012C4A9446634402222CE04B06591ACB01294A9446AB
:400340006344022224E04B06591ACB01264A9446634402221CE04B06591ACB01234A94466344042214E04B06591ACB01204A9446634401220CE04B06591ACB011D4A94461A
:400380006344042204E0002000F09CFD02220023012A02D11878C0B200E00020022A03D11978587800020843042A09D11A785878000210439A7812041043DB781B061843E5
:4003C00010BDC046D0130000C07F0000C17F0000C57F0000C97F0000D07F0000D17F0000D67F0000D27F0000D47F0000D87F0000DC7F0000E07F000010B50D4B1B68DB0612
:4004000002D400220B4B1A600A4B1B68802B0ED10022084B1A6000210220FFF74DFF002805D000210220FFF747FFFFF703FF10BD540003408000002070B505000100032058
:40044000FFF73AFF441CE40129000420FFF734FF241829000320FFF72FFF421CD2010023002608E01078411EC9B2FD2900D801261B18DBB20132A242F4D35B42DCB229000B
:400480000120FFF719FF844203D1002E03D1062002E0062000E0002070BDC046F0B55F4656464D464446F0B4CD4CA544050000F021FB62B600239A4600270A249946002DDA
:4004C00001D1FF2300E02B00C64A02A98C4662449621490052A800F015FB002D01D0013CE4B2002C01D00028E9D1002800D0D7E1BC4B02AA944663441B88062B24D952AA6F
:400500001278012A22D152A9CA78120289780A439146110007329A421AD896235B009A4218D84A1D52AB9E5C3202081D1E5C164306315B5C172B0FD181B252A8FFF76CFE7E
:4005400086420BD100260AE0042608E0042606E0032604E0032602E0042600E00826002E00D04BE152AB1A7993465A781300313BD9B20A2900D901E18B009B49CB589F4681
:40058000012F00D03CE14B46002B00D03BE10020FFF752FF4342434152AA1371012278E1012F00D032E14B46012B00D031E15B46002B00D030E18D4B1B681B68DA0BD2B264
:4005C000934503D1DB09FF22134005E0934501D9002301E080235B0052AA13711B0A5371FF2393710023D371042252E1342A0DD1012F00D013E14B46032B00D012E14C32DF
:40060000002107A800F0D5FE80239A46012F00D00BE14B46022B00D80AE107A85044DA1E4821FF3102AB9C46614400F0B9FE4B4653449BB2832B00D0FDE052AA93791B0293
:40064000527913439A46FF2B00D90A26002E00D0F8E05B461802504480B2644B1B681A68D3099BB2520601D001339BB2834200D9ECE007A900F022FB002800D1EDE0002358
:400680009A46803399460A26002202E1012F00D104E104260022FCE0012F00D0E3E04B46534496225200934200D9DFE007A850444A4653A900F074FE53464B449BB29A469D
:4006C0000022E6E04B46002B00D0D2E004AA484B03CB03C253AA04AB03CB03C200239A4601270822D5E0012F00D0C5E04B46032B00D0C4E052AA93791B02527913439846BB
:400700005B4619024144C9014346FF2B00D90A26002E00D0B6E080220020FFF7B9FD030001905A461202424492B25946002911D1FF2A0FD10520FFF7BFFDC0B2019B1B1A11
:40074000DBB2984600210620FFF7B6FDC3B24246D31ADBB25B4252AA1371012299E00020FFF76AFE002802D18022224B1A6000F0C5F900F0E1FB042600228AE01E4B1E68CD
:40078000002E00D180E0012F00D080E002AB1A704A465A8053AB03930C22002104A800F008FE04AB9B4653AA0692190002A8B0475B469A882623FF339A4203D953AB0699E2
:4007C000994207D0069B002B01D1002A05D1049BDEB25EE00E2600225BE00E26002258E084FDFFFF6E020000041400008C00002030140000800000202C010020002248E0EF
:400800000426002245E00426002242E0042600223FE0042600223CE00426002239E00426002236E00426002233E00426002230E0042600222DE000239A468033994603266D
:40084000002226E080239946002222E000239A46803399460A2600221BE000239A4680339946002215E00426002212E0032600220FE0042600220CE00426002209E004260D
:40088000002206E0002204E00526002201E00526002252A93000FFF7D9FC01E000239A46002D00D10BE6012F00D108E69F239B009D443CBC90469946A246AB46F0BDC04680
:4008C00070B50020FFF7B8FD002801D0062400E00024154D2B681A68C03AC0210020FFF7D7FC6B681B78C01AC0B24042C0B2834204D10D4B1B681B68002B02D1002000F0FA
:40090000E1FA0A4B1B68402B01D0002C05D00022064B1A600020FFF7C1FD3220FFF7BEFDFFF78AFC70BDC0468C0000208000002010B5072000F0A8FA10BDC04610B500F002
:40094000B3F810BD10B500F0C1F810BD10B500F035F810BD10B5054A1368802109060B431360FFF7E5FFFFF7E9FF10BD0000084010B5064B1B78002B04D1FFF7E7FF0122A0
:40098000024B1A70FFF7E6FF10BDC0463001002010B5072000F082FAFFF7D4FF054A13685B005B0813600022034B1A60072000F07FFA10BD00000840880F084070B5204A48
:4009C000204B1A600024204B1C60204A204B1A60204B214A13600721204A1160204A14600639204A1160204A1360204B1C6004251F4B1D60072000F051FA0321072000F003
:400A000075FA1C49072000F05FFA1B4B1C601B4B1C601B4B1C601B4B1C601B4B1D601B4B1C601A681A4B1A801A4B1C601A4B1C601A4B1C701A4B1C601A4B1C6070BDC046FC
:400A40000B000002000008404000084001000A0048000840070000800003084004030840100308404400084000020840040208405000084065120000880E0840C80E084053
:400A8000480F0840080F0840C80F0840880F08403801002054010020600100205C010020E80100205801002005490B68F0229343603A13430B60034B1A88034B1A60704779
:400AC0000004024038010020880F0840064A1368F0218B431360054B1A68E423DB001340034A13807047C04600040240880F08403801002010B5FFF73BFF10BD10B5FFF7BC
:400B000047FF10BDF0B583B007000E00019200282DD000292ED09A00D3185C0000F04AFB002811D000F046FB0500AB2000F0FCFA00F040FB8542F5D1B54200D93500019B77
:400B40001D800023019308E0012000F001FA013C002CE3D1002510230193002404E03E1900F00EFB30700134A542F8D804E00123019301E001230193019803B0F0BDC0460C
:400B800070B50C001500002806D0002906D000F05DFB2C80002002E0012000E0012070BD82B0134B0093134B0193134B6A461A601249134A1160C0461B681B0F1B07F02200
:400BC0001206934204D10C4B1B68FF2018400DE0094B1B681B0F1B07A0221206934204D0054B1B68FF20184000E0002002B07047B6E900003C0100200800104016000080B2
:400C000004001040104B114A1A601149114A1160C0461B681B0F1B07F0221206934204D1094B1B68FF2018400DE0074B1B681B0F1B07A0221206934204D0034B1B68FF2092
:400C4000184000E00020704708001040B6E80000150000800400104082B0134B0093134B0193134B6A461A601249134A1160C0461B681B0F1B07F0221206934204D10C4BC0
:400C80001B68FF2018400DE0094B1B681B0F1B07A0221206934204D0054B1B68FF20184000E0002002B07047B6EA00003C01002008001040170000800400104030B5A5B07A
:400CC0000400002323932293FF2872D8002970D0802202A800F064FB384B00937F230193374B6A461A603749374A1160C0461B681B0F1B07F0221206934204D1304B1B68DC
:400D0000FF2213400DE02E4B1B681B0F1B07A0221206934204D02A4B1B68FF22134000E000232393239B002B45D100F022FA0500FFF736FF2290229B002B02D1FFF762FF63
:400D40002390239B002B25D1204A0092009A2404144300941A4A694611601D481A490860C0461268120F1207F02109068A4204D1134B1B68FF2213400BE0114A1268120FD3
:400D80001207A02109068A4203D00D4B1B68FF2213402393229B002B07D1FFF75DFF2290229B002B01D0229B2393280000F0E5F901E004232393239825B030BDB6D70000F8
:400DC000080010400400008004001040B6D800000500008070B5040000F0CBF90500102C05D8104A136803218B43136016E0202C07D80C490B6803229343023A13430B609A
:400E00000CE0302C07D807490B6803229343013A13430B6002E0002000F054F8280000F0ACF970BD300010400C4B1B689B001C22134018330A4A1268920803210A40D340EF
:400E400008490868084A02400A60084A944663441B78DBB2064A13607047C046080F03402800034000000740FFFFFFBFCDF1FF0F0C0F0340034B18688023DB05184000D0D5
:400E800001207047000007401F2318401E3B8340014A13607047C04600E100E01F2318401E3B8340014A13607047C04680E100E01F2318401E3B8340014A13607047C0467E
:400EC00080E200E001BE704770B504000D000F2802D90020FFF7F6FF1034A40080239B059C4664442068256070BDC04670B504000E00032902D90020FFF7E4FF0F2C02D9A5
:400F00000020FFF7DFFF03252540ED00063500F030F9A408A400074B9C46644421680323AB4099430B003100A9401943216000F024F970BD00E400E0034A13681B041B0C3F
:400F400002490B43136070470CED00E00400FA0510B5040006E0084B586800F001F9074B9C46644480231B029C42F4D8024B9868604300F0F5F810BD940000200080FFFF14
:400F800070B582B000F0DAF800284DD000F0F1F80500264B1A6892001C231A401832244B1B689B0803210B40DA400021214B1960214C2168214B0B4021494A438021C9015A
:400FC0008C466244D20B013A5205520D1343A0225203134323601B4B1B6801933020FFF7F9FE194A13688021C9050B4313602668164B1E40002407E00120FFF7A9FF103442
:40100000A30533430C4A1360EE2CF5D90120FFF79FFFFF239B051E43074B1E60019A094B1A60280000F0A9F802B070BD080F0340280003400C0F03400800074000F800C00E
:4010400040420F003000104000000740FFFF3FC0F0B583B0040018280BD01C2809D0202807D0242805D0282803D02C2801D0302849D100F07EF80190FFF7FCFE002803D02B
:40108000FFF7D2FE012600E00026214A136807218B4313601F4BE3181B78DBB21E4A13601E4A13688B4313601D4803687F22934319001C4BE3181B7813400B4303603220BF
:4010C00000F04EF8182C16D9114F3B680725AB431A0023001C3B9B082B4013433B60322000F03EF83A68AA432300183B9B082C001C4014433C60012E01D1FFF741FF01986C
:4011000000F03BF802E00020FFF7DCFE03B0F0BD080F0340CDF1FF0F0C0F0340100F0340180F0340B4F1FF0F10B5034B1B7B584300F016F810BDC04694000020034B1B68BD
:40114000002B01DA012000E00020704700000740014A024B1A6070476588EDAC380003400230800803D001300238FCD1C046C0467047EFF3108072B6704780F310887047E5
:40118000094B1A68094B1B689A420BD0074B1B680133412B00D10023054AD05CC0B2034A136000E000207047540100206001002064010020074B1B68074A1268934203D338
:4011C000054A1068181A04E0034A10681B1A4133180070475401002060010020144B1A68144B1B689A4208D1134B1B681F221340082B02D0114B186019E00D4B1A68013213
:40120000402A00D100220B4B1B689A42FBD002230B490B60C0B20B49885405490A600A4A1268134203D1084A11680B4313607047E8010020580100200802084040020840FB
:40124000800F0840A8010020880F084070B506000D00002403E0305DFFF7C0FF0134AC42F9D370BD10B5274B1B68002B00D09847254B1B685B071DD5244B1B680133412BE5
:4012800000D10023224A1268934205D1214B1B682022214B1A7006E01E4A1268D2B21F49CA541A4A13601E4B1B68DB06E4D104221C4B1A601C4B1B689B0721D51B4B1A68E6
:4012C0001B4B1B689A4213D0194B1B680133402B00D10023174AD25CD2B217490A60144A1360164B1B681F221340082BE6D104E0134A136802218B4313600222114B1A60A2
:4013000010BDC04634010020CC0F08405401002060010020400308405C0100206401002008030840C00F08408C0F0840E801002058010020A801002040020840080208406B
:40134000880F0840800F0840014B18687047C046080100200E4B70B500251E000D4CE41AA410A54204D0AB00F35898470135F8E700F064F8084B00251E00084CE41AA410AC
:40138000A54204D0AB00F35898470135F8E770BD48140000481400004814000050140000002310B59A4203D0CC5CC4540133F9E710BD03008218934202D019700133FAE749
:4013C0007047000000150000A80000000000000086030000C6020000D6020000E6020000F602000006030000160300003603000026030000460300005603000066030000E1
:401400007603000080050000A00500007C070000EC0500008C0600007C07000098060000C4060000EC050000E60600005E070000A9110A19003C010143000000F8B5C046C5
:40144000F8BC08BC9E46704729010000C9010000F8B5C046F8BC08BC9E46704701010000701400008800002088000000E000000000000000C4130000C81300000100000056
:401480000000E02EC05D00001800000000366E01000000000000000000000000000000000000000000000000000000000000000038140000000000000000000000000000F8
:4014C000000000000000000000000000000000000000000000000000000000000000000000000000000000000000000000000000A800002000000000000000000000000024
:401500000010002011150000BD170000BD17000010B5034B83F3088800F006FC00F056F90010002010B50F4C12232360182000F085FBB82252010C4B1A600C4B0C4A1A608E
:40154000802149010B4A11600B4A1A6000220B4B1A6041320A4B1A60013A0A4B1A601123236010BD30001040040301400000014041FF00800003014040FF008028000340F2
:401580001C0101400001014010B572B608220F4B1A60EE2212020E4B1A6099220D4B1A60983A0D4B1A6005320C4B1A60D82212010B4B1A6002230B4A136031210A4A11608F
:4015C0000A4A1360FFF7AEFF10BDC0460002024000030240000402400002044008020440080304400004044008040440180404400000000000000000000000000000000004
:4016000010B5064C2378002B07D1054B002B02D0044800E000BF0123237010BD0801002000000000C42A0000084B10B5002B03D00749084800E000BF07480368002B00D117
:4016400010BD064B002BFBD09847F9E7000000000C010020C42A0000880000200000000070B50C4B1B685B070FD50B4C25686B1C236000F0B9F9094B5855FF21206800F066
:40168000F9FC21600422034B1A60072000F012FA70BDC046C00F0840240100203801002010B500F0B7F9024800F0B4F910BDC046E82A000010B5011C084800F0F9FC041C53
:4016C000FC21890500F00EFE00F0DAFC00F044FB201C00F0D5FC00F037FB10BD0024744910B5084A53681268934209D0581C064AD45CFF2100F0BEFC024B5960200000E0C3
:40170000FF2010BD2401002038010020024B4360024B83607047C046A1160000B516000010B58CB001A923480B00020013CA13C313CA13C303CA03C362B600F0AFF80720CE
:4017400000F0A4F91C4800F0B9F800F059FB09A8FFF7DCFFFFF7C4FF040000F0C3F80B9A312C0FD0322C0FD0332C0FD0342C0FD0352C0FD0362C0FD0372C0FD0382C0FD107
:4017800007230FE000230DE001230BE0022309E0032307E0042305E0052303E0062301E001235B429B0001A958589047642000F0C5F9CFE7C82A00006116000010B501F021
:4017C00055F903680C2B00D1FEE7FEE770B50F4E0F4D13E029686B68AC68002202E001C901C30432A242FAD1E868002202E0002102C304328242FAD11035013E002EE9D133
:4018000001F03AF9FFF78CFFFEE7C04601000000D42B000010B500230AE0032B03D89A000B49505800E00B4899000B4A885001331F2BF2D9FFF7A8FE084B1B68002B02D1F5
:401840000022064B1A6080229205054B1A6010BD00150000BD170000000000208000002008ED00E010B5072000F010F910BDC04610B500F0A7F810BD10B500F041F810BD99
:4018800010B5054A1368802109060B431360FFF7E9FFFFF7EDFF10BD0000084010B5064B1B78002B04D1FFF7E7FF0122024B1A70FFF7E6FF10BDC0462C010020014B5860D5
:4018C0007047C0462C010020014B18687047C04640030840024B1B681F2018407047C04608030840044B1B681F221340082BF9D0024B18607047C046080208404002084093
:4019000070B51B4A1B4B1A6000241B4B1C601B4A1B4B1A601B4B1C4A136007211B4A11601B4A146006391B4A11601B4A13601B4B1C6004251A4B1D60072000F0B1F803211E
:40194000072000F0D5F81749072000F0BFF8164B1C60164B1C60164B1C60164B1C60164B1D60164B1C601A68154B1A8070BDC0460B000002000008404000084001000A008F
:40198000480008400700008000030840040308401003084044000840000208400402084050000840411E0000880E0840C80E0840480F0840080F0840C80F0840880F084008
:4019C0003401002005490B68F0229343603A13430B60034B1A88034B1A6070470004024034010020880F084010B5FFF773FF002802D0FFF769FF00E00020054B1A68D82353
:401A00009B001A4203D01A00014B1A60002010BDC00F084070B50500002402E0FFF762FF0134285D0028F9D170BDC0460C4B1B689B001C22134018330A4A126892080321B5
:401A40000A40D34008490868084A02400A60084A944663441B78DBB2064A13607047C046080F03402800034000000740FFFFFFBFCDF1FF0F0C0F0340034B18688023DB0594
:401A8000184000D001207047000007401F2318401E3B8340014A13607047C04600E100E01F2318401E3B8340014A13607047C04680E100E01F2318401E3B8340014A136007
:401AC0007047C04680E200E001BE704770B504000D000F2802D90020FFF7F6FF1034A40080239B059C4664442068256070BDC04670B504000E00032902D90020FFF7E4FFF2
:401B00000F2C02D90020FFF7DFFF03252540ED00063500F08EF9A408A400074B9C46644421680323AB4099430B003100A9401943216000F082F970BD00E400E010B50400A6
:401B400006E0084B586800F06BF9074B9C46644480231B029C42F4D8024B9868604300F05FF910BD8C0000200080FFFF70B582B000F0D0F800284DD000F05BF90500264B95
:401B80001A6892001C231A401832244B1B689B0803210B40DA400021214B1960214C2168214B0B4021494A438021C9018C466244D20B013A5205520D1343A02252031343F2
:401BC00023601B4B1B680193302000F043F9194A13688021C9050B4313602668164B1E40002407E00120FFF7A9FF1034A30533430C4A1360EE2CF5D90120FFF79FFFFF235A
:401C00009B051E43074B1E60019A094B1A60280000F013F902B070BD080F0340280003400C0F03400800074000F800C040420F003000104000000740FFFF3FC0F0B583B010
:401C4000040018280BD01C2809D0202807D0242805D0282803D02C2801D0302849D100F0E8F80190FFF708FF002803D0FFF7DEFE012600E00026214A136807218B43136087
:401C80001F4BE3181B78DBB21E4A13601E4A13688B4313601D4803687F22934319001C4BE3181B7813400B430360322000F0B8F8182C16D9114F3B680725AB431A002300C8
:401CC0001C3B9B082B4013433B60322000F0A8F83A68AA432300183B9B082C001C4014433C60012E01D1FFF741FF019800F0A5F802E00020FFF7E8FE03B0F0BD080F034094
:401D0000CDF1FF0F0C0F0340100F0340180F0340B4F1FF0F034B1B68002B01DA012000E00020704700000740014A024B1A6070476588EDAC380003400004000C014B186066
:401D40007047C046080206400004000C014B18607047C046140206400004000C014B18607047C0460C02064070B504000D0000F060F8AC40024B1C6000F05FF870BDC046D7
:401D80000800064010B500F054F8064A116810230B43136000F051F818211020FFF7E4FF10BDC04600000640014B18607047C0463802064010B50D4C8023DB0423602368D4
:401DC00023600020FFF7B8FF236823600C22084B1A600120FFF7E8FF3122064B1A600648FFF7B2FF0548FFF7B7FF10BD000206402402064028020640BF5D0000DF2E000066
:401E000010B5064B1B78002B04D1FFF7D3FF0122024B1A70FFF7B6FF10BDC046360100200230800803D001300238FCD1C046C0467047EFF3108072B6704780F310887047C7
:401E400010B5034B1B68002B00D0984710BDC0463001002070B50400FFF7EBFF0500102C05D8104A136803218B43136016E0202C07D80C490B6803229343023A13430B608C
:401E80000CE0302C07D807490B6803229343013A13430B6002E00020FFF716FE2800FFF7CCFF70BD3000104003460B437FD4002243088B4274D303098B425FD3030A8B424F
:401EC00044D3030B8B4228D3030C8B420DD3FF22090212BA030C8B4202D31212090265D0030B8B4219D300E0090AC30B8B4201D3CB03C01A5241830B8B4201D38B03C01A31
:401F00005241430B8B4201D34B03C01A5241030B8B4201D30B03C01A5241C30A8B4201D3CB02C01A5241830A8B4201D38B02C01A5241430A8B4201D34B02C01A5241030AB5
:401F40008B4201D30B02C01A5241CDD2C3098B4201D3CB01C01A524183098B4201D38B01C01A524143098B4201D34B01C01A524103098B4201D30B01C01A5241C3088B4277
:401F800001D3CB00C01A524183088B4201D38B00C01A524143088B4201D34B00C01A5241411A00D201465241104670475DE0CA0F00D04942031000D34042534000229C46C9
:401FC00003098B422DD3030A8B4212D3FC22890112BA030A8B420CD3890192118B4208D3890192118B4204D389013AD0921100E08909C3098B4201D3CB01C01A524183099B
:402000008B4201D38B01C01A524143098B4201D34B01C01A524103098B4201D30B01C01A5241C3088B4201D3CB00C01A524183088B4201D38B00C01A5241D9D243088B42AF
:4020400001D34B00C01A5241411A00D20146634652415B10104601D34042002B00D54942704763465B1000D3404201B5002000F005F802BD0029F8D016E770477047C0467E
:402080009E2110B5C905041C00F018FC002803D1201C00F0C1FB10BD9E21201CC90500F035FA00F0B9FB80231B069C466044F2E7F0B5564644465F464D46F0B44402460017
:4020C000C70F83B08846650A360EBA463DD0FF2E22D00023EC00802599469B46ED0425437F3E43465C025800DB0F640A000E984636D0FF2830D080230021E400DB041C430A
:402100007F38301A0190484642460843724E800030587A4013008746002D44D108239946063B9B46DDE70122FF2000241A406402C305640AD2071C431443200003B03CBC62
:4021400090469946A246AB46F0BD002D20D104239946033B9B46C4E7002C17D1022102E0002C0AD10121321A01924A4643460A435A48920082587B409746200000F0A8FB56
:40218000431F76309C4040420021BAE70321B8E7280000F09DFB431F9D4000237630464299469B469DE70C239946093B9B4698E780240022E403FF20B9E70024C2468B4695
:4021C0005A465346022AAED0032A7DD0012A31D1012200201A400024A9E70122101A1B2856DD1A4000200024A1E78023DB031D424BD18023DB032B435C02640A3A00FF200B
:4022000095E76D016001854230D2019A0024013A01921B220127290064006D00002901DBA84201D82D1A3C43013A002AF3D16A1E95412C4301987F300028CEDD620704D0C2
:402240000F222240042A00D00434220103D5244A019814408030FE2800DD64E70122A401640AC0B21A4062E72C00A9E72D1A1A220124CFE76B02BCD500248023DB031C43DA
:402280006402640A4246FF2051E71C42B3D1F4E721002022C140101A8440621E94410C43620704D00F222240042A00D00434620104D5012201201A40002438E70122A401CD
:4022C000640A1A40002032E78023DB031C436402640A5246FF202AE7EC2A00002C2B0000FFFFFFF7F0B557464E4645464300E0B446028846760A1F0EC40F002F47D0FF2FBE
:4023000025D0002380259A469946F600ED042E437F3F434642465D02D20F5B006D0A1B0E904640D0FF2B39D080220020ED00D20415437F3BFB1842465746591C62408C46EE
:4023400007430F2F5CD86F49BF00C9598F46002E45D108239A46063B9946DAE7424602282DD0032800D1C3E0012800D0A2E0002500260240D4B27602ED05760A2E43E407E1
:40238000264330001CBC90469946A246F0BD002E1AD104239A46033B9946BAE72A00511E8A41901CC6E70120002DC3D0280000F08FFA431F76309D4043420020BAE70124F5
:4023C000FF2514400026D6E7300000F081FA431F9E400023763047429A46994699E70C239A46093B994694E780260024F603FF25C1E735004846B2E7350022004846AEE704
:402400002904090C0800370C3604360C2C0C7943704367437443060C64183619B14203D980214902884647440004000C310409188D01681E8541890E2943350CED19AD0162
:402440000D43290104D5012369081D4063460D4319007F31002925DD680704D00F202840042800D00435280103D5274980330D401900FE29A3DC0124AD016E0A1440CDB2CD
:4024800079E78020C003064207D0054205D128434602760A4446FF256DE706437602760AFF2568E70124611A1B2905DD14400025002660E76346CBE72E002023CE40591A3B
:4024C0008D406B1E9D412E43730704D00F233340042B00D00436730104D5012401251440002648E70124B601760A1440002542E780260124F6032E437602760A1440FF2527
:4025000039E7C0466C2B0000FFFFFFF7F8B54A024E0043024400240EC50F9B09360EC90F9209FF2E00D183E001204140A01BA9425CD0002800DC95E0002E1CD1002A00D056
:4025400081E05A0704D00F221A40042A00D004335A013BD50134FF2C00D191E001209B015B0AE4B205405B02E4055B0AED0723432B431800F8BDFF2CE3D08021C9040A4322
:402580001B2800DD90E016002021C640081A8240511E8A4132439B1A5A0115D59B019E09300000F095F90538864084426CDC041B330020200134E340041BA640721E964149
:4025C00000243343BDE70D005A07BCD1DF0801231D40FF2C33D1002F00D190E08022D20313003B435B025B0AFF24BCE700284FDD002E2ED0FF2CA4D08025ED042A431B28A6
:4026000000DD97E016002025C640281A8240501E824132439B185A01D5D50134FF2C6DD001227B481A405B08034013430D0088E7002A00D07AE777E7031EC5D100257B021C
:402640005B0AE4B28FE701380028A4D0FF2C97D177E7002A00D174E701380028DAD0FF2CCDD16EE7002821D1601CC0B2012858DD80279E1AFF0437402FD0D61A0D008FE7F3
:4026800001231D4000236EE7624B241A334058E7002851D1601CC6B2012E33DDFF282DD09B185B0804004CE7012274E7002C1AD0FF2E1FD08024E404404223431B2800DD52
:4026C00096E01D002024C540201A8340581E83412B43D31A34000D005EE7002E00D05FE700250024ABE7002B44D0C0430028F0D0FF2EE3D11300FF240D0022E70D00FF2440
:40270000002330E7002C5DD1002B7DD0002A00D117E79B185A0100D456E73E4A040013400FE7002C1ED1002B2FD1002A65D013000D0006E701226DE7002C1FD1002B59D007
:40274000C04300280BD0FF2E4FD01B285EDC1D002024C540201A8340581E83412B439B18340058E7002B1CD1002A49D013000D00FF24E6E6130034000D00E2E6FF2E34D0A2
:402780008024E40440422343DFE7002A00D1D8E68027981AFF04074000D14DE7D31A0D00CFE6FF24002A00D1CBE68020DB08C003034204D0D208024201D113000D00DB00B6
:4027C000FF24BEE6002B10D0FF24002A00D1B8E68020DB08C003034203D0D208024200D11300DB000D00FF24ABE61300FF24A8E601236EE713003400A3E6002700251EE7F1
:4028000080270025FF03E9E613009AE60123A6E7FFFFFF7DFFFFFFFB4302590A4300C20F1B0E00207E2B0EDD9D2B0DDC802000040143952B0BDC9620C31AD9400B0058421B
:40284000002A00D118007047034BD018FBE7963B99400B00F3E7C046FFFFFF7F8446081C6146FFE71FB500F0BDF8002801D40021C8421FBD10B500F049F84042013010BDF7
:4028800010B500F0AFF8002801DB002010BD012010BDC04610B500F0A5F8002801DD002010BD012010BDC04610B500F057F8002801DC002010BD012010BDC04610B500F0FF
:4028C0004DF8002801DA002010BD012010BDC0461C2101231B04984201D3000C10391B0A984201D3000A08391B09984201D30009043902A2105C40187047C04604030202C6
:40290000010101010000000000000000430270B542004C005D0AC30F4802120E460A240EC90FFF2A0FD0FF2C11D00120A24200D070BDB542FCD18B420DD0002AF8D12800FF
:40294000431E9841F4E70120002DF1D1EBE70120002EEDD1E9E70020EAE7C0464302F0B542005D0AC30F4802440A4800120E000EC90FFF2A1FD0FF2822D0002A09D16E425C
:402980006E4100280FD1002C0DD10020002D09D005E0002801D1002C01D08B4213D0584201231843F0BD002EF7D048424141012049420843F6E7002DDDD002204042F1E7B3
:4029C000002CDAD0F9E78242E9DC04DBA542E6D80020A542E6D25842434101205B421843E0E7C0464302F0B542004C005E0AC30F4802120E450A240EC90FFF2A17D0FF2CA1
:402A000019D0002A0BD170427041002C17D0002807D048424141012049420843F0BD002C13D08B4214D0584201231843F6E70220002EF3D1E3E70220002DEFD1E1E7002DEA
:402A4000E5D10020002EE9D0EDE7002DE9D1EAE7A242E8DC04DBAE42E5D80020AE42DDD25842434101205B421843D7E7014B18687047C046000100200E4B70B500251E00BA
:402A80000D4CE41AA410A54204D0AB00F35898470135F8E700F08CF8084B00251E00084CE41AA410A54204D0AB00F35898470135F8E770BDBC2B0000BC2B0000BC2B0000CF
:402AC000C42B000000000000A4D082437BD49243A4D0A443719DAE430000C4430000DC43A4F0F64300D002440A0000000222000026210000E4210000BC210000E4210000CB
:402B0000B0210000E4210000BC2100002621000026210000B0210000BC210000682200006822000068220000EA2100002621000026210000D0210000BA210000D0210000B2
:402B4000B0210000D0210000BA2100002621000026210000B0210000BA21000068220000682200006822000074220000002400005E2300005E2300005C230000F223000090
:402B8000F2230000E82300005C230000F2230000E8230000F22300005C230000F8230000F8230000F82300008224000043000000F8B5C046F8BC08BC9E4670472916000083
:402BC00015180000F8B5C046F8BC08BC9E46704701160000E82B00008800002080000000300100000000000000000000010000000000E02EC05D00001800000000366E0176
:402C00000000000000000000000000000000000000000000000000000000000000000000AC2B000000000000000000000000000000000000000000000000000000000000BD
:402C40000000000000000000000000000000000000000000000000000000000000000000A00000200000000000000000000000000000000000000000000000000000000094
:402C80000000000000000000000000000000000000000000000000000000000000000000000000000000000000000000000000000000000000000000000000000000000014
:402CC00000000000000000000000000000000000000000000000000000000000000000000000000000000000000000000000000000000000000000000000000000000000D4
:402D00000000000000000000000000000000000000000000000000000000000000000000000000000000000000000000000000000000000000000000000000000000000093
:402D40000000000000000000000000000000000000000000000000000000000000000000000000000000000000000000000000000000000000000000000000000000000053
:407FC0004911150000290000008017000000000000000000000000000000000000000000000000000000000000000000000000000000000000000000000000000000000052
:0200000490303A
:02000000B950F5
:0200000490402A
:200000000000000000000000000000000000000000000000000000000000000000000000E0
:0200000490501A
:0C0000000002190A11A900011917CAF921
:0200000490600A
:0100000001FE
:00000001FF